:100000000C94C7000C94ED000C94ED000C94ED00E2
:100010000C94ED000C94ED000C94F1090C94ED009F
:100020000C94ED000C94ED000C94ED000C94B70FC3
:100030000C94ED000C94ED000C94170F0C94ED0053
:100040000C94ED000C94ED000C94ED000C94ED007C
:100050000C94ED000C94ED000C94ED000C94D90F71
:100060000C94ED000C94ED00540AD00A280A1E0AE4
:10007000250AB20AA70A35111910191032113E11BA
:100080002E114511411149110211D4106E616E00FB
:10009000696E660000407A10F35A00A0724E18098B
:1000A0000010A5D4E80000E87648170000E40B54DF
:1000B000020000CA9A3B000000E1F50500008096AE
:1000C0009800000040420F000000A08601000000E0
:1000D000102700000000E80300000000640000009A
:1000E00000000A00000000000100000000002C7663
:1000F000D888DC674F0823DFC1DFAE59E1B1B7967E
:10010000E5E3E453C63AE651997696E8E6C28426DA
:10011000EB898C9B62ED407C6FFCEFBC9C9F40F2B6
:10012000BAA56FA5F490055A2AF75C936B6CF96732
:100130006DC11BFCE0E40D47FEF520E6B500D0EDF7
:10014000902E0300943577050080841E080000205F
:100150004E0A000000C80C333333330F986E1283FD
:100160001141EF8D2114893BE65516CFFEE6DB18D1
:10017000D1844B381BF77C1D901DA4BBE424203296
:1001800084725E228100C9F124ECA1E53D2711248F
:100190001FBECFEFD8E0DEBFCDBF14BE88E10FB6E3
:1001A000F89480936000109260000FBE11E0A0E010
:1001B000B1E0EAE6F6E302C005900D92A235B10780
:1001C000D9F724E0A2E5B1E001C01D92A230B20748
:1001D000E1F70E94F3150C94331B0C9400008093FC
:1001E000C6008091C00085FFFCCF80E090E00895BC
:1001F000CF930E94C80B0E94300C20910E013091C9
:100200000F01F901E25EFE4F10823E9610821182CC
:10021000128213828091C1039091C203A091C30303
:10022000B091C403349680839183A283B383E85F43
:10023000FE4F8FEF9FEF918380833696918380836B
:1002400038971082349611821082329688E290E0BC
:10025000918380833B96C1E0C0830E94C208E091F5
:100260000E01F0910F01E05CFD4FC083CF91089526
:10027000F894519A8CE090E09093C5008093C4006C
:10028000E0ECF0E080818D7F8083E2ECF0E0808123
:1002900086608083E1ECF0E080818860808380E08C
:1002A00091E09093FF038093FE0378940895843641
:1002B00058F4682F70E064567109882777FD80959F
:1002C000982F0E948E17089560E070E0CB0108958A
:1002D000AF92BF92CF92DF92EF92FF920F931F9354
:1002E000CF93DF9300910E0110910F01F801E25EB0
:1002F000FE4F8081882309F447C0E65EFE4FA08050
:10030000B18091E0A91AB108E80122968150015FFD
:100310001F4F9DE0899F000D111D1124C12CD12C70
:10032000760104C02D96C017D107E9F08E819F8118
:100330008A159B05B9F76881643610F570E064563C
:100340007109882777FD8095982F0E948E179B0151
:10035000AC01C701B6010E948B166B017C012D9682
:10036000C017D10719F7C701B601DF91CF911F91CF
:100370000F91FF90EF90DF90CF90BF90AF900895D6
:1003800020E030E0A901E5CFC12CD12C7601EBCFE4
:10039000089520910E0130910F01F901E65CFD4FA7
:1003A00080819181019691838083D901A05CBD4FAA
:1003B0004C91442329F18832910568F186349105E6
:1003C000F8F0D901AA5CBD4F8C918F5F8C9311829C
:1003D00010828436C9F0F901E95BFD4F1082882351
:1003E000B9F083E0808385E10E94930FE0910E01D4
:1003F000F0910F01E85CFD4F118210820C94C2084D
:1004000080E00E94EF06EFCF1C92F901E95BFD4FFF
:1004100081E08083E8CFF901E95BFD4F80810E9494
:10042000EF06E1CFCF93DF9320910E0130910F01C2
:10043000F901E65CFD4F8081918101969183808373
:10044000E901C45CDD4F4881598184179507F0F1BB
:100450008634910578F1D901AA5CBD4F8C918F5FEC
:100460008C93118210820E94190C682F70E080E03A
:1004700090E00E948C1720E030E04CE852E40E94AB
:10048000421820E030E04FE753E40E94F3160E9448
:10049000601779836883C0910E01D0910F010E948B
:1004A000190C80FF0CC081E0C95BDD4F8883DF91B0
:1004B000CF91089580E0DF91CF910C94EF0682E018
:1004C000C95BDD4F8883DF91CF9108953D96808190
:1004D000DF91CF910C94EF062F923F924F925F9253
:1004E0006F927F928F929F92AF92BF92CF92DF9244
:1004F000EF92FF920F931F93CF93DF936B017C01D9
:10050000C0910E01D0910F01FE01E85CFD4F80818A
:100510009181019609F48CC04E0189EB881A8DEF08
:10052000980AF4013080F1E03F1609F472C02224E9
:100530002394FE01EF5BFD4F80818E010E5B1D4F0A
:10054000F8018823B9F14080518062807380A30153
:100550009201C701B6010E94EF1687FF30C0F80173
:10056000C082D182E282F3823B971082CA5BDD4F68
:100570008881882309F44BC081508883811147C04A
:10058000F801C082D182E282F382832DDF91CF9184
:100590001F910F91FF90EF90DF90CF90BF90AF90A1
:1005A0009F908F907F906F905F904F903F902F9093
:1005B0000C94EF06C082D182E282F382D7CF5E0133
:1005C000FAEBAF1AFDEFBF0AF5018081882391F0A5
:1005D0008150808381111BC0A3019201C701B60124
:1005E0000E943E18181664F6C95CDD4F88818F5F43
:1005F0008883C6CFA3019201C701B6010E943E18AD
:1006000018162CF4C95CDD4F8881882329F0832DCE
:10061000BDCF82E0282E8DCFF4012082F801C08268
:10062000D182E282F38280E5F5018083822DAECF14
:10063000DF91CF911F910F91FF90EF90DF90CF90BE
:10064000BF90AF909F908F907F906F905F904F90F2
:100650003F902F9008952F923F925F926F927F92DA
:100660008F929F92AF92BF92CF92DF92EF92FF92C2
:100670000F931F93CF93DF9320900E0130900F01C3
:10068000F101E25EFE4F90807101992009F4ACC047
:10069000B8ECEB1ABDEFFB0AE701A880B980B50101
:1006A000615071098101025C1D4FF8014081518147
:1006B000D1011296E253F24080E090E0CC24CA943B
:1006C000DC2C612C512C77247A9488248A940EC0D7
:1006D0009F012C503109E901288139812417350700
:1006E00079F001961D963D96891590F416962D91F8
:1006F0003C9117972617370759F78C905080E8CF11
:100700007C9060806C0101961D963D96891570F372
:10071000DFEF7D1609F479C0FFEF8F1609F481C071
:10072000DFEFAD16BD0609F487C04F3F5F4F09F4F8
:10073000A6C0F101E05CFD4F8081882309F44DC023
:10074000813049F4BCE2B815C0F0E7018881998195
:10075000892B99F01082DF91CF911F910F91FF901B
:10076000EF90DF90CF90BF90AF909F908F907F9051
:100770006F905F903F902F900895D1E4D71530F19E
:10078000E801888199810196E9F08091C1039091F7
:10079000C203A091C303B091C4034DE04C9D9001EE
:1007A0004D9D300D1124220D331DE9014C815D81D9
:1007B0006E817F81841B950BA60BB70B4197A1051A
:1007C000B10540F6D1E06D12C6CFC4CFD8018D91EE
:1007D0009C910196B9F31082BECF5110B3CF611036
:1007E000B1CF81E08083AECF28ECE21A2DEFF20A80
:1007F000D701AD90BC90CC24CA94DC2C612C512C38
:1008000088248A948101025C1D4F8FEF9FEFF801CD
:10081000918380834FEF5FEF77247A94FFEF8F12FD
:100820007FCFAB2809F458C08FEF9FEFD7018D938E
:100830009C93E80199838883992009F47ACF2091C9
:10084000F7033091F803F1019A94A101435F5F4FE0
:100850008DE0989E400D511D112405C03D96E41772
:10086000F50709F466CF8285938582179307B1F760
:10087000808591850196D7018D939C93EFCF992028
:1008800009F457CFF10132969A949101215F3F4FBD
:10089000CDE09C9E200D311D112440E5DFEFAD1A07
:1008A000BD0A08C08A159B05D1F03D96E217F307F3
:1008B00009F43FCF868197818F3F5FEF950791F7CE
:1008C0005081541778F7452FDF0112978D919C9135
:1008D000D8018D939C93E9CFA12CB12C26CF4081D8
:1008E000F3CF8F929F92AF92BF92CF92DF92EF920F
:1008F000FF920F931F93CF93DF9380910E019091FE
:100900000F01FC01EC5CFD4FDC01AB5CBD4F2081B5
:100910008C91281799F00E94DF0720910E013091E9
:100920000F01F901EC5CFD4F808190E001968F7022
:1009300099278083319690819813EDCF0E94740897
:100940000E942B03C0900E01D0900F018091C10333
:100950009091C203A091C303B091C403F601E05D7E
:10096000FE4F408151816281738184179507A607EC
:10097000B707D8F5F601E85CFD4F208131812115DC
:10098000310509F4A3C02F3F8FEF380709F4A2C047
:10099000F90131979F01ADECBCEC0E9430169695A1
:1009A00087959695879596958795AC01440F551F29
:1009B000880F991F880F991F880F991F480F591F7B
:1009C000E41BF50BE05FFE4F80810E94930FDF91E7
:1009D000CF911F910F91FF90EF90DF90CF90BF903C
:1009E000AF909F908F900C94C2088091C10390911A
:1009F000C203A091C303B091C4030196A11DB11D10
:100A000080839183A283B3838091F7039091F8034D
:100A1000F601892B09F472C0E25EFE4F80818823C3
:100A200009F4A3C0E65EFE4FE080F18091E0E91A90
:100A3000F108E601229681508601015F1F4F9DE07B
:100A4000899F000D111D1124812C912C540104C08B
:100A50002D96C017D107E9F08E819F818E159F05D5
:100A6000B9F768816436D0F570E06456710988275B
:100A700077FD8095982F0E948E179B01AC01C501D0
:100A8000B4010E948B164B015C012D96C017D10753
:100A900019F7F601E05CFD4F8081813019F180E0AB
:100AA0000E94EF06E0910E01F0910F01DF01AF5BB4
:100AB000BD4FEF01C05CDD4F88818C93E85CFD4F3A
:100AC000208131812115310509F05DCF85E10E943A
:100AD000930F7DCF80E00E94930F79CF20E030E02C
:100AE000A901CDCF31968081811103C03797118242
:100AF0001082C501B4010E946C02D4CFE65CFD4FA8
:100B000080819181019691838083D601A05CBD4F45
:100B10002C912223E1F188329105E8F18634910588
:100B2000B0F1D601AA5CBD4F8C918F5F8C9311827E
:100B30001082843629F1F601E95BFD4F108288238B
:100B400019F183E0808385E10E94930FE0910E010B
:100B5000F0910F01E85CFD4F118210820E94C208E3
:100B6000E0910E01F0910F0106CF812C912C5401E0
:100B7000F601E05CFD4F8081813009F090CFB2CF6B
:100B80001C92F601E95BFD4F81E08083DCCF80E0C1
:100B90000E94EF06D8CFF601E95BFD4F80810E94ED
:100BA000EF06D1CFE0910E01F0910F01DF01A25EBF
:100BB000BE4F8C91882309F454C081509F01235F5C
:100BC0003F4F5DE0859F200D311D1124DF0140E086
:100BD00060E006C0682F41E01D96A217B30791F0B0
:100BE00018968D919C9119978F3F5FEF9507A1F310
:100BF000462F50E04817590768F341E01D96A217A9
:100C0000B30771F7442399F1862F90E00196DF0135
:100C1000A85CBD4F4D915C9111978417950710F119
:100C20006091F7037091F80304C03D96E217F30753
:100C3000B9F08085918584179507B9F780819181F6
:100C40008617970790F74F3F8FEF580771F34F5F65
:100C50005F4F11965C934E933D96E217F30749F769
:100C60000895089511969C938E93AC01D9CFDF011E
:100C7000A85CBD4F4D915C911197D2CF0F931F93FC
:100C8000CF93DF938091C1039091C203A091C303DE
:100C9000B091C403BF93AF939F938F93E0910E01E4
:100CA000F0910F01E25EFE4F80811F928F93809141
:100CB000F8038F938091F7038F9385E291E09F93E0
:100CC0008F930E94231A8AE090E00E94371AE091E5
:100CD0000E01F0910F01DF01A25EBE4F8DB79EB7EE
:100CE0000A960FB6F8949EBF0FBE8DBF8C918823D5
:100CF000C1F110E00DE0C8E3D1E0019FE00DF11D6E
:100D00001124DF01149613968C9113978F931296EA
:100D10008C9112978F9311968C918F9384818F93DE
:100D200082811F928F9383811F928F9381818F93F2
:100D300080818F93DF93CF930E94231A1F5FE091EE
:100D40000E01F0910F01DF01A25EBE4F8DB79EB77D
:100D50000C960FB6F8949EBF0FBE8DBF8C911817DE
:100D600060F28AE090E0DF91CF911F910F910C9497
:100D7000371ACF93DF93C82FD62F81111AC066235D
:100D800091F080E09091B40061E091111EC06195F6
:100D9000811103C0662339F06FEF0E94680B8FE06A
:100DA00090E00E945D0B6D2F8C2FDF91CF910C9402
:100DB000680B9091B30081E091110CC08195D11125
:100DC000E1CF882381F360E0E8CF60E0619588237C
:100DD00009F3E3CF80E08195DD2399F3D3CFCF935F
:100DE000DF938230A9F18330F1F0813031F060E09F
:100DF00080E0DF91CF910C94680BC091FB03CC2372
:100E000061F08091B300811108C060E08FEF0E9413
:100E1000680B8FE090E00E945D0B60E08C2FDF910B
:100E2000CF910C94680BD091FA03C091F903CC23B5
:100E300029F19091B30081E0911180E08195D11169
:100E400020C0A9F56D2F8C2FDF91CF910C94680BEA
:100E5000C091E703CC2361F08091B400811108C0F8
:100E60006FEF80E00E94680B8FE090E00E945D0BC6
:100E70006C2F80E0DF91CF910C94680BDD2311F390
:100E800080E09091B40061E0911160E06195811182
:100E900002C0C1F26FEF0E94680B8FE090E00E94E9
:100EA0005D0B6D2F8C2FDF91CF910C94680B60E060
:100EB000F2CF8F929F92AF92BF92CF92DF92EF923A
:100EC000FF920F931F93CF93DF936B01D82FC92FFE
:100ED00049015A010E94EF1687FD1DC09701A80124
:100EE000B6018D2F9C2F0E943E18181684F0B60173
:100EF0008D2F9C2FDF91CF911F910F91FF90EF903D
:100F0000DF90CF90BF90AF909F908F900895670132
:100F1000D02FC12FECCF6401DA2DCB2DE8CF1F935A
:100F2000CF93DF9320910E0130910F01A9014B5C0B
:100F30005D4FDA01EC91E901B0E1EB9FC00DD11DED
:100F40001124CC5CDE4F1CE0FC01DE0101900D920F
:100F50001A95E1F7FB0180819181A281B3818C8791
:100F60009D87AE87BF87DA018C9190E001968F70E4
:100F700099278C93F901EC5CFD4F2081281721F013
:100F8000DF91CF911F91089501968F7099278083EB
:100F90008BE491E0DF91CF911F910C943E1A8091E8
:100FA0000E0190910F01FC01E55DFE4F20812111A2
:100FB00003C0815E9E4F089580E090E00895DF9227
:100FC000EF92FF920F931F93CF93DF9380910E01C7
:100FD00090910F01FC01EC5CFD4F208130E1239FDB
:100FE000800D911D1124805C9E4F0E94500C893C05
:100FF00008F065C000910E0110910F01F801EC5C42
:10100000FD4F9081E801E0E19E9FC00DD11D1124AC
:10101000CC5CDE4F698170E0762F66279881692B62
:101020007801F2EEEF1AFEEFFF0AF701D080DD2023
:1010300009F454C0F801208131812617370709F4DB
:1010400050C021E030E009C0D901458556852F5FA9
:101050003F4F3D964617570729F0922F2D15A0F3C5
:10106000A22FB0E09D1599F19DE09A9FF0019B9F02
:10107000F00D1124E00FF11F718360834091C103D3
:101080005091C2036091C3037091C403448355839C
:101090006683778382838A8183838C8190E0982F13
:1010A00088272B81822B918780878E8190E0982FD3
:1010B00088272D81822B938782878F818487DF9178
:1010C000CF911F910F91FF90EF90DF900895F4E181
:1010D000FD1550F2D394F701D082C6CFA0E0B0E066
:1010E000F9CFA0E0B0E0C0CFEF92FF920F931F9333
:1010F000CF93DF9320910E0130910F018901025EA1
:101100001E4FF801F080FA94F7FC35C05DE0E52E43
:101110008091C1039091C203A091C303B091C40315
:10112000A7015403E0011124C20FD31F4C815D813C
:101130006E817F81841B950BA60BB70B81349105C3
:10114000A105B105A8F0F8014081842F90E0019736
:10115000E89EF001E99EF00D1124E20FF31FDE017D
:101160008E2D01900D928A95E1F74150F801408350
:10117000FA94F7FECDCFDF91CF911F910F91FF90A1
:10118000EF900895CF93DF93C0910E01D0910F019E
:10119000FE01E55DFE4F81E0808333971082309140
:1011A000F7032091F803CE01815E9E4FFC0130834E
:1011B000319620833196DE01A25EBE4F2C912083B2
:1011C000E95EFE4F30812181E651F1403083319656
:1011D0002083E55EFE4F30812181EA51F14030836A
:1011E000319620833196AE5DBE4F2C9120830E94B4
:1011F000DC11C75DDE4F99838883E0910E01F09189
:101200000F01E55DFE4F1082DF91CF9108950895A3
:1012100080E090E008950895DF92EF92FF920F939F
:101220001F93CF93DF93F89414B817B81AB815B872
:1012300018B81BB8529A5A9A14BC85E085BD8FEF36
:1012400087BD22E020936E001092800010928100F2
:101250008FE89BE0909389008093880020936F0033
:101260005398239881EA8093B0002093B1001092A4
:10127000B4001092B3008BE080BF83E080937F00C6
:1012800086E080937C0083E880937A0080917A00E6
:10129000806480937A0080917A0086FDFCCF109262
:1012A0007C0083EA80937A0081E080937B0081E078
:1012B00090E00E94C91A8F3F11F08093660010924F
:1012C000C503C1E0C0939E03C093E2031092BC0328
:1012D0001092F60380E990E00E94C91A8093BB0344
:1012E0008091BB03887311F0C093BB031092E60397
:1012F0001092E5038FEF90E09093E4038093E30373
:101300001092C1031092C2031092C3031092C4033F
:1013100081E08093550182E49FE09093F5038093F0
:10132000F40380EB90E00E94C91AC82F81EB90E093
:101330000E94C91A2C2F30E0382B3093F8032093E9
:10134000F70385E090E00E94C91A8093FB0389E0CF
:1013500090E00E94C91A8093E7038CE090E00E941D
:10136000C91A8093F90384E190E00E94C91A80931E
:10137000FA0356ECE52E53E0F52E0FE913E0C0E238
:10138000D0E0CE010E94C91AD82ECE0101960E944B
:10139000C91A2D2D30E0322F2227282BF701219357
:1013A00031937F01CE01C0960E94C91AD82ECE017A
:1013B000C1960E94C91A2D2D30E0322F2227282BEA
:1013C000F801219331938F012296CC33D105C9F6D0
:1013D0007894DF91CF911F910F91FF90EF90DF9064
:1013E00008951F920F920FB60F9211248F9388E1E8
:1013F0000FB6F89480936000109260000FBE8F913A
:101400000F900FBE0F901F9018957C01EB01D12C0F
:1014100088248A9464E0B62E76E0972EE3E8AE2E18
:1014200008E110E0F9E2CF2EE0915501F0E0E7305D
:10143000F105D0F7EC5CFF4F0C942A16DD2009F47F
:10144000FDC0B0925501DD24D394FE010995ECCF87
:101450008091C5038111EBC0F89490927C00A0921A
:101460007A0080917A00806480937A0080917A007B
:1014700086FDFCCF209178003091790078942B3A4A
:1014800092E039070CF0EDC02938E2E03E070CF09D
:10149000EFC0273632400CF4CAC0559A549A3B9A92
:1014A0003A9A3D983C98C0CFF89480B7877F80BF28
:1014B00080917A008F7780937A0014B817B81AB8A1
:1014C00015B818B81BB80FB6F894A895009360002B
:1014D0000FBEC092600080916000806480936000C5
:1014E00083B7817F846083BFF89483B7816083BFB3
:1014F0007894889583B78E7F83BF78941092C503C4
:10150000529A5A9A80917A00806880937A0087E58F
:1015100092E00197F1F700C0000080B7886180BFBA
:10152000559A549A3B9A3A9A3D9A3C9AEFE1FEE4D6
:101530003197F1F700C000008091C503811181C08F
:10154000559854983B983A983D983C986DCF809127
:101550005301811141C01092B3001092B400109257
:10156000540162CF4899ECCF559A54983B983A98D9
:101570003D983C988FEC97E00197F1F700C0000090
:10158000559854983B983A983D983C989FEFE1EED7
:10159000F4E09150E040F040E1F700C0000044CF9B
:1015A000559854983B9A3A9A3D983C98EFECF7E05E
:1015B0003197F1F700C00000559854983B983A983D
:1015C0003D983C98FFEF21EE84E0F15020408040B0
:1015D000E1F700C0000028CF9091530180915401A1
:1015E000981709F421CF8091530180935401809181
:1015F0005301813009F450C0809153011092B3001F
:101600008092B4008230D9F18092B3008092B4000D
:101610008FE295E70197F1F700C000008091FA038F
:101620009091F9039093B3008093B400FDCE559A46
:10163000549A3B983A983D983C98F6CEF701099514
:1016400000CF559A549A3B983A983D983C98FFEFB2
:1016500020E782E0F15020408040E1F700C0000028
:101660006FCF559854983B9A3A9A3D983C98DCCE67
:10167000559854983B983A983D9A3C9AD5CEEFE2CB
:10168000F5E73197F1F700C000008091E703109271
:10169000B3008093B400C8CE8092B3001092B4001F
:1016A0008FE295E70197F1F700C000008091FB03FE
:1016B0008093B3001092B400B7CE07C0EFECF7E010
:1016C0003197F1F700C0000001970097B9F708952E
:1016D0008093B3006093B40008958FEF8093B300BC
:1016E0008093B4008FE090E0EFECF7E03197F1F7F2
:1016F00000C0000001970097B9F708958091C503D5
:1017000081111EC0F89487E080937C0083E8809369
:101710007A0080917A00806480937A0080917A00C8
:1017200086FDFCCF809178009091790010927C002A
:1017300023EA20937A0021E020937B007894089597
:101740008FEF9FEF08958091C50381111EC0F8941B
:1017500088EC80937C0087E880937A0080917A00FF
:10176000806480937A0080917A0086FDFCCF80911E
:1017700078009091790010927C0023EA20937A00FF
:1017800021E020937B00789408958FEF9FEF0895D8
:101790001F93CF93DF9360E070E080E013EAD1E025
:1017A000C6E0B3E8E1E0F0E020E830E0F894C09370
:1017B0007C00B0937A0090917A00906490937A00C4
:1017C00090917A0096FDFCCF40917800509179007D
:1017D000A42FA17090917A00906490937A009091D8
:1017E0007A0096FDFCCF40917800509179001092DC
:1017F0007C0010937A00D0937B0078944170A413FE
:1018000005C0215031092115310581F6AA2339F08F
:101810009F01062E01C0220F0A94EAF7822B6F5F08
:101820007F4F6830710509F0BFCFDF91CF911F91D5
:10183000089580911A01982F990F990F990F982761
:101840008091520121E0280F2093520186958695C0
:101850008927929596959770892780931A01089504
:1018600080931A0108958091C503811116C0F894E0
:1018700086E080937C0083E880937A0080917A00F0
:10188000806480937A0080917A0086FDFCCF8091FD
:10189000780090917900789408958FEF9FEF0895E4
:1018A0002F923F924F925F926F927F928F929F9270
:1018B000AF92BF92CF92DF92EF92FF920F931F935E
:1018C000CF93DF9300D000D000D0CDB7DEB78C012E
:1018D000DC0112960D90BC91A02DBE83AD83A4387F
:1018E000E3E0BE070CF0CAC080919F039091A00373
:1018F0008A179B0708F4A9C16090A1037090A20306
:101900006A167B0608F427C26090A3037090A403B4
:101910006A167B0608F428C26090A5037090A6039F
:101920006A167B0608F429C26090A7037090A8038A
:101930006A167B0608F42AC26090A9037090AA0375
:101940006A167B0608F48BC16090AB037090AC0301
:101950006A167B0608F423C26090AD037090AE0354
:101960006A167B0608F424C26090AF037090B0033F
:101970006A167B0608F425C26090B1037090B2032A
:101980006A167B0608F426C26090B3037090B40315
:101990006A167B0608F427C26090B5037090B60300
:1019A0006A167B0608F42DC26090B7037090B803E6
:1019B0006A167B0608F42EC26090B9037090BA03D1
:1019C0006A167B0608F42FC280E090E0A0EDB0E438
:1019D00089839A83AB83BC838CE0E82EF12CF701DA
:1019E000EE0FFF1FE156FC4F80819181B301681B10
:1019F000790B80E090E00E948C179B01AC010E9463
:101A00008B166B017C01AD81BE81BD01882777FDFE
:101A10008095982F0E948E174B015C01B30180E0E6
:101A200090E00E948C172B013C0129813A814B8167
:101A30005C81C701B6010E9442189B01AC01C30141
:101A4000B2010E948A169B01AC01C501B4010E943B
:101A50008A1620E030E040E251E40E9442180E94E1
:101A60005B175B01C701B6010E945B17AB01BC01AC
:101A7000C501BA010E941616762EE8C077247A9422
:101A8000D801AD90BC908091C6039091C7038A1590
:101A90009B0508F46FC00091C8031091C9030A1593
:101AA0001B0508F45CC10091CA031091CB030A1511
:101AB0001B0508F45DC10091CC031091CD030A15FC
:101AC0001B0508F45EC10091CE031091CF030A15E7
:101AD0001B0508F45FC10091D0031091D1030A15D2
:101AE0001B0508F4D8C00091D2031091D3030A1546
:101AF0001B0508F458C10091D4031091D5030A15B1
:101B00001B0508F459C10091D6031091D7030A159B
:101B10001B0508F45AC10091D8031091D9030A1586
:101B20001B0508F45BC10091DA031091DB030A1571
:101B30001B0508F45CC10091DC031091DD030A155C
:101B40001B0508F459C10091DE031091DF030A154B
:101B50001B0508F45AC10091E0031091E1030A1536
:101B60001B0508F45BC11AE5BFEF7B1207C081E2D9
:101B7000810F52C010E0BFEF7B16C9F3ED81FE81EB
:101B8000BF01882777FD8095982F0E948E176B01E3
:101B90007C01672D70E080E090E00E948C174B0183
:101BA0005C01A701960160E070E081E694E40E9488
:101BB0008A169B01AC01C501B4010E9442184B0179
:101BC0005C01612F70E080E090E00E948C172B0197
:101BD0003C0120E030E04FE254E4C701B6010E942E
:101BE0008A169B01AC01C301B2010E9442189B01FD
:101BF000AC01C501B4010E948B1620E030E048E43E
:101C000053E40E94F31620E030E044E052E40E94E6
:101C10008B160E946017862F26960FB6F894DEBFAB
:101C20000FBECDBFDF91CF911F910F91FF90EF902D
:101C3000DF90CF90BF90AF909F908F907F906F90EC
:101C40005F904F903F902F900895712CED81FE8111
:101C5000ED3BF2400CF014CF81E2870DDDCF65E063
:101C600085E090E07C01F1E0EF1AF10870E080E09F
:101C700090E00E948C1720E030E040E05FE30E949B
:101C8000421820E030E0A9010E948B1669837A8314
:101C90008B839C83A4CE75E0672EE5E0F0E0EE0F29
:101CA000FF1FEC53FC4F80819181B801681B790BB9
:101CB00080E090E00E948C179B01AC010E948B1683
:101CC0006B017C01B501882777FD8095982F0E94D4
:101CD0008E174B015C01B80180E090E00E948C17E8
:101CE0001B012C01662D70E080E090E00E948C17B3
:101CF00020E030E040E05FE30E94421820E030E066
:101D0000A9010E948B16A70196010E9442189B010F
:101D1000AC01C201B1010E948A169B01AC01C50150
:101D2000B4010E948A1620E030E040E251E40E94B3
:101D300042180E945B178B01C701B6010E945B1716
:101D4000AB01BC01C801BA010E941616162F6F3FE5
:101D500009F011CF81CF61E081E090E083CF66246C
:101D60006394E1E0F0E09BCF62E082E090E07ACF24
:101D7000A2E06A2EE2E0F0E092CF63E083E090E040
:101D800071CFF3E06F2EE3E0F0E089CF64E084E010
:101D900090E068CFE4E06E2EE4E0F0E080CF66E013
:101DA00086E090E05FCF66E0662EE6E0F0E077CF79
:101DB00067E087E090E056CF57E0652EE7E0F0E07F
:101DC0006ECF68E088E090E04DCF48E0642EE8E018
:101DD000F0E065CF69E089E090E044CF39E0632E20
:101DE000E9E0F0E05CCF6AE08AE090E03BCF2AE0F7
:101DF000622EEAE0F0E053CF9BE0692EEBE0F0E0EA
:101E00004ECF6BE08BE090E02DCF8CE0682EECE0C5
:101E1000F0E045CF6CE08CE090E024CFBDE06B2E8D
:101E2000EDE0F0E03CCF6DE08DE090E01BCF1F9245
:101E30000F920FB60F9211242F933F934F935F93FE
:101E40006F937F938F939F93AF93BF93EF93FF9382
:101E50008091E5039091E6032091E3033091E40340
:101E6000820F931F9093E6038093E5038FEF90E03A
:101E70009093E4038093E3038FEF87BD8091C103C8
:101E80009091C203A091C303B091C4030196A11D18
:101E9000B11D8093C1039093C203A093C303B09379
:101EA000C4038091C50381110FC08091F403909108
:101EB000F5032091E5033091E6038217930720F4A0
:101EC00080915501843089F0FF91EF91BF91AF91DE
:101ED0009F918F917F916F915F914F913F912F9142
:101EE0000F900FBE0F901F901895E0911D01F0917B
:101EF0001E010995009741F30E94F511811109C057
:101F00000E94F31899279093E4038093E30387BD1D
:101F1000DBCFE0911B01F0911C0109951092E603C3
:101F20001092E503D1CF80FF11C0559A81FF11C0F7
:101F3000549A82FF11C03B9A83FF11C03A9A84FFE2
:101F400011C03D9A85FD11C03C980895559881FDBA
:101F5000EFCF549882FDEFCF3B9883FDEFCF3A98B7
:101F600084FDEFCF3D9885FFEFCF3C9A08951F92F7
:101F70000F920FB60F9211248F939F9310928100AE
:101F8000109285001092840081E080939E038093DC
:101F9000E2031092C50310927C0093EA90937A00BA
:101FA00080937B009F918F910F900FBE0F901F9099
:101FB00018951F920F920FB60F9211242F933F93F3
:101FC0004F935F936F937F938F939F93AF93BF9341
:101FD000CF93DF93EF93FF9320918400309185009E
:101FE00041E04093C50380919E038823A9F110929C
:101FF000850010928400409381001092F6031092A5
:102000009E038091E2038823A1F080917A0086FDEF
:10201000FCCF80917800909179009093C0038093D9
:10202000BF0381E080937C0093EA90937A008093D1
:102030007B00FF91EF91DF91CF91BF91AF919F9185
:102040008F917F916F915F914F913F912F910F9061
:102050000FBE0F901F901895C901875891098437BA
:10206000994008F04FC026583109A4EFB0E00E9413
:102070003016AA27BB27883008F47BC040939E0304
:102080008091E203811152C08091BC03E82FF0E0FF
:10209000E851FC4F9091F60390838F5F8093BC03CF
:1020A0008C3039F6109281001092850010928400D5
:1020B0004093E2031092C503C091F203D091F30361
:1020C00088EE93E00E94DC11C817D90709F0B1CF60
:1020D0008091F10387FF5EC098E7980F933030F04E
:1020E000539823981092B4001092B30090E0FC0132
:1020F000E058F109EB30F10508F09BCFE55CFF4FAC
:102100000C942A161092810010928500109284007F
:1021100040939E034093E2031092C50310927C000B
:1021200083EA80937A0040937B0083CF80917A008A
:1021300086FDFCCF80917800909179009093BE034A
:102140008093BD0310927C0083EA80937A0081E043
:1021500080937B009091F6039923B9F0109281004F
:1021600010928500109284008093E2031092C503C0
:1021700060CF21E030E001C0220F8A95EAF780911C
:10218000F603822B8093F60354CF1092E203109251
:10219000BC034FCFE0911F01F09120016DEB73E084
:1021A00088EE93E0099545CF8091E803823009F4E9
:1021B000DCC008F4B9C0833009F4C5C0843009F02C
:1021C000B0C0809153019091EE03833009F4E2C0D6
:1021D0008091ED031092540123E0209353018093EA
:1021E000F9039093FA0380915501863009F421CFC9
:1021F000539A239A1092B4001092B30086E0809311
:10220000550117CF80915501863099F0539A239A42
:102210001092B4001092B300559854983B983A9895
:102220003D983C98109253011092540186E080939F
:10223000550181E090E00090E80302C0880F991FEB
:102240000A94E2F72091F7033091F8038223932355
:10225000892B09F086C010925301EBCE81E0809368
:102260005501E7CEE0E0F0E0099580916E008D7FAA
:1022700080936E0016BCE0E0F0E7099510925501DE
:10228000D8CE82E080935501D4CE85E0809355016D
:10229000D0CE80915501833009F4CBCE8091550189
:1022A000843009F4C6CE539A239A1092B400109247
:1022B000B30083E080935501BCCE809155018630F8
:1022C00009F0B7CE6091F70380EB90E00E94D11A3D
:1022D0006091F80381EB90E00E94D11A6091FB03BA
:1022E00085E090E00E94D11A6091E70389E090E0D8
:1022F0000E94D11A6091F9038CE090E00E94D11AFB
:102300006091FA0384E190E00E94D11A53982398D7
:102310001092B4001092B30081E080935501809137
:10232000E803811160CF85CE882339F28130C9F767
:102330008091E9039091EA039093F8038093F70367
:102340001092530150CF80915301823071F18091EE
:10235000EC031092540192E0909353018093E703B1
:1023600042CF81E08093530164CE8091530181304C
:1023700051F08091EB031092540191E0909353013E
:102380008093FB0330CF8091EB039091FB03891383
:10239000F2CF29CF8091FA0398131ACF8091ED03E1
:1023A0002091F903821316CF1ECF8091EC039091F8
:1023B000E7038913CECF17CFFC012AE08FEF9FEF01
:1023C00031918327082E8295807F8025092E982FB2
:1023D00082958F700826869598278927880F880F01
:1023E000880F8025215061F708950FB6F894A4B1A5
:1023F0002091BB032A2B24B921E03091BB0320306C
:1024000029F0000025B1232B25B904C000000000ED
:10241000000000C0000000000000309525B123231B
:1024200025B92EEA2A95F1F72BEE30B735FF0AC011
:10243000A4B93091BB03309525B1232325B90FBE34
:1024400080E0089500002A9581F721E03091BB03D8
:10245000203029F0000025B1232B25B904C000004D
:102460000000000000C0000000000000309525B111
:10247000232325B9000024E52A95F1F7FC018CE01F
:10248000619170E0660F771F616072609AE041E0D1
:1024900050E09A0126233723232B3091BB032030B1
:1024A00029F0000025B1232B25B904C0000000004D
:1024B000000000C0000000000000309525B123237B
:1024C00025B9000021E52A95F1F7440F551F9A958B
:1024D00001F78A95A9F620B7206120BFA4B93091F1
:1024E000BB03309525B1232325B90FBE81E00895A4
:1024F000A3E1B0E0EEE7F2E10C943F167C011B0192
:102500006A01FC0117821682838181FF66C3BE01C6
:102510006F5F7F4F4B01F7019381F10193FD85912F
:1025200093FF81911F01882309F453C3853239F445
:1025300093FD859193FF81911F01853239F4B70195
:1025400090E00E94F11956016501E5CF10E0512C91
:1025500020E02032A0F48B3269F030F4803259F060
:10256000833269F420612CC08D3239F0803339F424
:10257000216026C02260246023C0286021C027FD7E
:1025800027C030ED380F3A3078F426FF06C0FAE065
:102590001F9F300D1124132F13C06AE0569E300D7B
:1025A0001124532E20620CC08E3221F426FD11C35B
:1025B000206406C08C3611F4206802C0883641F4CD
:1025C000F10193FD859193FF81911F018111C1CF8D
:1025D0009BEB980F933018F42061805E06C09BE956
:1025E000980F933008F0AAC12F7E26FF16E02F73B4
:1025F000722E853621F4F22FF0647F2E08C08636C5
:1026000021F4622F6068762E02C01111115077FEFE
:1026100007C01C3348F444244394410E27E00BC008
:10262000183030F4212F06C027E04CE3442E03C0BD
:1026300027E017E0412C560174E0A70EB11CF6010B
:102640006081718182819381042DA4010E9403190C
:102650006C01098100FF02C003FF06C071FC07C0C6
:1026600072FC08C0612C08C03DE2632E05C02BE25D
:10267000622E02C090E2692E802F8C7099F1662044
:1026800011F084E001C083E0851510F0512C0BC0DF
:10269000581A73FC08C0B70180E290E00E94F1195B
:1026A0005A94C9F7F3CF662029F0B701862D90E040
:1026B0000E94F11903FD03C000E910E002C00CE81C
:1026C00010E0F72DF0717F2EF8018491882309F432
:1026D00076C271108052B70190E00E94F1190F5F2D
:1026E0001F4FF2CF77FE0FC04C0C04FF04C08A814D
:1026F000813309F44A94141474F5F8E0F41578F56C
:1027000088E0482E2CC076FC2AC0812F90E08C15E2
:102710009D059CF06CEFC6166FEFD60674F0772D12
:102720007068772E0AC0E2E0F0E0EC0FFD1FE10FC9
:10273000F11D8081803319F411501111F4CF77FE0F
:102740000EC044244394410E812F90E0C816D90650
:102750002CF41C1904C04424439401C010E077FEFB
:1027600007C01C141D043CF496012F5F3F4F05C0A9
:1027700025E030E002C021E030E0662011F02F5F5C
:102780003F4F112331F0412F50E04F5F5F4F240F37
:10279000351F452D50E02417350714F4521A01C097
:1027A000512C872D897049F4552039F0B70180E20A
:1027B00090E00E94F1195A94F7CF662029F0B701F2
:1027C000862D90E00E94F11973FC09C0552039F064
:1027D000B70180E390E00E94F1195A94F7CF77FE99
:1027E0005FC09C2D8D2DD7FE02C090E080E0692E49
:1027F000782E40E050E0C601841991099D878C87AE
:10280000960126193709280D391D812F90E0EE27F2
:10281000FF27E81BF90BFF87EE87FFEF6F167F0698
:1028200069F4B7018EE290E02B8B3A8B488B598B81
:102830000E94F119598948893A892B89C614D7040D
:1028400054F06C857D85661577052CF4F901E40F4D
:10285000F51F818101C080E371E0671A71084F5F45
:102860005F4FEE85FF856E167F066CF0B70190E036
:102870002B8B3A8B488B598B0E94F1192B893A8903
:1028800048895989CACF6C147D0439F49A819633EA
:1028900018F4953311F404FF81E3B70190E04BC0C5
:1028A0008A81813309F00F7EB70190E00E94F1190F
:1028B000111105C074FE18C085E490E017C0B7017F
:1028C0008EE290E00E94F11982E066246394680E23
:1028D000F401E80FF11D8081B70190E00E94F11929
:1028E000115041F3862DF1CF85E690E0B7010E94AB
:1028F000F119D7FC05C0C114D10439F404FF05C097
:10290000D194C194D1088DE201C08BE2B70190E06F
:102910000E94F11980E36AE0C616D1042CF08F5FA3
:10292000FAE0CF1AD108F7CFB70190E00E94F11971
:10293000B701C601C0960E94F11941C1833631F03A
:10294000833779F0833509F058C021C0560172E011
:10295000A70EB11CF6018081898301E010E06401BB
:1029600014C05601F2E0AF0EB11CF601C080D18058
:1029700026FF03C0612F70E002C06FEF7FEFC6013A
:102980002B8B0E94E6198C012B892F7715C05601DD
:10299000F2E0AF0EB11CF601C080D18026FF03C06B
:1029A000612F70E002C06FEF7FEFC6012B8B0E949A
:1029B000DB198C012B892068722E23FD1AC0852D0E
:1029C00090E008171907A8F4B70180E290E00E9490
:1029D000F1195A94F4CFF60177FC859177FE819135
:1029E0006F01B70190E00E94F11951105A94015003
:1029F00011090115110579F7E2C0843611F0893605
:102A000051F5560127FF09C0F4E0AF0EB11CF601E5
:102A100060817181828193810AC0F2E0AF0EB11CA6
:102A2000F60160817181882777FD8095982F022FAC
:102A30000F7697FF08C090958095709561957F4FB0
:102A40008F4F9F4F00682AE030E0A4010E946B1A6C
:102A5000C82EC8183EC0022F853721F40F7E2AE009
:102A600030E01DC0097F8F3691F018F4883559F099
:102A7000B0C0803719F0883711F0ABC0006104FF97
:102A800009C0046007C024FF08C0066006C028E033
:102A900030E005C020E130E002C020E132E0560124
:102AA00007FF09C0F4E0AF0EB11CF601608171812F
:102AB0008281938108C0F2E0AF0EB11CF601608103
:102AC000718180E090E0A4010E946B1AC82EC818A2
:102AD0000F7706FF0BC0202F2E7FC11650F404FF86
:102AE0000AC002FD08C0202F2E7E05C0DC2C202F3E
:102AF00003C0DC2C01C0D12E24FF0DC0FE01EC0D63
:102B0000F11D8081803311F4297E09C022FF06C0A7
:102B1000D394D39404C0822F867809F0D39423FDF4
:102B200013C020FF06C01C2DD51418F4150D1D1957
:102B3000D52CD51468F4B70180E290E02B8B0E946D
:102B4000F119D3942B89F5CFD51410F45D1801C079
:102B5000512C24FF12C0B70180E390E02B8B0E9420
:102B6000F1192B8922FF17C021FF03C088E590E0EF
:102B700002C088E790E0B7010CC0822F867859F038
:102B800021FD02C080E201C08BE227FD8DE2B7018A
:102B900090E00E94F119C11638F4B70180E390E08B
:102BA0000E94F1191150F7CFCA94F401EC0DF11DF8
:102BB0008081B70190E00E94F119C110F5CF552036
:102BC00009F4C2CCB70180E290E00E94F1195A9456
:102BD000F6CFF7018681978102C08FEF9FEF639652
:102BE000E2E10C945B160E940C090E94380180916E
:102BF0000E0190910F01FC01EC5CFD4F10823196AB
:102C000010828FE897E09093200180931F018FEC52
:102C100097E090931E0180931D0161E774E088EFB7
:102C200090E00E94050A80E090E0089597FB072E4F
:102C300016F4009407D077FD09D00E94761607FCA1
:102C400005D03EF4909581959F4F089570956195BC
:102C50007F4F0895EE0FFF1F0590F491E02D09942A
:102C6000A29FB001B39FC001A39F700D811D1124CD
:102C7000911DB29F700D811D1124911D08952F92F9
:102C80003F924F925F926F927F928F929F92AF92FC
:102C9000BF92CF92DF92EF92FF920F931F93CF9349
:102CA000DF93CDB7DEB7CA1BDB0B0FB6F894DEBFE0
:102CB0000FBECDBF09942A88398848885F846E8406
:102CC0007D848C849B84AA84B984C884DF80EE8050
:102CD000FD800C811B81AA81B981CE0FD11D0FB659
:102CE000F894DEBF0FBECDBFED010895AA1BBB1B3C
:102CF00051E107C0AA1FBB1FA617B70710F0A61BFC
:102D0000B70B881F991F5A95A9F780959095BC011C
:102D1000CD0108955058BB27AA270ED075C166D1A2
:102D200030F06BD120F031F49F3F11F41EF45BC101
:102D30000EF4E095E7FB51C1E92F77D180F3BA1784
:102D4000620773078407950718F071F49EF58FC129
:102D50000EF4E0950B2EBA2FA02D0B01B9019001B6
:102D60000C01CA01A0011124FF27591B99F0593FFA
:102D700050F4503E68F11A16F040A22F232F342F42
:102D80004427585FF3CF469537952795A795F04090
:102D90005395C9F77EF41F16BA0B620B730B840BA5
:102DA000BAF09150A1F0FF0FBB1F661F771F881F5D
:102DB000C2F70EC0BA0F621F731F841F48F48795B5
:102DC00077956795B795F7959E3F08F0B3CF9395A4
:102DD000880F08F09927EE0F979587950895D9D019
:102DE00008F481E008950CD00FC107D140F0FED067
:102DF00030F021F45F3F19F0F0C0511139C1F3C038
:102E000014D198F39923C9F35523B1F3951B550BAE
:102E1000BB27AA2762177307840738F09F5F5F4FAD
:102E2000220F331F441FAA1FA9F333D00E2E3AF0EE
:102E3000E0E830D091505040E695001CCAF729D008
:102E4000FE2F27D0660F771F881FBB1F2617370757
:102E50004807AB07B0E809F0BB0B802DBF01FF2787
:102E600093585F4F2AF09E3F510568F0B6C000C1ED
:102E70005F3FECF3983EDCF3869577956795B795C1
:102E8000F7959F5FC9F7880F911D9695879597F9DC
:102E90000895E1E0660F771F881FBB1F6217730755
:102EA0008407BA0720F0621B730B840BBA0BEE1F6A
:102EB00088F7E095089504D06894B111D9C00895B9
:102EC000BCD088F09F5790F0B92F9927B751A0F048
:102ED000D1F0660F771F881F991F1AF0BA95C9F7AE
:102EE00012C0B13081F0C3D0B1E00895C0C0672FE7
:102EF000782F8827B85F39F0B93FCCF3869577955E
:102F00006795B395D9F73EF4909580957095619546
:102F10007F4F8F4F9F4F0895E89409C097FB3EF471
:102F200090958095709561957F4F8F4F9F4F992316
:102F3000A9F0F92F96E9BB279395F6958795779594
:102F40006795B795F111F8CFFAF4BB0F11F460FF54
:102F50001BC06F5F7F4F8F4F9F4F16C0882311F0AC
:102F600096E911C0772321F09EE8872F762F05C0C0
:102F7000662371F096E8862F70E060E02AF09A955B
:102F8000660F771F881FDAF7880F9695879597F950
:102F90000895990F0008550FAA0BE0E8FEEF1616EA
:102FA0001706E807F907C0F012161306E407F5073D
:102FB00098F0621B730B840B950B39F40A2661F0B1
:102FC000232B242B252B21F408950A2609F4A14054
:102FD000A6958FEF811D811D089597F99F6780E861
:102FE00070E060E008959FEF80EC089500240A945B
:102FF0001616170618060906089500240A941216D4
:103000001306140605060895092E0394000C11F406
:10301000882352F0BB0F40F4BF2B11F460FF04C0B3
:103020006F5F7F4F8F4F9F4F089557FD9058440F0C
:10303000551F59F05F3F71F04795880F97FB991F17
:1030400061F09F3F79F087950895121613061406D4
:10305000551FF2CF4695F1DF08C016161706180661
:10306000991FF1CF86957105610508940895E8943C
:10307000BB2766277727CB0197F908958ADF08F4E5
:103080008FEF08950BD0C0CFB1DF28F0B6DF18F076
:10309000952309F0A2CFA7CF1124EACFC6DFA0F372
:1030A000959FD1F3950F50E0551F629FF001729FDD
:1030B000BB27F00DB11D639FAA27F00DB11DAA1FFC
:1030C000649F6627B00DA11D661F829F2227B00D49
:1030D000A11D621F739FB00DA11D621F839FA00DD4
:1030E000611D221F749F3327A00D611D231F849F24
:1030F000600D211D822F762F6A2F11249F5750407B
:103100008AF0E1F088234AF0EE0FFF1FBB1F661F15
:10311000771F881F91505040A9F79E3F510570F0CE
:103120005CCFA6CF5F3FECF3983EDCF386957795B6
:103130006795B795F795E7959F5FC1F7FE2B880FC9
:10314000911D9695879597F908958F929F92AF92CA
:10315000BF92CF92DF92EF92FF92CF93DF93EC0179
:10316000688179818A819B8161157105810591054D
:1031700021F464E279ED8BE597E02DE133EF41E056
:1031800050E00E94DF1A49015A019B01AC01A7EAF5
:10319000B1E40E94FE1A6B017C01ACEEB4EFA50114
:1031A00094010E940C1BC60ED71EE81EF91EF7FEE6
:1031B00006C081E0C81AD108E10880E8F80AC88290
:1031C000D982EA82FB82C6019F77DF91CF91FF907F
:1031D000EF90DF90CF90BF90AF909F908F90089529
:1031E0000E94A518089581E291E00E94A518089513
:1031F000A0E0B0E08093210190932201A0932301ED
:10320000B09324010895283008F027E03327DA012D
:10321000990F311D87FD916000966105710539F4A4
:1032200032602E5F3D9330E32A95E1F708959F3F8A
:1032300030F080387105610509F03C5F3C5F3D93DB
:10324000913008F08068911DDF93CF931F930F9307
:10325000FF92EF92192F987F9695E92F9695969564
:10326000E90FFF27E251FF4F99273327EE24FF2470
:10327000A701E70105900894079428F4360FE71E8C
:10328000F81E491F511D660F771F881F991F06944E
:10329000A1F70590079428F4E70EF81E491F561F62
:1032A000C11D770F881F991F661F0694A1F705900F
:1032B000079428F4F80E491F561FC71FD11D880F09
:1032C000991F661F771F0694A1F70590079420F4B5
:1032D000490F561FC71FD81F990F661F771F881FDA
:1032E0000694A9F784911095177041F0D695C7956B
:1032F00057954795F794E7941A95C1F7E4E9F0E0FC
:1033000068941590159135916591959105907FE29E
:103310007395E118F10A430B560BC90BD009C0F79E
:10332000E10CF11E431F561FC91FD01D7EF47033E0
:1033300011F48A95E6CFE894015030F0080F0AF4B2
:103340000027021708F4202F2395022F7A3328F044
:1033500079E37D932A95E9F710C07D932A9589F644
:10336000069497956795379517951794E118F10A84
:10337000430B560BC90BD00998F023957E9173959A
:103380007A3308F070E37C932013B8F77E91706174
:103390007D9330F0839571E37D9370E32A95E1F797
:1033A0001124EF90FF900F911F91CF91DF919927FA
:1033B00087FD90950895FC010590615070400110C3
:1033C000D8F7809590958E0F9F1F0895FC0161504E
:1033D000704001900110D8F7809590958E0F9F1F37
:1033E00008950F931F93CF93DF93182F092FEB01AD
:1033F0008B8181FD03C08FEF9FEF20C082FF10C043
:103400004E815F812C813D81421753077CF4E88116
:10341000F9819F012F5F3F4F39832883108306C0B6
:10342000E885F985812F0995892B29F72E813F8120
:103430002F5F3F4F3F832E83812F902FDF91CF91BE
:103440001F910F910895A0E0B0E0E9E2FAE10C9439
:103450004F16FE01359661917191AF018091FE0387
:103460009091FF030E947812E2E00C946B16609139
:10347000FE037091FF030E94F11908950F931F93AB
:10348000CF93DF93E091FE03F091FF03238121FFAF
:103490001BC0EC0100E010E089916091FE03709187
:1034A000FF03DB011896ED91FC911997882331F009
:1034B0000995892B89F30FEF1FEFEECF8AE009956D
:1034C000892B11F4C80102C08FEF9FEFDF91CF91DC
:1034D0001F910F910895FA01AA27283051F1203148
:1034E00081F1E8946F936E7F6E5F7F4F8F4F9F4F98
:1034F000AF4FB1E03ED0B4E03CD0670F781F891FDA
:103500009A1FA11D680F791F8A1F911DA11D6A0FA7
:10351000711D811D911DA11D20D009F468943F915A
:103520002AE0269F11243019305D3193DEF6CF0159
:103530000895462F4770405D4193B3E00FD0C9F71F
:10354000F6CF462F4F70405D4A3318F0495D31FD8C
:103550004052419302D0A9F7EACFB4E0A6959795DF
:10356000879577956795BA95C9F7009761057105B5
:1035700008959B01AC010A2E0694579547953795FF
:103580002795BA95C9F7620F731F841F951FA01D59
:103590000895F999FECF92BD81BDF89A992780B51B
:1035A0000895262FF999FECF1FBA92BD81BD20BD87
:1035B0000FB6F894FA9AF99A0FBE01960895052E5F
:1035C00097FB1EF400940E94F61A57FD07D00E9444
:1035D000111B07FC03D04EF40C94F61A509540953D
:1035E000309521953F4F4F4F5F4F089590958095AF
:1035F000709561957F4F8F4F9F4F08950E943016B1
:10360000A59F900DB49F900DA49F800D911D112436
:103610000895B7FF0C94FE1A0E94FE1A821B930BAA
:103620000895A1E21A2EAA1BBB1BFD010DC0AA1F03
:10363000BB1FEE1FFF1FA217B307E407F50720F01B
:10364000A21BB30BE40BF50B661F771F881F991F96
:103650001A9469F760957095809590959B01AC01DF
:0A366000BD01CF010895F894FFCFDB
:10366A000000000200000000EF0000000000560108
:10367A001203070A0D0C28243021AA0B090809078E
:10368A0009010000005549443A2564204E3A256450
:10369A0020743A256C750A002020253264202532D0
:1036AA00642025336420256C750A0046756C6C2EDF
:0236BA0000000E
:00000001FF
