:100000000C94DB000C9401010C9401010C9401018F
:100010000C9401010C9401010C94250D0C94010128
:100020000C9401010C9401010C9401010C94EB124D
:100030000C9401010C9401010C944B120C940101DD
:100040000C9401010C9401010C9401010C94010128
:100050000C9401010C9401010C9401010C940D13FA
:100060000C9401010C940101880D040E5C0D520DDD
:10007000590DE60DDB0D69144D134D136614721402
:100080006214791475147D1436140814076342360B
:10009000B79BD8A71A39685618AEBAAB558C1D3C19
:1000A000B7CC5763BD6DEDFD753EF6177231BF00DD
:1000B0000000803F6E616E00696E660000407A103D
:1000C000F35A00A0724E18090010A5D4E80000E809
:1000D0007648170000E40B54020000CA9A3B000067
:1000E00000E1F505000080969800000040420F00F6
:1000F0000000A08601000000102700000000E803B7
:10010000000000006400000000000A000000000081
:100110000100000000002C76D888DC674F0823DF40
:10012000C1DFAE59E1B1B796E5E3E453C63AE65113
:10013000997696E8E6C28426EB898C9B62ED407C3A
:100140006FFCEFBC9C9F40F2BAA56FA5F490055AD6
:100150002AF75C936B6CF9676DC11BFCE0E40D47FB
:10016000FEF520E6B500D0ED902E0300943577051E
:100170000080841E080000204E0A000000C80C33D6
:100180003333330F986E12831141EF8D2114893B65
:10019000E65516CFFEE6DB18D1844B381BF77C1DE5
:1001A000901DA4BBE424203284725E228100C9F138
:1001B00024ECA1E53D2711241FBECFEFD8E0DEBF20
:1001C000CDBF14BE88E10FB6F89480936000109202
:1001D00060000FBE11E0A0E0B1E0E2EEFDE302C07E
:1001E00005900D92A432B107D9F729E0A4E2B1E05D
:1001F00001C01D92AB37B207E1F70E9427190C949A
:10020000EF1E0C9400008093C6008091C00085FF13
:10021000FCCF80E090E0089580910E0190910F0155
:10022000FC01E352FC4F2081211103C083539C4FFA
:10023000089580E090E008951F93CF93DF9320917D
:100240000E0130910F01A9014152584FDA01EC9192
:10025000E901B0E1EB9FC00DD11D1124C252DC4F6A
:100260001CE0FC01DE0101900D921A95E1F7FB0103
:1002700080819181A281B3818C879D87AE87BF8762
:10028000DA018C9190E001968F7399278C93F90194
:10029000E252F84F2081281304C001968F739927EA
:1002A0008083DF91CF911F9108951F93CF93DF93A8
:1002B000C0910E01D0910F01FE01EF53FC4F8091D0
:1002C00070098F5F808331968FEF8083E65DFB4FEF
:1002D00011E01083319610820E944D0FCC51D84FFF
:1002E0008F7390E00196AA2797FDA095BA2F888377
:1002F0009983AA83BB83C0910E01D0910F01FE01A7
:10030000EC53FC4F108211821282138234961082B9
:10031000118212821382349610823C971082799651
:100320001082118212821382E95FFB4F10821182C8
:1003300012821382389610821182128213823696AC
:100340001083E151F440108337971082CE0183531C
:100350009C4F75972081FC0120833196DE01AE53BE
:10036000BC4F2C912083319610823196A65DBB4FF5
:100370002C912083319610820E941015C952DC4FB7
:1003800099838883E0910E01F0910F01E352FC4FB5
:100390001082DF91CF911F910895F894519A8CE0CB
:1003A00090E09093C5008093C400E0ECF0E0808181
:1003B0008D7F8083E2ECF0E0808186608083E1ECD9
:1003C000F0E080818860808380E091E090937809FC
:1003D0008093770978940895CF93C82F20910E01C8
:1003E00030910F01F901E451F84F80818C17A1F091
:1003F00031968083C13011F120F0C230B9F0C330A2
:1004000069F060E080E00E949C0EE0910E01F091A6
:100410000F01E451F84FC083CF9108950E94A10EBF
:100420006091600980E00E949C0EEFCF0E94A10EB7
:1004300060E0809174090E949C0EE7CF0E94A10E9B
:1004400060917309809172090E949C0EDECFEF9239
:10045000FF920F931F93CF93DF93C0910E01D09122
:100460000F01FE01E352FC4F81E080833797108239
:100470008E0103531C4F75978081F801808331965C
:10048000DE01AE53BC4F8C918083319612978C91D4
:1004900080833196A45DBB4F8C9180837E01FFE207
:1004A000EF1AFCEFFF0AFE01EC53FC4F60817181F3
:1004B000828193810E94C11AF7016083C8010E9462
:1004C0001015C952DC4F99838883E0910E01F09199
:1004D0000F01E352FC4F1082DF91CF911F910F91DA
:1004E000FF90EF900895FF920F931F93CF93DF93A8
:1004F00080910E0190910F01FC01E252F84F208192
:1005000030E1239F800D911D112486519C4F0E9444
:10051000840F60910E0170910F01FB01E252F84FC0
:100520009081DB01E0E19E9FA00DB11D1124A2523C
:10053000BC4FFC90EB01C054DC4F0881002309F450
:1005400051C0FB0190819F1509F44FC03F9621E0F7
:1005500030E007C0A90110812F5F3F4F3F961F1564
:1005600029F0922F2017B0F3422F50E09017A9F1F5
:100570009FE0949FE001959FD00D1124C60FD71FD7
:10058000F8828A8311968C911197898312968C91A7
:10059000129790E09A87898713968C911397888792
:1005A00014966C9170E080E090E00E94ED1A6B83ED
:1005B0007C838D839E8380913A0990913B09A09121
:1005C0003C09B0913D098B879C87AD87BE87DF9141
:1005D000CF911F910F91FF9008950F3348F60F5F51
:1005E0000883C6CF40E050E0FACF40E050E0C0CFF3
:1005F000DF92EF92FF920F931F93CF93DF9320919F
:100600000E0130910F01890100541C4FF801E08068
:10061000EE20D1F1F12C8FE0D82E18C08E2D90E075
:100620000197D89EF001D99EF00D1124E20FF31F1F
:10063000DE018D2D01900D928A95E1F78FEF8E0DE1
:10064000F8018083F394F816F8F4E82E80913A09C3
:1006500090913B09A0913C09B0913D09E901DF9CD3
:10066000C00DD11D11244B855C856D857E85841B55
:10067000950BA60BB70B81349105A105B10570F65A
:100680008E2DF394F81608F3DF91CF911F910F91FF
:10069000FF90EF90DF90089520910E0130910F01AF
:1006A000D901AD53BC4F8EEF8C93F901E054FC4F50
:1006B0008081882309F451C0EF5BF3404FEF480F6E
:1006C000C90140965FE0459F800D911D11246EEF9A
:1006D0004081461710F44C93642F3F96E817F907B2
:1006E000B9F7862F90E00196F901EE53FC4F408157
:1006F00050E04817590729F16F5F6083D901AF5364
:10070000BC4F8C91813001F18DEC689F812D1124BB
:100710008695869586959AE0899F60191124E62F23
:10072000F0E0E05FFE4F80810E94C71220910E0131
:1007300030910F01F901EF53FC4F8081813021F09E
:10074000089531978081FACFF901EE53FC4F108262
:100750003196108284E10C94C7128FEF90E06EEF17
:10076000C3CF40910E0150910F01FA01E054FC4FAC
:100770008081882329F13296608170E0615071098F
:10078000E05CF34081504F5E5F4F9FE0899F400DDA
:10079000511D112484E604C03F96E417F50779F053
:1007A000DF0111972C9130E026173707A9F79081C8
:1007B000981790F7892F3F96E417F50789F7089562
:1007C00084E60895FF920F931F93CF93DF93809158
:1007D0000E0190910F01FC01E054FC4F60816623F3
:1007E00009F449C0C0E0D0E02FE0F22E02E013E0AF
:1007F0000AC0382F292F2196862F90E0C817D907D5
:10080000D4F5832F922FFC9EF001FD9EF00D112454
:10081000E80FF91F418150E0DC01AE53BC4F2C9131
:1008200030E0215031094217530719F72281FC01AA
:10083000E451F84F213528F120812230D1F631964C
:1008400020830E94A10E6091600980E00E949C0EAE
:1008500080910E0190910F01FC01E451F84F10833B
:10086000EC52F4406081382F292F2196862F90E09A
:10087000C817D90734F2DF91CF911F910F91FF90E4
:1008800008952081233009F0B4CF319620830E944F
:10089000A10E60E0809174090E949C0E80910E016F
:1008A00090910F01FC01E451F84F0083EC52F440A9
:1008B0006081382F292F9FCFDF92EF92FF920F9305
:1008C0001F93CF93DF93E0910E01F0910F01DF01B1
:1008D000A451B84FDC9081E0D81609F447C0D8166F
:1008E00068F1C3E0CD1550F140913A0950913B09B0
:1008F00060913C0970913D097F01DCE1ED1AD8EF70
:10090000FD0A14978D919D910D90BC91A02DE7014A
:10091000088119812A813B81800F911FA21FB31F7B
:1009200084179507A607B70708F47FC0DF91CF911A
:100930001F910F91FF90EF90DF900895DD20B1F3AC
:10094000E351F84FD08260E080E00E949C0EE0917D
:100950000E01F0910F01E451F84F1082DF91CF9119
:100960001F910F91FF90EF90DF90089540913A0909
:1009700050913B0960913C0970913D09EC51F84F51
:1009800080819181A281B381805C9F4FAF4FBF4F27
:1009900084179507A607B70748F680913A09909102
:1009A0003B09A0913C09B0913D0980839183A283CA
:1009B000B3830E944D0FC0910E01D0910F01FE0133
:1009C000E451F84F80FF51C08081823099F0C351CB
:1009D000D84F88830E94A10E60E0809174090E9424
:1009E0009C0EC0910E01D0910F01FE01E451F84F11
:1009F00082E080830E944D0FFE01E851F84F90E0A5
:100A00006CE271E00E944A190196AA2797FDA09511
:100A1000BA2F80839183A283B383DF91CF911F91FB
:100A20000F91FF90EF90DF90089580913A09909197
:100A30003B09A0913C09B0913D0988839983AA8321
:100A4000BB83E351F84FD0820E94A10E60917309DD
:100A5000809172090E949C0EE0910E01F0910F01AD
:100A6000E451F84F81E0808361CF8081833011F2BF
:100A7000C351D84F88830E94A10E6091600980E025
:100A80000E949C0EC0910E01D0910F01FE01E45115
:100A9000F84F83E08083AECFCF92DF92EF92FF9248
:100AA0006B017C01CA01B9019058A70196010E940F
:100AB000141C0E94901A20E030E040E85FE30E949E
:100AC000BF199B01AC0160E070E080E89FE30E94E9
:100AD000231AFF90EF90DF90CF9008952F923F92CE
:100AE0004F925F926F927F928F929F92AF92BF923E
:100AF000CF92DF92EF92FF920F931F93CF93DF93EA
:100B000000D000D0CDB7DEB769837A838B839C8316
:100B100029013A0180910E0190910F01FC01E054EE
:100B2000FC4F2081222309F45AC032962080312CB8
:100B300081E0281A3108EFE02E9F50011124812C0A
:100B4000912CC12CD12C760106C0FFE08F0E911C98
:100B50008A149B0459F1F801E80DF91D818190E098
:100B60008215930591F7628170E080E090E00E9429
:100B7000EF1A29813A814B815C810E94BE19A30141
:100B800092010E94231A20E030E0A9010E94BF19BF
:100B90009B01AC01C701B6010E94BF196B017C012A
:100BA000FFE08F0E911C8A149B04A9F6C701B601C1
:100BB0000F900F900F900F90DF91CF911F910F9199
:100BC000FF90EF90DF90CF90BF90AF909F908F906D
:100BD0007F906F905F904F903F902F900895C12C21
:100BE000D12C7601E3CF2F923F924F925F926F927A
:100BF0007F929F92AF92BF92CF92DF92EF92FF923D
:100C00000F931F93CF93DF93CDB7DEB728970FB61F
:100C1000F894DEBF0FBECDBFA0900E01B0900F01C3
:100C2000F501E054FC4F9080992009F4CEC0329633
:100C30008081282F30E02150310938872F83E15CF3
:100C4000F3403FE0939E2001112480E090E070E0AB
:100C500060E050E84FE3AF81B8850BC08B01252FD2
:100C6000342FB801522F432F3F960F9684159505C8
:100C700089F0208130E02A173B0781F710E000E07F
:100C800020E231E4B801522F432F3F960F9684158E
:100C9000950579F7B887AF83722E632E95012C5393
:100CA0003C4F3E832D83F90180819181A281B381E4
:100CB000349680839183A283B383692D70E080E0B2
:100CC00090E00E94ED1A69837A838B839C83212CA8
:100CD000312CC12CD12C760106C0BFE02B0E311C6B
:100CE0004214530479F1F501E20DF31D818190E086
:100CF000AF81B8858A179B0781F7628170E080E039
:100D000090E00E94EF1A20E030E048EC52E40E94AC
:100D1000BE1929813A814B815C810E94231A20E00F
:100D200030E0A9010E94BF199B01AC01C701B601C7
:100D30000E94BF196B017C01BFE02B0E311C4214D5
:100D4000530489F62AE037ED43E25CEBC701B601B4
:100D50000E94141C0E94901A20E030E040E85FE3FB
:100D60000E94BF199B01AC0160E070E080E89FE346
:100D70000E94231A9B01AC01612F702F872D962DA5
:100D80000E94141C911003C060E070E0CB01ED8163
:100D9000FE81608371838283938328960FB6F894D3
:100DA000DEBF0FBECDBFDF91CF911F910F91FF909E
:100DB000EF90DF90CF90BF90AF909F907F906F901B
:100DC0005F904F903F902F900895950128533C4F8E
:100DD000C5018C539C4F9E838D83FC018081918142
:100DE000A281B381F90180839183A283B383CCCFA5
:100DF0001F93CF93DF9380910E0190910F01FC011F
:100E0000E054FC4F6081662341F1D0E01FE0C2E076
:100E100007C0382F292FDF5FD617F8F4832F922FC2
:100E2000FC011D9FE00DF11D1124418150E0DC010A
:100E3000AE53BC4F2C9130E021503109421753077B
:100E400041F72281FC01283260F4E251F84F108210
:100E5000382F292FDF5FD61708F3DF91CF911F912D
:100E60000895E451F84F2035D0F42081223089F2E2
:100E7000319620830E94A10E60E0809174090E9447
:100E80009C0E80910E0190910F01FC01E451F84FEE
:100E9000C083EC52F4406081382F292FBCCF2081D1
:100EA000222309F4B6CF3196208360E080E00E94CF
:100EB0009C0E80910E0190910F01FC01E451F84FBE
:100EC0001082EC52F4406081382F292FA4CF1F9359
:100ED000CF93DF9380910E0190910F01FC01E054BC
:100EE000FC4F6081662341F1C0E0DFE011E007C004
:100EF000382F292FCF5FC617F8F4832F922FFC01CC
:100F0000DC9FE00DF11D1124418150E0DC01AE5366
:100F1000BC4F2C9130E0215031094217530741F763
:100F20002281FC01203560F0E251F84F1083382F08
:100F3000292FCF5FC61708F3DF91CF911F91089536
:100F4000E451F84F2081213099F2319620830E949C
:100F5000A10E60917309809172090E949C0E80918C
:100F60000E0190910F01FC01E451F84F1083EC52F7
:100F7000F4406081382F292FBDCF1F93CF93DF938B
:100F800080910E0190910F01FC01E251F84F2081F8
:100F9000222359F0213029F4DF91CF911F910C9435
:100FA000F806DF91CF911F910895FC01E054FC4FAA
:100FB00060816623B1F3C0E0DFE011E007C0382FA5
:100FC000292FCF5FC61768F7832F922FFC01DC9F74
:100FD000E00DF11D1124418150E0DC01AE53BC4F06
:100FE0002C9130E0215031094217530741F72281FB
:100FF000FC01203530F0E251F84F1083382F292FB3
:10100000E0CFE451F84F20812130C9F2319620839E
:101010000E94A10E60917309809172090E949C0E3A
:1010200080910E0190910F01FC01E451F84F108363
:10103000EC52F4406081382F292FC3CFCF93DF9338
:1010400080910E0190910F01FC01EE53FC4F208125
:101050002F3F09F43FC0FC01E054FC4F6081662340
:10106000B1F1C0E0DFE007C0382F292FCF5FC617EE
:1010700070F5832F922FFC01DC9FE00DF11D1124F0
:10108000418150E0FC01EE53FC4F208130E02150C3
:1010900031094217530741F7E65DFB4F20812223B8
:1010A00019F33196208360E080E00E949C0E8091CD
:1010B0000E0190910F01FC01E451F84F1082EC52A7
:1010C000F4406081382F292FCF5FC61790F2DF914F
:1010D000CF9108950E945C0480910E0190910F01C0
:1010E000BACF80910E0190910F01FC01E451F84FAD
:1010F0001082E852F44080E090E0A0E2B1E4808306
:101100009183A283B38308955F926F927F928F92AF
:101110009F92AF92BF92CF92DF92EF92FF920F9386
:101120001F93CF93DF93C0910E01D0910F01FE0169
:10113000EE53FC4F80818F3F09F473C13297C0801A
:10114000CC2009F466C0D12C3FE0B32E4CE2E42E53
:10115000FF24F39453E0852E62E0962EAA24A394F4
:101160000EC00E94E203C0910E01D0910F01FE015A
:10117000E054FC4FC080D394DC1408F04AC08E01C8
:10118000BD9C000D111D1124FE01EC53FC4F20816C
:10119000318142815381F801638174818581968117
:1011A0000E94A01B18160CF044C0F8018281813502
:1011B000C0F6FE01E453FC4FA082F8011085FE0149
:1011C000E451F84F80811817B1F2C351D84F88838A
:1011D000113009F4FFC008F482C0123009F403C1D1
:1011E000133009F07CC00E94A10E6091600980E07C
:1011F0000E949C0EC0910E01D0910F01FE01E4519E
:10120000F84F1083EC52F440C080D394DC1408F4FF
:10121000B6CFDF91CF911F910F91FF90EF90DF90AC
:10122000CF90BF90AF909F908F907F906F905F9086
:101230000895FE01E451F84F5080F1E05F1609F483
:1012400069C05F1608F450C083E0851508F44CC0EF
:1012500040913A0950913B0960913C0970913D09D8
:101260003E01ECE16E1AE8EF7E0ADE01A851B84FAC
:101270008D919D910D90BC91A02DF3010081118164
:1012800022813381800F911FA21FB31F84179507FE
:10129000A607B70708F06FCF80913A0990913B09F4
:1012A000A0913C09B0913D0980839183A283B383CF
:1012B000C351D84F58820E94A10E6091730980914A
:1012C00072090E949C0EC0910E01D0910F01FE0187
:1012D000E451F84FA082EC52F440C0804CCF60E063
:1012E00080E00E949C0E86CF552009F444CFC35164
:1012F000D84F588260E080E00E949C0EC0910E01A1
:10130000D0910F01FE01E451F84F1082EC52F440ED
:10131000C08031CF40913A0950913B0960913C091E
:1013200070913D09FE01EC51F84F80819181A281BD
:10133000B381805C9F4FAF4FBF4F84179507A607BF
:10134000B70708F018CF80913A0990913B09A09116
:101350003C09B0913D0980839183A283B3830E94AD
:101360004D0FC0910E01D0910F01FE01E451F84FD5
:1013700080FD41C08081833091F0C351D84F888374
:101380000E94A10E6091600980E00E949C0EC091B5
:101390000E01D0910F01FE01E451F84F80820E94AE
:1013A0004D0FFE01E851F84F90E0B7010E944A1935
:1013B0000196AA2797FDA095BA2F80839183A283D7
:1013C000B383C0910E01D0910F01FE01E054FC4F98
:1013D000C080D1CE0E94A10E6091730980917209E4
:1013E0000E949C0E07CF0E94A10E60E080917409BC
:1013F0000E949C0EFFCE8081823089F2C351D84F6B
:1014000088830E94A10E60E0809174090E949C0E66
:10141000C0910E01D0910F01FE01E451F84F90826E
:10142000BECFDF91CF911F910F91FF90EF90DF9092
:10143000CF90BF90AF909F908F907F906F905F9074
:101440000C945C04AF92BF92CF92DF92EF92FF9226
:101450000F931F93CF93DF9380910E0190910F0113
:10146000EC01C054DC4FA880AA2009F402C210E0AD
:101470000FE040913A0950913B0960913C0970910D
:101480003D09DC01019FA00DB11D11241B96CD90DB
:10149000DD90ED90FC901E974C195D096E097F0957
:1014A000413451056105710590F02A2D30E021503D
:1014B0003109029FF001039FF00D1124E80FF91F7D
:1014C000202F01900D922A95E1F7AA94A8821F5F20
:1014D0001A1578F2FC01E252F84F208131963081E2
:1014E000231709F488C0EFE0BE2E30E1239F800D62
:1014F000911D112486519C4F0E94840F00910E0172
:1015000010910F01780192E2E91A98EFF90AF701B8
:10151000C080D12CD601A295B295B07FBA27A07F0A
:10152000BA27A252BC4FA00FB11F7C91E801C05452
:10153000DC4FA880AA2009F4F4C0F8019081791743
:1015400009F4F2C03F9621E030E007C0A9016081B4
:101550002F5F3F4F3F96761729F0922F2A15B0F351
:10156000422F50E09A1509F43FC0B49EE001B59EA9
:10157000D00D1124C00FD11F78838A8311968C91CE
:101580001197898312968C91129790E09A87898798
:1015900013968C911397888714966C9170E080E075
:1015A00090E00E94ED1A6B837C838D839E83409133
:1015B0003A0950913B0960913C0970913D094B8774
:1015C0005C876D877E87FFEFCF1ADF0A3FE3C32278
:1015D000DD242C2DF701C082F801E152F84F808103
:1015E0008C1551F0C80181CF9F3318F4A394A882C1
:1015F000BCCFA92EBACF8C01D801AD53BC4F8EEF12
:101600008C93AA2009F431C1F8013196AA9498016B
:10161000205F3F4F8FE0A89E200D311D11244EEF1B
:101620008081841710F48C93482F3F96E217F307BC
:10163000B9F7842F90E00196F801EE53FC4F20811A
:1016400030E028173907E1F04F5F40833197808100
:10165000813091F08DEC489F812D112486958695DF
:1016600086959AE0899F40191124E42FF0E0E05F0D
:10167000FE4F80810E94C71200910E0110910F0150
:10168000F801EF53FC4FC081C13009F450C04091C4
:101690003A0950913B0960913C0970913D09F8016C
:1016A000E052F84F80819181A281B381805C9F4F8D
:1016B000AF4FBF4F84179507A607B70708F05EC066
:1016C000F801EE53FC4FD081DF3F09F497C03A9602
:1016D0008081882309F49AC0F801E451F84F808191
:1016E000882309F4B7C0F801E351F84F808360E024
:1016F00080E00E949C0E00910E0110910F01F801F4
:10170000E451F84F1082EB52F440C0813196F080E2
:10171000329660817181828193810E94C11AD0E0EA
:101720003CC040E050E062CF40E050E01ECF319638
:1017300010823196108284E10E94C71200910E013E
:1017400010910F01F801EF53FC4FC08140913A090D
:1017500050913B0960913C0970913D09E15EFB4F5E
:1017600080819181A281B381805C9F4FAF4FBF4F39
:1017700084179507A607B70708F456C0F801EE537B
:10178000FC4FF080E65DFB4FD081E852F440608171
:101790007181828193810E94C11AF801E352FC4F4A
:1017A00081E0808337971082C80183539C4FFC01EE
:1017B000C0833196F0823196D801A054BC4F2C9151
:1017C00020833196D083319660830E941015F801F2
:1017D000E952FC4F91838083E0910E01F0910F015B
:1017E000E352FC4F1082DF91CF911F910F91FF9038
:1017F000EF90DF90CF90BF90AF900895F801E45341
:10180000FC4F1082E05EFB4F81E080830E94F30575
:101810000E94840800910E0110910F01F801EF530E
:10182000FC4FC0813196ADCFC13009F049CFF801EE
:10183000E451F84F108280E090E0A0E2B1E4E85279
:10184000F44080839183A283B3833297F0806AE06F
:10185000D0E0A3CFE852F44060817181828193810E
:101860000E94C11AFD2ED0E098CF8FEF90E04EEF8E
:10187000E3CEA12C2FCE089580E090E00895089546
:10188000DF92EF92FF920F931F93CF93DF93F89421
:1018900014B817B81AB815B818B81BB8529A5A9A8B
:1018A00014BC85E085BD8FEF87BD22E020936E00DC
:1018B00010928000109281008FE89BE09093890045
:1018C0008093880020936F005398239881EA809337
:1018D000B0002093B1001092B4001092B3008BE0DE
:1018E00080BF83E080937F0086E080937C0083E864
:1018F00080937A0080917A00806480937A0080914E
:101900007A0086FDFCCF10927C0083EA80937A00F7
:1019100081E080937B0081E090E00E94851E8F3FF4
:1019200011F08093660010923E09C1E0C093170940
:10193000C0935B091092350910926F0980E990E01D
:101940000E94851E8093340980913409887311F0B8
:10195000C093340910925F0910925E098FEF90E0F6
:1019600090935D0980935C0910923A0910923B09AB
:1019700010923C0910923D0981E08093270182E496
:101980009FE090936E0980936D0980EB90E00E9438
:10199000851EC82F81EB90E00E94851E2C2F30E021
:1019A000382B309371092093700985E090E00E94F4
:1019B000851E8093740989E090E00E94851E8093C3
:1019C00060098CE090E00E94851E8093720984E19A
:1019D00090E00E94851E809373095FE3E52E59E035
:1019E000F52E08E119E0C0E2D0E0CE010E94851E8C
:1019F000D82ECE0101960E94851E2D2D30E0322F6B
:101A00002227282BF701219331937F01CE01C09625
:101A10000E94851ED82ECE01C1960E94851E2D2DB6
:101A200030E0322F2227282BF801219331938F01A8
:101A30002296CC33D105C9F67894DF91CF911F91CE
:101A40000F91FF90EF90DF9008951F920F920FB6C5
:101A50000F9211248F9388E10FB6F8948093600061
:101A6000109260000FBE8F910F900FBE0F901F90CD
:101A700018957C01EB01D12C88248A9464E0B62E61
:101A800076E0972EE3E8AE2E08E110E0F9E2CF2EE3
:101A9000E0912701F0E0E730F105D0F7EC5CFF4F73
:101AA0000C945E19DD2009F4FDC0B0922701DD24FD
:101AB000D394FE010995ECCF80913E098111EBC0D2
:101AC000F89490927C00A0927A0080917A008064D1
:101AD00080937A0080917A0086FDFCCF2091780077
:101AE0003091790078942B3A92E039070CF0EDC0F0
:101AF0002938E2E03E070CF0EFC0273632400CF404
:101B0000CAC0559A549A3B9A3A9A3D983C98C0CF8D
:101B1000F89480B7877F80BF80917A008F77809319
:101B20007A0014B817B81AB815B818B81BB80FB699
:101B3000F894A895009360000FBEC0926000809159
:101B4000600080648093600083B7817F846083BF7E
:101B5000F89483B7816083BF7894889583B78E7F2C
:101B600083BF789410923E09529A5A9A80917A00D3
:101B7000806880937A0087E592E00197F1F700C0D2
:101B8000000080B7886180BF559A549A3B9A3A9A70
:101B90003D9A3C9AEFE1FEE43197F1F700C0000076
:101BA00080913E09811181C0559854983B983A988C
:101BB0003D983C986DCF80912501811141C01092D4
:101BC000B3001092B4001092260162CF4899ECCF76
:101BD000559A54983B983A983D983C988FEC97E0EA
:101BE0000197F1F700C00000559854983B983A9837
:101BF0003D983C989FEFE1EEF4E09150E040F040DA
:101C0000E1F700C0000044CF559854983B9A3A9AA7
:101C10003D983C98EFECF7E03197F1F700C00000F9
:101C2000559854983B983A983D983C98FFEF21EE90
:101C300084E0F15020408040E1F700C0000028CF50
:101C40009091250180912601981709F421CF809168
:101C500025018093260180912501813009F450C02F
:101C6000809125011092B3008092B4008230D9F1A6
:101C70008092B3008092B4008FE295E70197F1F76C
:101C800000C0000080917309909172099093B30095
:101C90008093B400FDCE559A549A3B983A983D985B
:101CA0003C98F6CEF701099500CF559A549A3B9887
:101CB0003A983D983C98FFEF20E782E0F1502040B1
:101CC0008040E1F700C000006FCF559854983B9AD0
:101CD0003A9A3D983C98DCCE559854983B983A985F
:101CE0003D9A3C9AD5CEEFE2F5E73197F1F700C087
:101CF0000000809160091092B3008093B400C8CEB8
:101D00008092B3001092B4008FE295E70197F1F74B
:101D100000C00000809174098093B3001092B40059
:101D2000B7CE07C0EFECF7E03197F1F700C0000045
:101D300001970097B9F708958093B3006093B400BA
:101D400008958FEF8093B3008093B4008FE090E00C
:101D5000EFECF7E03197F1F700C000000197009732
:101D6000B9F7089580913E0981111EC0F89487E06B
:101D700080937C0083E880937A0080917A0080646D
:101D800080937A0080917A0086FDFCCF8091780064
:101D90009091790010927C0023EA20937A0021E050
:101DA00020937B00789408958FEF9FEF08958091A2
:101DB0003E0981111EC0F89488EC80937C0087E86E
:101DC00080937A0080917A00806480937A00809179
:101DD0007A0086FDFCCF8091780090917900109276
:101DE0007C0023EA20937A0021E020937B00789402
:101DF00008958FEF9FEF08951F93CF93DF9360E0D7
:101E000070E080E013EAD1E0C6E0B3E8E1E0F0E0A2
:101E100020E830E0F894C0937C00B0937A00909171
:101E20007A00906490937A0090917A0096FDFCCFAE
:101E30004091780050917900A42FA17090917A0080
:101E4000906490937A0090917A0096FDFCCF409137
:101E500078005091790010927C0010937A00D09312
:101E60007B0078944170A41305C0215031092115DD
:101E7000310581F6AA2339F09F01062E01C0220FF9
:101E80000A94EAF7822B6F5F7F4F6830710509F083
:101E9000BFCFDF91CF911F91089580911801982FA6
:101EA000990F990F990F98278091240121E0280F0D
:101EB000209324018695869589279295969597700B
:101EC00089278093180108958093180108958091BF
:101ED0003E09811116C0F89486E080937C0083E867
:101EE00080937A0080917A00806480937A00809158
:101EF0007A0086FDFCCF80917800909179007894EB
:101F000008958FEF9FEF08952F923F924F925F9227
:101F10006F927F928F929F92AF92BF92CF92DF92F9
:101F2000EF92FF920F931F93CF93DF9300D000D0D7
:101F300000D0CDB7DEB78C01DC0112960D90BC91BC
:101F4000A02DBE83AD83A438E3E0BE070CF0CAC069
:101F500080911809909119098A179B0708F4A9C163
:101F600060901A0970901B096A167B0608F427C254
:101F700060901C0970901D096A167B0608F428C23F
:101F800060901E0970901F096A167B0608F429C22A
:101F900060902009709021096A167B0608F42AC215
:101FA00060902209709023096A167B0608F48BC1A1
:101FB00060902409709025096A167B0608F423C2F4
:101FC00060902609709027096A167B0608F424C2DF
:101FD00060902809709029096A167B0608F425C2CA
:101FE00060902A0970902B096A167B0608F426C2B5
:101FF00060902C0970902D096A167B0608F427C2A0
:1020000060902E0970902F096A167B0608F42DC285
:1020100060903009709031096A167B0608F42EC270
:1020200060903209709033096A167B0608F42FC25B
:1020300080E090E0A0EDB0E489839A83AB83BC8319
:102040008CE0E82EF12CF701EE0FFF1FE85EF64F53
:1020500080819181B301681B790B80E090E00E9440
:10206000ED1A9B01AC010E94BF196B017C01AD818F
:10207000BE81BD01882777FD8095982F0E94EF1AB9
:102080004B015C01B30180E090E00E94ED1A2B014E
:102090003C0129813A814B815C81C701B6010E94D4
:1020A000141C9B01AC01C301B2010E94BE199B012B
:1020B000AC01C501B4010E94BE1920E030E040E24D
:1020C00051E40E94141C0E94BC1A5B01C701B601B6
:1020D0000E94BC1AAB01BC01C501BA010E944A1999
:1020E000762EE8C077247A94D801AD90BC90809188
:1020F0003F09909140098A159B0508F46FC0009133
:102100004109109142090A151B0508F45CC10091B0
:102110004309109144090A151B0508F45DC100919B
:102120004509109146090A151B0508F45EC1009186
:102130004709109148090A151B0508F45FC1009171
:10214000490910914A090A151B0508F4D8C00091E5
:102150004B0910914C090A151B0508F458C1009150
:102160004D0910914E090A151B0508F459C100913B
:102170004F09109150090A151B0508F45AC1009126
:102180005109109152090A151B0508F45BC1009111
:102190005309109154090A151B0508F45CC10091FC
:1021A0005509109156090A151B0508F459C10091EB
:1021B0005709109158090A151B0508F45AC10091D6
:1021C000590910915A090A151B0508F45BC11AE553
:1021D000BFEF7B1207C081E2810F52C010E0BFEF5A
:1021E0007B16C9F3ED81FE81BF01882777FD8095BD
:1021F000982F0E94EF1A6B017C01672D70E080E040
:1022000090E00E94ED1A4B015C01A701960160E08D
:1022100070E081E694E40E94BE199B01AC01C50107
:10222000B4010E94141C4B015C01612F70E080E03E
:1022300090E00E94ED1A2B013C0120E030E04FE2DB
:1022400054E4C701B6010E94BE199B01AC01C30151
:10225000B2010E94141C9B01AC01C501B4010E9493
:10226000BF1920E030E048E453E40E94231A20E044
:1022700030E044E052E40E94BF190E94C11A862F48
:1022800026960FB6F894DEBF0FBECDBFDF91CF917B
:102290001F910F91FF90EF90DF90CF90BF90AF9084
:1022A0009F908F907F906F905F904F903F902F9076
:1022B0000895712CED81FE81ED3BF2400CF014CFBE
:1022C00081E2870DDDCF65E085E090E07C01F1E003
:1022D000EF1AF10870E080E090E00E94ED1A20E033
:1022E00030E040E05FE30E94141C20E030E0A901F0
:1022F0000E94BF1969837A838B839C83A4CE75E087
:10230000672EE5E0F0E0EE0FFF1FE35CF64F808103
:102310009181B801681B790B80E090E00E94ED1A72
:102320009B01AC010E94BF196B017C01B50188279C
:1023300077FD8095982F0E94EF1A4B015C01B80140
:1023400080E090E00E94ED1A1B012C01662D70E0E8
:1023500080E090E00E94ED1A20E030E040E05FE392
:102360000E94141C20E030E0A9010E94BF19A701BF
:1023700096010E94141C9B01AC01C201B1010E9494
:10238000BE199B01AC01C501B4010E94BE1920E039
:1023900030E040E251E40E94141C0E94BC1A8B0100
:1023A000C701B6010E94BC1AAB01BC01C801BA0149
:1023B0000E944A19162F6F3F09F011CF81CF61E0BB
:1023C00081E090E083CF66246394E1E0F0E09BCF6E
:1023D00062E082E090E07ACFA2E06A2EE2E0F0E0F4
:1023E00092CF63E083E090E071CFF3E06F2EE3E003
:1023F000F0E089CF64E084E090E068CFE4E06E2E06
:10240000E4E0F0E080CF66E086E090E05FCF66E059
:10241000662EE6E0F0E077CF67E087E090E056CF09
:1024200057E0652EE7E0F0E06ECF68E088E090E0EE
:102430004DCF48E0642EE8E0F0E065CF69E089E048
:1024400090E044CF39E0632EE9E0F0E05CCF6AE051
:102450008AE090E03BCF2AE0622EEAE0F0E053CF42
:102460009BE0692EEBE0F0E04ECF6BE08BE090E07C
:102470002DCF8CE0682EECE0F0E045CF6CE08CE0F6
:1024800090E024CFBDE06B2EEDE0F0E03CCF6DE0BE
:102490008DE090E01BCF1F920F920FB60F92112488
:1024A0002F933F934F935F936F937F938F939F935C
:1024B000AF93BF93EF93FF9380915E0990915F0973
:1024C00020915C0930915D09820F931F90935F0901
:1024D00080935E098FEF90E090935D0980935C0993
:1024E0008FEF87BD80913A0990913B09A0913C09FB
:1024F000B0913D090196A11DB11D80933A099093B9
:102500003B09A0933C09B0933D0980913E0981119C
:102510000FC080916D0990916E0920915E093091F4
:102520005F098217930720F480912701843089F096
:10253000FF91EF91BF91AF919F918F917F916F919B
:102540005F914F913F912F910F900FBE0F901F9071
:102550001895E0911B01F0911C010995009741F33A
:102560000E942915811109C00E94F71C9927909398
:102570005D0980935C0987BDDBCFE0911901F09183
:102580001A01099510925F0910925E09D1CF80FF60
:1025900011C0559A81FF11C0549A82FF11C03B9A15
:1025A00083FF11C03A9A84FF11C03D9A85FD11C086
:1025B0003C980895559881FDEFCF549882FDEFCF58
:1025C0003B9883FDEFCF3A9884FDEFCF3D9885FF90
:1025D000EFCF3C9A08951F920F920FB60F921124DD
:1025E0008F939F9310928100109285001092840027
:1025F00081E08093170980935B0910923E09109245
:102600007C0093EA90937A0080937B009F918F9156
:102610000F900FBE0F901F9018951F920F920FB63C
:102620000F9211242F933F934F935F936F937F9358
:102630008F939F93AF93BF93CF93DF93EF93FF93CA
:10264000209184003091850041E040933E098091C3
:1026500017098823A9F110928500109284004093F5
:10266000810010926F091092170980915B098823ED
:10267000A1F080917A0086FDFCCF80917800909146
:102680007900909339098093380981E080937C0028
:1026900093EA90937A0080937B00FF91EF91DF9112
:1026A000CF91BF91AF919F918F917F916F915F91EA
:1026B0004F913F912F910F900FBE0F901F90189543
:1026C000C901875891098437994008F04FC02658AE
:1026D0003109A4EFB0E00E946419AA27BB27883013
:1026E00008F47BC04093170980915B09811152C0A7
:1026F00080913509E82FF0E0EF59F64F90916F097E
:1027000090838F5F809335098C3039F61092810069
:10271000109285001092840040935B0910923E094C
:10272000C0916B09D0916C0981E699E00E94101567
:10273000C817D90709F0B1CF80916A0987FF5EC039
:1027400098E7980F933030F0539823981092B40084
:102750001092B30090E0FC01E058F109EB30F10574
:1027600008F09BCFE55CFF4F0C945E19109281003E
:1027700010928500109284004093170940935B09E2
:1027800010923E0910927C0083EA80937A00409375
:102790007B0083CF80917A0086FDFCCF809178000A
:1027A00090917900909337098093360910927C00BC
:1027B00083EA80937A0081E080937B0090916F0997
:1027C0009923B9F010928100109285001092840034
:1027D00080935B0910923E0960CF21E030E001C098
:1027E000220F8A95EAF780916F09822B80936F09F7
:1027F00054CF10925B09109235094FCFE0911D0123
:10280000F0911E0166E379E081E699E0099545CFF4
:1028100080916109823009F4DCC008F4B9C08330CA
:1028200009F4C5C0843009F0B0C0809125019091B1
:102830006709833009F4E2C080916609109226018D
:1028400023E020932501809372099093730980916E
:102850002701863009F421CF539A239A1092B400AD
:102860001092B30086E08093270117CF8091270153
:10287000863099F0539A239A1092B4001092B300C4
:10288000559854983B983A983D983C981092250159
:102890001092260186E08093270181E090E000906D
:1028A000610902C0880F991F0A94E2F7209170090C
:1028B0003091710982239323892B09F086C01092ED
:1028C0002501EBCE81E080932701E7CEE0E0F0E048
:1028D000099580916E008D7F80936E0016BCE0E0BC
:1028E000F0E7099510922701D8CE82E08093270166
:1028F000D4CE85E080932701D0CE8091270183300C
:1029000009F4CBCE80912701843009F4C6CE539AC6
:10291000239A1092B4001092B30083E080932701B1
:10292000BCCE80912701863009F0B7CE6091700946
:1029300080EB90E00E948D1E6091710981EB90E028
:102940000E948D1E6091740985E090E00E948D1EAA
:102950006091600989E090E00E948D1E609172098B
:102960008CE090E00E948D1E6091730984E190E0FC
:102970000E948D1E539823981092B4001092B300B9
:1029800081E08093270180916109811160CF85CE1C
:10299000882339F28130C9F78091620990916309E7
:1029A00090937109809370091092250150CF809106
:1029B0002501823071F1809165091092260192E023
:1029C000909325018093600942CF81E08093250197
:1029D00064CE80912501813051F08091640910927C
:1029E000260191E0909325018093740930CF809166
:1029F0006409909174098913F2CF29CF80917309EA
:102A000098131ACF8091660920917209821316CF0C
:102A10001ECF80916509909160098913CECF17CFA1
:102A2000FC012AE08FEF9FEF31918327082E8295DA
:102A3000807F8025092E982F82958F700826869595
:102A400098278927880F880F880F8025215061F7E4
:102A500008950FB6F894A4B1209134092A2B24B913
:102A600021E030913409203029F0000025B1232BDA
:102A700025B904C000000000000000C000000000F4
:102A80000000309525B1232325B92EEA2A95F1F7C8
:102A90002BEE30B735FF0AC0A4B930913409309518
:102AA00025B1232325B90FBE80E0089500002A95A3
:102AB00081F721E030913409203029F0000025B160
:102AC000232B25B904C000000000000000C0000056
:102AD00000000000309525B1232325B9000024E52E
:102AE0002A95F1F7FC018CE0619170E0660F771F89
:102AF000616072609AE041E050E09A01262337233A
:102B0000232B30913409203029F0000025B1232BEC
:102B100025B904C000000000000000C00000000053
:102B20000000309525B1232325B9000021E52A9521
:102B3000F1F7440F551F9A9501F78A95A9F620B72A
:102B4000206120BFA4B930913409309525B12323E9
:102B500025B90FBE81E00895A3E1B0E0E2EBF5E115
:102B60000C9473197C011B016A01FC011782168207
:102B7000838181FF66C3BE016F5F7F4F4B01F70109
:102B80009381F10193FD859193FF81911F0188232A
:102B900009F453C3853239F493FD859193FF8191F4
:102BA0001F01853239F4B70190E00E94F51D5601EE
:102BB0006501E5CF10E0512C20E02032A0F48B32EB
:102BC00069F030F4803259F0833269F420612CC00E
:102BD0008D3239F0803339F4216026C022602460C0
:102BE00023C0286021C027FD27C030ED380F3A30C0
:102BF00078F426FF06C0FAE01F9F300D1124132F32
:102C000013C06AE0569E300D1124532E20620CC072
:102C10008E3221F426FD11C3206406C08C3611F4D7
:102C2000206802C0883641F4F10193FD859193FF3D
:102C300081911F018111C1CF9BEB980F933018F444
:102C40002061805E06C09BE9980F933008F0AAC10E
:102C50002F7E26FF16E02F73722E853621F4F22F79
:102C6000F0647F2E08C0863621F4622F6068762ECD
:102C700002C01111115077FE07C01C3348F44424E0
:102C80004394410E27E00BC0183030F4212F06C0CA
:102C900027E04CE3442E03C027E017E0412C560107
:102CA00074E0A70EB11CF60160817181828193816D
:102CB000042DA4010E94071D6C01098100FF02C0C0
:102CC00003FF06C071FC07C072FC08C0612C08C07D
:102CD0003DE2632E05C02BE2622E02C090E2692E17
:102CE000802F8C7099F1662011F084E001C083E0A0
:102CF000851510F0512C0BC0581A73FC08C0B70191
:102D000080E290E00E94F51D5A94C9F7F3CF662047
:102D100029F0B701862D90E00E94F51D03FD03C048
:102D200008EB10E002C004EB10E0F72DF0717F2EED
:102D3000F8018491882309F476C271108052B7019A
:102D400090E00E94F51D0F5F1F4FF2CF77FE0FC07E
:102D50004C0C04FF04C08A81813309F44A94141492
:102D600074F5F8E0F41578F588E0482E2CC076FC70
:102D70002AC0812F90E08C159D059CF06CEFC61643
:102D80006FEFD60674F0772D7068772E0AC0E2E0F8
:102D9000F0E0EC0FFD1FE10FF11D8081803319F48D
:102DA00011501111F4CF77FE0EC044244394410E0C
:102DB000812F90E0C816D9062CF41C1904C04424B5
:102DC000439401C010E077FE07C01C141D043CF4BE
:102DD00096012F5F3F4F05C025E030E002C021E0A3
:102DE00030E0662011F02F5F3F4F112331F0412F6B
:102DF00050E04F5F5F4F240F351F452D50E02417E3
:102E0000350714F4521A01C0512C872D897049F4EA
:102E1000552039F0B70180E290E00E94F51D5A94E8
:102E2000F7CF662029F0B701862D90E00E94F51DAE
:102E300073FC09C0552039F0B70180E390E00E948F
:102E4000F51D5A94F7CF77FE5FC09C2D8D2DD7FED0
:102E500002C090E080E0692E782E40E050E0C6018C
:102E6000841991099D878C87960126193709280DA9
:102E7000391D812F90E0EE27FF27E81BF90BFF8714
:102E8000EE87FFEF6F167F0669F4B7018EE290E0E0
:102E90002B8B3A8B488B598B0E94F51D5989488999
:102EA0003A892B89C614D70454F06C857D85661544
:102EB00077052CF4F901E40FF51F818101C080E34F
:102EC00071E0671A71084F5F5F4FEE85FF856E16E0
:102ED0007F066CF0B70190E02B8B3A8B488B598BB7
:102EE0000E94F51D2B893A8948895989CACF6C14EB
:102EF0007D0439F49A81963318F4953311F404FF64
:102F000081E3B70190E04BC08A81813309F00F7EE5
:102F1000B70190E00E94F51D111105C074FE18C0A4
:102F200085E490E017C0B7018EE290E00E94F51DA5
:102F300082E066246394680EF401E80FF11D80813D
:102F4000B70190E00E94F51D115041F3862DF1CF9D
:102F500085E690E0B7010E94F51DD7FC05C0C114BD
:102F6000D10439F404FF05C0D194C194D1088DE295
:102F700001C08BE2B70190E00E94F51D80E36AE09A
:102F8000C616D1042CF08F5FFAE0CF1AD108F7CF24
:102F9000B70190E00E94F51DB701C601C0960E94DE
:102FA000F51D41C1833631F0833779F0833509F05F
:102FB00058C021C0560172E0A70EB11CF6018081F5
:102FC000898301E010E0640114C05601F2E0AF0E05
:102FD000B11CF601C080D18026FF03C0612F70E0D4
:102FE00002C06FEF7FEFC6012B8B0E94EA1D8C01A0
:102FF0002B892F7715C05601F2E0AF0EB11CF601F8
:10300000C080D18026FF03C0612F70E002C06FEF47
:103010007FEFC6012B8B0E94DF1D8C012B8920685E
:10302000722E23FD1AC0852D90E008171907A8F409
:10303000B70180E290E00E94F51D5A94F4CFF601AA
:1030400077FC859177FE81916F01B70190E00E9436
:10305000F51D51105A94015011090115110579F708
:10306000E2C0843611F0893651F5560127FF09C0B8
:10307000F4E0AF0EB11CF601608171818281938111
:103080000AC0F2E0AF0EB11CF601608171818827A1
:1030900077FD8095982F022F0F7697FF08C09095A7
:1030A0008095709561957F4F8F4F9F4F00682AE004
:1030B00030E0A4010E94271EC82EC8183EC0022F6F
:1030C000853721F40F7E2AE030E01DC0097F8F365E
:1030D00091F018F4883559F0B0C0803719F088376E
:1030E00011F0ABC0006104FF09C0046007C024FFF9
:1030F00008C0066006C028E030E005C020E130E0EE
:1031000002C020E132E0560107FF09C0F4E0AF0E33
:10311000B11CF601608171818281938108C0F2E067
:10312000AF0EB11CF6016081718180E090E0A401D6
:103130000E94271EC82EC8180F7706FF0BC0202F2D
:103140002E7FC11650F404FF0AC002FD08C0202FD4
:103150002E7E05C0DC2C202F03C0DC2C01C0D12E1C
:1031600024FF0DC0FE01EC0DF11D8081803311F4B0
:10317000297E09C022FF06C0D394D39404C0822FB5
:10318000867809F0D39423FD13C020FF06C01C2DC0
:10319000D51418F4150D1D19D52CD51468F4B701E4
:1031A00080E290E02B8B0E94F51DD3942B89F5CF04
:1031B000D51410F45D1801C0512C24FF12C0B701C2
:1031C00080E390E02B8B0E94F51D2B8922FF17C016
:1031D00021FF03C088E590E002C088E790E0B701D6
:1031E0000CC0822F867859F021FD02C080E201C018
:1031F0008BE227FD8DE2B70190E00E94F51DC1161C
:1032000038F4B70180E390E00E94F51D1150F7CF2C
:10321000CA94F401EC0DF11D8081B70190E00E9489
:10322000F51DC110F5CF552009F4C2CCB70180E2DD
:1032300090E00E94F51D5A94F6CFF70186819781A0
:1032400002C08FEF9FEF6396E2E10C948F190E940A
:10325000400C80910E0190910F01FC01E252F84F59
:103260001082319610820E94CD018CE191E0909302
:103270001E0180931D018CE091E090931C018093CE
:103280001B0162E27AE085E591E00E94390D80E061
:1032900090E0089597FB072E16F4009407D077FD71
:1032A00009D00E94AA1907FC05D03EF4909581959B
:1032B0009F4F0895709561957F4F0895EE0FFF1F02
:1032C0000590F491E02D0994A29FB001B39FC00135
:1032D000A39F700D811D1124911DB29F700D811D42
:1032E0001124911D08952F923F924F925F926F92F9
:1032F0007F928F929F92AF92BF92CF92DF92EF9286
:10330000FF920F931F93CF93DF93CDB7DEB7CA1B06
:10331000DB0B0FB6F894DEBF0FBECDBF09942A8831
:10332000398848885F846E847D848C849B84AA84D9
:10333000B984C884DF80EE80FD800C811B81AA8166
:10334000B981CE0FD11D0FB6F894DEBF0FBECDBF31
:10335000ED010895AA1BBB1B51E107C0AA1FBB1FAB
:10336000A617B70710F0A61BB70B881F991F5A9511
:10337000A9F780959095BC01CD0108955058BB27C1
:10338000AA270ED0A3C194D130F099D120F031F406
:103390009F3F11F41EF464C10EF4E095E7FB5AC19F
:1033A000E92FA5D180F3BA17620773078407950741
:1033B00018F071F49EF5BDC10EF4E0950B2EBA2FF6
:1033C000A02D0B01B90190010C01CA01A00111242B
:1033D000FF27591B99F0593F50F4503E68F11A16D7
:1033E000F040A22F232F342F4427585FF3CF469568
:1033F00037952795A795F0405395C9F77EF41F168A
:10340000BA0B620B730B840BBAF09150A1F0FF0F53
:10341000BB1F661F771F881FC2F70EC0BA0F621F3F
:10342000731F841F48F4879577956795B795F7952F
:103430009E3F08F0B3CF9395880F08F09927EE0FC1
:103440009795879508950CD041C139D140F030D17E
:1034500030F021F45F3F19F0FDC051116BC100C184
:1034600046D198F39923C9F35523B1F3951B550B16
:10347000BB27AA2762177307840738F09F5F5F4F47
:10348000220F331F441FAA1FA9F333D00E2E3AF088
:10349000E0E830D091505040E695001CCAF729D0A2
:1034A000FE2F27D0660F771F881FBB1F26173707F1
:1034B0004807AB07B0E809F0BB0B802DBF01FF2721
:1034C00093585F4F2AF09E3F510568F0C3C032C148
:1034D0005F3FECF3983EDCF3869577956795B7955B
:1034E000F7959F5FC9F7880F911D9695879597F976
:1034F0000895E1E0660F771F881FBB1F62177307EF
:103500008407BA0720F0621B730B840BBA0BEE1F03
:1035100088F7E095089519F40EF09CC00AC1A0C088
:10352000EED0C8F39638C0F707F80F92E8942BE373
:103530003AEA48EB5FE786D10F920F920F924DB7B0
:103540005EB70F923ED1ECE8F0E08DD04F915F91E5
:10355000EF91FF91E595EE1FFF1F49F0FE57E068E0
:103560004427EE0F441FFA95E1F74195550BF5D02E
:103570000F9007FEE9C0089504D06894B111DAC035
:103580000895BDD088F09F5790F0B92F9927B75173
:10359000A0F0D1F0660F771F881F991F1AF0BA9517
:1035A000C9F712C0B13081F0C4D0B1E00895C1C0F4
:1035B000672F782F8827B85F39F0B93FCCF386950D
:1035C00077956795B395D9F73EF49095809570956A
:1035D00061957F4F8F4F9F4F0895E89409C097FBE7
:1035E0003EF490958095709561957F4F8F4F9F4FDA
:1035F0009923A9F0F92F96E9BB279395F69587951E
:1036000077956795B795F111F8CFFAF4BB0F11F4E0
:1036100060FF1BC06F5F7F4F8F4F9F4F16C0882387
:1036200011F096E911C0772321F09EE8872F762FBD
:1036300005C0662371F096E8862F70E060E02AF0FE
:103640009A95660F771F881FDAF7880F96958795EA
:1036500097F9089597F99F6780E870E060E0089512
:103660009FEF80EC0895DF93CF931F930F93FF920A
:10367000EF92DF927B018C01689405C0DA2EEF0196
:10368000DFD0FE01E894A5912591359145915591A2
:10369000AEF3EF0185DEFE019701A801DA9479F718
:1036A000DF90EF90FF900F911F91CF91DF910895E0
:1036B00000240A9416161706180609060895002411
:1036C0000A9412161306140605060895092E03948B
:1036D000000C11F4882352F0BB0F40F4BF2B11F4FF
:1036E00060FF04C06F5F7F4F8F4F9F4F089557FD5E
:1036F0009058440F551F59F05F3F71F04795880F60
:1037000097FB991F61F09F3F79F0879508951216F6
:1037100013061406551FF2CF4695F1DF08C01616A2
:1037200017061806991FF1CF869571056105089453
:103730000895E894BB2766277727CB0197F908956A
:10374000D6D008F48FEF08959B01AC0160E070E0E3
:1037500080E89FE378CE7ECFEEC0D1DFE8F39923F7
:10376000D9F3940F511DBBF39150504094F059F090
:10377000882332F0660F771F881F91505040C1F7A1
:103780009E3F510544F7880F911D9695879597F9AF
:1037900008955F3FACF0983E9CF0BB2786957795E7
:1037A0006795B79508F4B1609395C1F7BB0F58F7CB
:1037B00011F460FFE8CF6F5F7F4F8F4F9F4FE3CFD4
:1037C000B9CFFA01DC01AA0FBB1F9B01AC01BF57A7
:1037D00028F422273327442750781FC0B75188F494
:1037E000AB2F0024469537952795011CA395D2F35E
:1037F000002069F0220F331F441FB395DAF30DD078
:10380000BDCD61307105A0E88A07B94630F49B014F
:10381000AC016627772788279078309621F020839F
:1038200031834283538308950BD050CF41DF28F07A
:1038300046DF18F0952309F00DCF12CF11247ACF6F
:1038400056DFA0F3959FD1F3950F50E0551F629F6F
:10385000F001729FBB27F00DB11D639FAA27F00DE9
:10386000B11DAA1F649F6627B00DA11D661F829F10
:103870002227B00DA11D621F739FB00DA11D621FF5
:10388000839FA00D611D221F749F3327A00D611D12
:10389000231F849F600D211D822F762F6A2F1124F4
:1038A0009F5750408AF0E1F088234AF0EE0FFF1F47
:1038B000BB1F661F771F881F91505040A9F79E3F7E
:1038C000510570F0C7CE36CF5F3FECF3983EDCF386
:1038D000869577956795B795F795E7959F5FC1F7BB
:1038E000FE2B880F911D9695879597F90895990F4E
:1038F0000008550FAA0BE0E8FEEF16161706E807BA
:10390000F907C0F012161306E407F50798F0621BDA
:10391000730B840B950B39F40A2661F0232B242BAF
:10392000252B21F408950A2609F4A140A6958FEFCE
:10393000811D811D08959F3F31F0915020F487959E
:1039400077956795B795880F911D9695879597F907
:1039500008958F929F92AF92BF92CF92DF92EF9293
:10396000FF92CF93DF93EC01688179818A819B81FB
:10397000611571058105910521F464E279ED8BE50E
:1039800097E02DE133EF41E050E00E949B1E49019A
:103990005A019B01AC01A7EAB1E40E94BA1E6B0177
:1039A0007C01ACEEB4EFA50194010E94C81EC60EC6
:1039B000D71EE81EF91EF7FE06C081E0C81AD1081E
:1039C000E10880E8F80AC882D982EA82FB82C6014F
:1039D0009F77DF91CF91FF90EF90DF90CF90BF90D6
:1039E000AF909F908F9008950E94A91C08958FE139
:1039F00091E00E94A91C0895A0E0B0E080931F010F
:103A000090932001A0932101B093220108952830C2
:103A100008F027E03327DA01990F311D87FD916007
:103A200000966105710539F432602E5F3D9330E3F5
:103A30002A95E1F708959F3F30F0803871056105C0
:103A400009F03C5F3C5F3D93913008F08068911D28
:103A5000DF93CF931F930F93FF92EF92192F987FCD
:103A60009695E92F96959695E90FFF27EA5EFE4F0A
:103A700099273327EE24FF24A701E7010590089436
:103A8000079428F4360FE71EF81E491F511D660FD4
:103A9000771F881F991F0694A1F70590079428F4B3
:103AA000E70EF81E491F561FC11D770F881F991F6B
:103AB000661F0694A1F70590079428F4F80E491F95
:103AC000561FC71FD11D880F991F661F771F0694A9
:103AD000A1F70590079420F4490F561FC71FD81F60
:103AE000990F661F771F881F0694A9F78491109578
:103AF000177041F0D695C79557954795F794E79479
:103B00001A95C1F7ECEBF0E068941590159135919A
:103B10006591959105907FE27395E118F10A430B49
:103B2000560BC90BD009C0F7E10CF11E431F561FFD
:103B3000C91FD01D7EF4703311F48A95E6CFE89446
:103B4000015030F0080F0AF40027021708F4202F64
:103B50002395022F7A3328F079E37D932A95E9F7AC
:103B600010C07D932A9589F60694979567953795A9
:103B700017951794E118F10A430B560BC90BD0099E
:103B800098F023957E9173957A3308F070E37C93D7
:103B90002013B8F77E9170617D9330F0839571E3C7
:103BA0007D9370E32A95E1F71124EF90FF900F9138
:103BB0001F91CF91DF91992787FD90950895FC0182
:103BC0000590615070400110D8F7809590958E0F48
:103BD0009F1F0895FC016150704001900110D8F7BB
:103BE000809590958E0F9F1F08950F931F93CF93ED
:103BF000DF93182F092FEB018B8181FD03C08FEF1D
:103C00009FEF20C082FF10C04E815F812C813D81DB
:103C1000421753077CF4E881F9819F012F5F3F4FE2
:103C200039832883108306C0E885F985812F09959B
:103C3000892B29F72E813F812F5F3F4F3F832E83B2
:103C4000812F902FDF91CF911F910F910895FA014D
:103C5000AA27283051F1203181F1E8946F936E7FCB
:103C60006E5F7F4F8F4F9F4FAF4FB1E03ED0B4E0BC
:103C70003CD0670F781F891F9A1FA11D680F791FFD
:103C80008A1F911DA11D6A0F711D811D911DA11D0E
:103C900020D009F468943F912AE0269F112430191E
:103CA000305D3193DEF6CF010895462F4770405DB9
:103CB0004193B3E00FD0C9F7F6CF462F4F70405D68
:103CC0004A3318F0495D31FD4052419302D0A9F7C3
:103CD000EACFB4E0A6959795879577956795BA95BD
:103CE000C9F700976105710508959B01AC010A2E83
:103CF00006945795479537952795BA95C9F7620F5A
:103D0000731F841F951FA01D0895F999FECF92BDC2
:103D100081BDF89A992780B50895262FF999FECF8D
:103D20001FBA92BD81BD20BD0FB6F894FA9AF99AD8
:103D30000FBE01960895052E97FB1EF400940E9475
:103D4000B21E57FD07D00E94CD1E07FC03D04EF4D3
:103D50000C94B21E50954095309521953F4F4F4F92
:103D60005F4F089590958095709561957F4F8F4F27
:103D70009F4F08950E946419A59F900DB49F900DC8
:103D8000A49F800D911D11240895B7FF0C94BA1EB5
:103D90000E94BA1E821B930B0895A1E21A2EAA1B41
:103DA000BB1BFD010DC0AA1FBB1FEE1FFF1FA217EB
:103DB000B307E407F50720F0A21BB30BE40BF50BE8
:103DC000661F771F881F991F1A9469F76095709571
:103DD000809590959B01AC01BD01CF010895F894A9
:023DE000FFCF13
:103DE20000000002000000000301000000002801A2
:103DF20002060A090810113FAA3F0C3C0C3B0C01B9
:043E020000000000BC
:00000001FF
