:100000000C94B5000C94DB000C94DB000C94DB002A
:100010000C94DB000C94DB000C940D070C94DB00BB
:100020000C94DB000C94DB000C94DB000C94450D6D
:100030000C94DB000C94DB000C94A90C0C94DB00FA
:100040000C94DB000C94DB000C94DB000C94DB00C4
:100050000C94DB000C94DB000C94DB000C94670D1B
:100060000C94DB000C94DB006E616E00696E660020
:1000700000407A10F35A00A0724E18090010A5D45F
:10008000E80000E87648170000E40B54020000CABC
:100090009A3B000000E1F505000080969800000002
:1000A00040420F000000A086010000001027000061
:1000B0000000E803000000006400000000000A00E7
:1000C000000000000100000000002C76D888DC67EA
:1000D0004F0823DFC1DFAE59E1B1B796E5E3E45342
:1000E000C63AE651997696E8E6C28426EB898C9B5F
:1000F00062ED407C6FFCEFBC9C9F40F2BAA56FA5FF
:10010000F490055A2AF75C936B6CF9676DC11BFC80
:10011000E0E40D47FEF520E6B500D0ED902E03009B
:10012000943577050080841E080000204E0A0000E8
:1001300000C80C333333330F986E12831141EF8DA7
:100140002114893BE65516CFFEE6DB18D1844B38E7
:100150001BF77C1D901DA4BBE424203284725E2218
:100160008100C9F124ECA1E53D2711241FBECFEF8A
:10017000D8E0DEBFCDBF14BE88E10FB6F8948093FF
:100180006000109260000FBE11E0A0E0B1E0E4EF6B
:10019000FAE302C005900D92A032B107D9F712E040
:1001A000A0E2B1E001C01D92AC3DB107E1F70E94B1
:1001B0008F1A0C94781D0C9400001F93CF93DF933B
:1001C00020910A0130910B01A901475A5E4FDA01D3
:1001D000EC91E901B0E1EB9FC00DD11D1124C85293
:1001E000DF4F1CE0FC01DE0101900D921A95E1F752
:1001F000FB0180819181A281B3818C879D87AE872D
:10020000BF87DA018C9190E00196877099278C93D3
:10021000F901E85AFE4F2081281304C00196877027
:1002200099278083DF91CF911F91089520910A0132
:1002300030910B01F901E653FF4F808191810196C6
:1002400021F024533F4FC901089520E030E0FBCF57
:10025000CF93DF93C0910A01D0910B01FE01E653C9
:10026000FF4F8FEF9FEF91838083FE01E853FF4F95
:1002700011821082FE01EB52FF4F10823091D702A3
:100280002091D802CE0184539F4FFC013083FE01A0
:10029000E353FF4F2083FE01E253FF4F1082FE0124
:1002A000E153FF4F2FEF2083FE01E053FF4F2083E8
:1002B0000E94780FCA52DF4F998388832091D7021A
:1002C0003091D802C0910A01D0910B01211531055E
:1002D00029F4FE01E653FF4F11821082FE01EB521A
:1002E000FF4F1082CE0184539F4FFC012083FE01FB
:1002F000E353FF4F3083FE01E253FF4FDE01A8536B
:10030000BF4F2C912083FE01E653FF4F30812181A6
:10031000FE01E153FF4F3083FE01E053FF4F208386
:100320000E94780FCA52DF4F99838883DF91CF9163
:1003300008954F925F926F927F928F929F92AF92A9
:10034000BF92CF92DF92EF92FF920F931F93CF93C2
:10035000DF93C0910A01D0910B016E0128ECC20E0F
:10036000D11CD601FC90FA94F7FC49C08F2D992737
:1003700087FD90959C01220F331F880F991F880FCE
:10038000991F880F991F280F391F2C0F3D1F5AE006
:10039000E52E8091A1029091A202A091A302B091BA
:1003A000A402F9014681578160857185841B950BF4
:1003B000A60BB70B81349105A105B105D8F0D60184
:1003C0008D919C910197FC01EE0FFF1FAC01440F32
:1003D000551F440F551F440F551FE40FF51FEC0F19
:1003E000FD1FD9014E2D01900D924A95E1F7F601BE
:1003F00091838083FA942A503109F7FECACFFE0117
:10040000E85AFE4F9081FE01E75AFE4F808198170F
:1004100009F4A0C09E0140E1949F200D311D1124DC
:10042000C9018C519F4F0E94CA09C0910A01D09105
:100430000B01853608F01CC15E0198EAA91A9EEFEF
:10044000B90AD5019C917E01B0E19B9FE00CF11CA3
:100450001124E8EDEE0EF11CD70111969C90119736
:10046000812C9C91D401A92B6E01E8ECCE0ED11CFD
:10047000F60160817181161617060CF000C1288103
:100480003981A217B30709F411C190E014C0A90182
:10049000440F551F220F331F220F331F220F331F0C
:1004A000FA01E20FF31FEC0FFD1F0190F081E02D28
:1004B000AE17BF07C1F09F5F292F30E0261737071F
:1004C00034F32617370709F0E4C0633171050CF4E3
:1004D000DAC0AB01440F551F9B01220F331F220FBF
:1004E000331F220F331FFA01E20FF31FEC0FFD1F22
:1004F000B183A0834090A1025090A2026090A30219
:100500007090A40246825782608671868283D701EA
:1005100012968C911297858314961C91149700E083
:1005200013968C919801282BC90194838383D5015C
:100530008C9190E0019687709927982F8C93FE01FB
:10054000E75AFE4F8081891365CFB8ECCB2ED12CB2
:10055000CC0EDD1EF60140815181141615060CF0FB
:10056000AAC080E090E02EEF3FEF60E0FC01EE0FCC
:10057000FF1F880F991F880F991F880F991FE80F79
:10058000F91FEC0FFD1F838194818217930708F4F4
:100590009C016F5F862F90E0841795073CF3609174
:1005A000D7027091D8026115710509F47CC02F5FE4
:1005B0003F4FFE01E653FF4F8081918182179307E1
:1005C00039F131832083FE01EB52FF4F1082CE01BF
:1005D00084539F4FDC016C93FE01E353FF4F708304
:1005E000FE01E253FF4F4083FE01E153FF4F2083A2
:1005F000FE01E053FF4F30830E94780FCA52DF4F55
:1006000099838883E0910A01F0910B01E653FF4F33
:100610000190F081E02D9F01ADECBCEC0E94B21A7C
:10062000969587959695879596958795AC01440FF5
:10063000551F880F991F880F991F880F991F480F02
:10064000591FE41BF50BE050FF4F8081DF91CF91E4
:100650001F910F91FF90EF90DF90CF90BF90AF90E0
:100660009F908F907F906F905F904F900C94210D92
:10067000A8E5AA2EBB24B394AC0EBD1E58CF672BA1
:10068000A9F420E030E0A9014F5F5F4FF6015183EC
:100690004083A901440F551F220F331F220F331F20
:1006A000220F331F20CF21E030E083CF40E050E025
:1006B00020E030E018CF2EEF3FEF71CFCF93DF93E4
:1006C000C0910A01D0910B01FE01EB52FF4F108245
:1006D0003091D7022091D802CE0184539F4FFC0164
:1006E0003083FE01E353FF4F2083FE01E253FF4FAF
:1006F000DE01A853BF4F2C912083FE01E653FF4F2C
:1007000030812181FE01E153FF4F3083FE01E05330
:10071000FF4F20830E94780FCA52DF4F998388834E
:10072000DF91CF910895CF92DF92EF92FF920F93D6
:100730001F93CF93DF9380910A0190910B01FC01ED
:10074000E85AFE4F208130E1239F800D911D112436
:100750008C519F4F0E94CA09853608F06DC0A09148
:100760000A01B0910B01FD01E85AFE4F9081ED01A5
:10077000E0E19E9FC00DD11D1124C852DF4FF980CA
:10078000E12C9881E92A6D01F8ECCF0ED11CF6011D
:1007900000811181101611060CF057C02D913C916B
:1007A00011972E153F0509F464C090E013C0A9010C
:1007B000440F551F220F331F220F331F220F331FE9
:1007C000FA01E20FF31FEA0FFB1F608171816E15C2
:1007D0007F05B1F09F5F292F30E0201731073CF3F0
:1007E00020173107E1F5033111059CF1A801440FF1
:1007F000551F9801220F331F220F331F220F331F63
:10080000FA01E20FF31FEA0FFB1FF182E082409131
:10081000A1025091A2026091A3027091A4024683AA
:1008200057836087718782838A8185839C8180E07A
:100830002B81822B94838383DF91CF911F910F9122
:10084000FF90EF90DF90CF900895012B91F420E07E
:1008500030E0A9014F5F5F4FF60151834083A9014A
:10086000440F551F220F331F220F331F220F331F38
:10087000C7CF40E050E020E030E0C2CFEF92FF92DF
:100880000F931F93CF93DF9300910A0110910B01F7
:10089000980128533F4FF901F080FA94F7FC47C0C4
:1008A0008F2D992787FD9095EC01CC0FDD1F880FC8
:1008B000991F880F991F880F991FC80FD91FC00F44
:1008C000D11F6AE0E62E8091A1029091A202A09130
:1008D000A302B091A4024E815F8168857985841B53
:1008E000950BA60BB70B81349105A105B105D8F086
:1008F000F901808191810197FC01EE0FFF1FAC018E
:10090000440F551F440F551F440F551FE40FF51F8B
:10091000E00FF11FDE014E2D01900D924A95E1F797
:10092000F90191838083FA942A97F7FECCCFDF9167
:10093000CF911F910F91FF90EF900895089580E05F
:1009400090E008950895CF93F89414B817B81AB8A2
:1009500015B818B81BB8529A5A9A14BC85E085BDD0
:100960008FEF87BD22E020936E00109280001092DE
:1009700081008FE89BE0909389008093880020930A
:100980006F005398239881EA8093B0002093B100C0
:100990001092B4001092B3008BE080BF83E080938C
:1009A0007F0086E080937C0083E880937A008091CA
:1009B0007A00806480937A0080917A0086FDFCCF73
:1009C00010927C0083EA80937A0081E080937B0020
:1009D00081E090E00E94111D8F3F11F0809366002E
:1009E0001092A502C1E0C0937E02C093C202109291
:1009F0009C021092D60280E990E00E94111D809323
:100A00009B0280919B02887311F0C0939B0210920D
:100A1000C6021092C5028FEF90E09093C4028093BB
:100A2000C3021092A1021092A2021092A30210928D
:100A3000A40281E08093220182E49FE09093D5029A
:100A40008093D40280EB90E00E94111DC82F81EBAF
:100A500090E00E94111D382F20E02C2B3093D802FB
:100A60002093D70285E090E00E94111D8093DB0265
:100A700089E090E00E94111D8093C7028CE090E015
:100A80000E94111D8093D90284E190E00E94111D03
:100A90008093DA0280E290E00E94111DC82F81E26B
:100AA00090E00E94111D3C2F20E0282B3093A702DC
:100AB0002093A60280E590E00E94111DC82F81E5D9
:100AC00090E00E94111D3C2F20E0282B30938002E3
:100AD00020937F0282E290E00E94111DC82F83E2E2
:100AE00090E00E94111D3C2F20E0282B3093A9029A
:100AF0002093A80282E590E00E94111DC82F83E593
:100B000090E00E94111D3C2F20E0282B30938202A0
:100B10002093810284E290E00E94111DC82F85E29B
:100B200090E00E94111D3C2F20E0282B3093AB0257
:100B30002093AA0284E590E00E94111DC82F85E54C
:100B400090E00E94111D3C2F20E0282B309384025E
:100B50002093830286E290E00E94111DC82F87E255
:100B600090E00E94111D3C2F20E0282B3093AD0215
:100B70002093AC0286E590E00E94111DC82F87E506
:100B800090E00E94111D3C2F20E0282B309386021C
:100B90002093850288E290E00E94111DC82F89E20F
:100BA00090E00E94111D3C2F20E0282B3093AF02D3
:100BB0002093AE0288E590E00E94111DC82F89E5C0
:100BC00090E00E94111D3C2F20E0282B30938802DA
:100BD000209387028AE290E00E94111DC82F8BE2C9
:100BE00090E00E94111D3C2F20E0282B3093B10291
:100BF0002093B0028AE590E00E94111DC82F8BE57A
:100C000090E00E94111D3C2F20E0282B30938A0297
:100C1000209389028CE290E00E94111DC82F8DE282
:100C200090E00E94111D3C2F20E0282B3093B3024E
:100C30002093B2028CE590E00E94111DC82F8DE533
:100C400090E00E94111D3C2F20E0282B30938C0255
:100C500020938B028EE290E00E94111DC82F8FE23C
:100C600090E00E94111D3C2F20E0282B3093B5020C
:100C70002093B4028EE590E00E94111DC82F8FE5ED
:100C800090E00E94111D3C2F20E0282B30938E0213
:100C900020938D0280E390E00E94111DC82F81E314
:100CA00090E00E94111D3C2F20E0282B3093B702CA
:100CB0002093B60280E690E00E94111DC82F81E6C5
:100CC00090E00E94111D3C2F20E0282B30939002D1
:100CD00020938F0282E390E00E94111DC82F83E3CE
:100CE00090E00E94111D3C2F20E0282B3093B90288
:100CF0002093B80282E690E00E94111DC82F83E67F
:100D000090E00E94111D3C2F20E0282B309392028E
:100D10002093910284E390E00E94111DC82F85E387
:100D200090E00E94111D3C2F20E0282B3093BB0245
:100D30002093BA0284E690E00E94111DC82F85E638
:100D400090E00E94111D3C2F20E0282B309394024C
:100D50002093930286E390E00E94111DC82F87E341
:100D600090E00E94111D3C2F20E0282B3093BD0203
:100D70002093BC0286E690E00E94111DC82F87E6F2
:100D800090E00E94111D3C2F20E0282B309396020A
:100D90002093950288E390E00E94111DC82F89E3FB
:100DA00090E00E94111D3C2F20E0282B3093BF02C1
:100DB0002093BE0288E690E00E94111DC82F89E6AC
:100DC00090E00E94111D3C2F20E0282B30939802C8
:100DD000209397028AE390E00E94111DC82F8BE3B5
:100DE00090E00E94111D3C2F20E0282B3093C1027F
:100DF0002093C0028AE690E00E94111DC82F8BE666
:100E000090E00E94111D3C2F20E0282B30939A0285
:100E1000209399027894CF9108951F920F920FB664
:100E20000F9211248F9388E10FB6F894809360009D
:100E3000109260000FBE8F910F900FBE0F901F9009
:100E400018957C01EB01D12C88248A9486E0982E99
:100E500093E8A92E08E110E029E2B22E34E0C32E77
:100E6000809122018330B9F1843008F03EC0813096
:100E700009F4BEC008F44BC08091A502811100C1E5
:100E8000F89490927C00A0927A0080917A0080641D
:100E900080937A0080917A0086FDFCCF20917800C3
:100EA0003091790078942B3A92E039070CF002C126
:100EB0002938E2E03E070CF004C1273632400CF43A
:100EC000DFC0559A549A3B9A3A9A3D983C98809143
:100ED0002201833049F6DD2009F4D9C0C0922201F5
:100EE000DD24D394FE010995BBCF853009F462C09F
:100EF000C8F3863009F0B4CF80912001811194C0ED
:100F00001092B3001092B40010922101A9CFF8946E
:100F100080B7877F80BF80917A008F7780937A0037
:100F200014B817B81AB815B818B81BB80FB6F89493
:100F3000A895009360000FBEB092600080916000A1
:100F400080648093600083B7817F846083BFF8945E
:100F500083B7816083BF7894889583B78E7F83BF82
:100F600078941092A502529A5A9A80917A008068D9
:100F700080937A0087E592E00197F1F700C00000C6
:100F800080B7886180BF559A549A3B9A3A9A3D9AA5
:100F90003C9AEFE1FEE43197F1F700C00000809148
:100FA000A502811177C0559854983B983A983D987E
:100FB0003C9856CF4899F7CF559A54983B983A9811
:100FC0003D983C988FEC97E00197F1F700C0000046
:100FD000559854983B983A983D983C989FEFE1EE8D
:100FE000F4E09150E040F040E1F700C0000038CF5D
:100FF000559854983B9A3A9A3D983C98EFECF7E014
:101000003197F1F700C00000559854983B983A98F2
:101010003D983C98FFEF21EE84E0F1502040804065
:10102000E1F700C000001CCF9091200180912101C8
:10103000981709F415CF80912001809321018091A8
:101040002001813009F444C0809120011092B30046
:101050008092B400823009F44CC08092B300809238
:10106000B4008FE295E70197F1F700C0000080918E
:10107000DA029091D9029093B3008093B400F0CE3D
:10108000559A549A3B983A983D983C98E9CEF70186
:10109000099524CF559A549A3B983A983D983C9894
:1010A000FFEF20E782E0F15020408040E1F700C0F0
:1010B000000079CF559854983B9A3A9A3D983C98BD
:1010C000CFCE559854983B983A983D9A3C9AC8CEC2
:1010D0008092B3001092B4008FE295E70197F1F788
:1010E00000C000008091DB028093B3001092B40036
:1010F000B7CEEFE2F5E73197F1F700C0000080913D
:10110000C7021092B3008093B400AACE07C0EFECE0
:10111000F7E03197F1F700C0000001970097B9F7A9
:1011200008958093B3006093B40008958FEF809387
:10113000B3008093B4008FEC97E00197F1F700C003
:1011400000008FEC97E00197F1F700C000008FECF2
:1011500097E00197F1F700C000008FEC97E001974E
:10116000F1F700C000008FEC97E00197F1F700C0A5
:1011700000008FEC97E00197F1F700C000008FECC2
:1011800097E00197F1F700C000008FEC97E001971E
:10119000F1F700C000008FEC97E00197F1F700C075
:1011A00000008FEC97E00197F1F700C000008FEC92
:1011B00097E00197F1F700C000008FEC97E00197EE
:1011C000F1F700C000008FEC97E00197F1F700C045
:1011D00000008FEC97E00197F1F700C000008FEC62
:1011E00097E00197F1F700C0000008958091A502F3
:1011F00081111FC0F89487E080937C0083E880937E
:101200007A0080917A00806480937A0080917A00DD
:1012100086FDFCCF209178003091790010927C00FF
:1012200083EA80937A0081E080937B007894C901FF
:1012300008952FEF3FEFFBCF8091A50281111FC0D2
:10124000F89488EC80937C0087E880937A00809102
:101250007A00806480937A0080917A0086FDFCCFCA
:10126000209178003091790010927C0083EA80937D
:101270007A0081E080937B007894C90108952FEF74
:101280003FEFFBCF1F93CF93DF9360E070E080E0F0
:1012900013EAD1E0C6E0B3E8E1E0F0E040E850E076
:1012A000F894C0937C00B0937A0090917A00906497
:1012B00090937A0090917A0096FDFCCF209178006F
:1012C00030917900A22FA17090917A009064909350
:1012D0007A0090917A0096FDFCCF209178003091B1
:1012E000790010927C0010937A00D0937B00789460
:1012F00021703327A21303C04150510989F6AA2354
:1013000039F09F01062E01C0220F0A94EAF7822BC2
:101310006F5F7F4F6830710509F0C0CFDF91CF91CB
:101320001F91089580911201982F990F990F990F8D
:10133000982720912301822F86958695892792955B
:10134000969597708927809312012F5F2093230130
:1013500008958093120108958091A502811117C00C
:10136000F89486E080937C0083E880937A008091F3
:101370007A00806480937A0080917A0086FDFCCFA9
:1013800020917800309179007894C90108952FEF69
:101390003FEFFBCF2F923F924F925F926F927F92DF
:1013A0008F929F92AF92BF92CF92DF92EF92FF9275
:1013B0000F931F93CF93DF9300D000D000D0CDB711
:1013C000DEB75C01FC010280F381E02DFE83ED833A
:1013D000E43823E0F2070CF0D8C080917F029091AE
:1013E00080028E179F0708F4B4C10091810210910A
:1013F00082020E171F0708F440C200918302109169
:1014000084020E171F0708F441C200918502109153
:1014100086020E171F0708F442C20091870210913E
:1014200088020E171F0708F443C200918902109129
:101430008A020E171F0708F496C100918B021091C3
:101440008C020E171F0708F43CC200918D02109108
:101450008E020E171F0708F43DC200918F021091F3
:1014600090020E171F0708F43EC2009191021091DE
:1014700092020E171F0708F43FC2009193021091C9
:1014800094020E171F0708F440C2009195021091B4
:1014900096020E171F0708F446C20091970210919A
:1014A00098020E171F0708F447C200919902109185
:1014B0009A020E171F0708F448C219821A8280ED9B
:1014C0008B8390E49C835CE0E52EF12CF701EE0F1A
:1014D000FF1FE158FD4F80819181B801681B790B96
:1014E00080E090E00E94FB149B01AC010E943D1241
:1014F0003B014C01ED81FE81BF01882777FD80957E
:10150000982F0E9450146B017C01B80180E090E09C
:101510000E94FB141B012C0179816A819B818C81C3
:10152000272F362F492F582F662D772D882D992D4F
:101530000E9499129B01AC01C201B1010E94691283
:101540009B01AC01C701B6010E94691220E030E0A6
:1015500040E251E40E9499120E94AC148B01662D66
:10156000772D882D992D0E94AC14AB01BC01C801C8
:10157000BA010E94BE1A882777FD8095982F0E9495
:1015800050140E94B410062FE5C00FEFF5018080C3
:1015900091808091A6029091A7028815990508F480
:1015A0006EC0E090A802F090A902E814F90408F4D3
:1015B00068C1E090AA02F090AB02E814F90408F4C4
:1015C00069C1E090AC02F090AD02E814F90408F4AF
:1015D0006AC1E090AE02F090AF02E814F90408F49A
:1015E0006BC1E090B002F090B102E814F90408F485
:1015F000D6C0E090B202F090B302E814F90408F407
:1016000064C1E090B402F090B502E814F90408F463
:1016100065C1E090B602F090B702E814F90408F44E
:1016200066C1E090B802F090B902E814F90408F439
:1016300067C1E090BA02F090BB02E814F90408F424
:1016400068C1E090BC02F090BD02E814F90408F40F
:1016500065C1E090BE02F090BF02E814F90408F4FE
:1016600066C1E090C002F090C102E814F90408F4E9
:1016700067C11AE50F3F31F4812F8F5D51C010E033
:101680000F3FD1F32D813E81B901882777FD8095E9
:10169000982F0E9450146B017C01602F70E080E055
:1016A00090E00E94FB144B015C01A701960160E0F1
:1016B00070E081E694E40E9469129B01AC01C501CF
:1016C000B4010E9499124B015C01612F70E080E02F
:1016D00090E00E94FB142B013C0120E030E04FE23F
:1016E00054E4C701B6010E9469129B01AC01C30119
:1016F000B2010E9499129B01AC01C501B4010E9484
:101700003D1220E030E048E453E40E947E1320E0E4
:1017100030E044E052E40E943D120E94B410862F53
:1017200026960FB6F894DEBF0FBECDBFDF91CF91E6
:101730001F910F91FF90EF90DF90CF90BF90AF90EF
:101740009F908F907F906F905F904F903F902F90E1
:10175000089500E02D813E812D3B32400CF016CFE4
:10176000802F8F5DDDCF65E085E090E07C0131E08A
:10177000E31AF10870E080E090E00E94FB1420E0A2
:1017800030E040E05FE30E94991220E030E0A901E0
:101790000E943D1269837A838B839C8397CE85E078
:1017A000382EE5E0F0E0EE0FFF1FEC55FD4F808195
:1017B0009181B701681B790B80E090E00E94FB14D7
:1017C0009B01AC010E943D12262EC72ED82E192F48
:1017D000B401882777FD8095982F0E9450142B0123
:1017E0003C01B70180E090E00E94FB144B015C01DA
:1017F000632D70E080E090E00E94FB1420E030E078
:1018000040E05FE30E94991220E030E0A9010E94CD
:101810003D12222D3C2D4D2D512F0E9499129B01DE
:10182000AC01C501B4010E9469129B01AC01C30166
:10183000B2010E94691220E030E040E251E40E94CF
:1018400099120E94AC147B01622D7C2D8D2D912F5D
:101850000E94AC14AB01BC01C701BA010E94BE1AC0
:10186000882777FD8095982F0E9450140E94B4100D
:10187000162F6F3F09F004CF73CF61E081E090E055
:1018800075CF33243394E1E0F0E08DCF62E082E065
:1018900090E06CCF32E0332EE2E0F0E084CF63E002
:1018A00083E090E063CF23E0322EE3E0F0E07BCFF3
:1018B00064E084E090E05ACF94E0392EE4E0F0E078
:1018C00072CF66E086E090E051CF16E0312EE6E080
:1018D000F0E069CF67E087E090E048CFB7E03B2ECB
:1018E000E7E0F0E060CF68E088E090E03FCFA8E07C
:1018F0003A2EE8E0F0E057CF69E089E090E036CF9B
:10190000F9E03F2EE9E0F0E04ECF6AE08AE090E0B7
:101910002DCFEAE03E2EEAE0F0E045CF7BE0372E27
:10192000EBE0F0E040CF6BE08BE090E01FCF6CE0AD
:10193000362EECE0F0E037CF6CE08CE090E016CF94
:101940005DE0352EEDE0F0E02ECF6DE08DE090E033
:101950000DCF1F920F920FB60F9211242F933F932A
:101960004F935F936F937F938F939F93AF93BF93A7
:10197000EF93FF932091C5023091C6028091C3027C
:101980009091C402280F391F3093C6022093C502DC
:101990008FEF90E09093C4028093C3028FEF87BDD6
:1019A0008091A1029091A202A091A302B091A40201
:1019B0000196A11DB11D8093A1029093A202A09354
:1019C000A302B093A4028091A50281110BC0809163
:1019D000D4029091D5028217930720F480912201BE
:1019E000843089F0FF91EF91BF91AF919F918F91DA
:1019F0007F916F915F914F913F912F910F900FBE0B
:101A00000F901F901895E0910E01F0910F0109952C
:101A1000009741F30E943110811109C00E94891B77
:101A200099279093C4028093C30287BDDBCFE091D6
:101A30000C01F0910D0109951092C6021092C50299
:101A4000D1CF80FF11C0559A81FF11C0549A82FFF7
:101A500011C03B9A83FF11C03A9A84FF11C03D9A8E
:101A600085FD11C03C980895559881FDEFCF54989D
:101A700082FDEFCF3B9883FDEFCF3A9884FDEFCF07
:101A80003D9885FFEFCF3C9A08951F920F920FB6B5
:101A90000F9211248F939F931092810010928500D2
:101AA0001092840081E080937E028093C2021092A3
:101AB000A50210927C0093EA90937A0080937B00B9
:101AC0009F918F910F900FBE0F901F9018951F92AE
:101AD0000F920FB60F9211242F933F934F935F9362
:101AE0006F937F938F939F93AF93BF93CF93DF9326
:101AF000EF93FF93209184003091850041E0409363
:101B0000A50280917E028823A9F11092850010928F
:101B10008400409381001092D60210927E02809140
:101B2000C2028823A1F080917A0086FDFCCF8091CB
:101B30007800909179009093A00280939F0281E0B9
:101B400080937C0093EA90937A0080937B00FF91CE
:101B5000EF91DF91CF91BF91AF919F918F917F9145
:101B60006F915F914F913F912F910F900FBE0F900A
:101B70001F901895C901875891098437994008F03A
:101B800057C026583109A4EFB0E00E94B21A88303D
:101B900008F485C040937E028091C20281115CC02E
:101BA00080919C02E82FF0E0E853FD4F9091D6021F
:101BB00090838F5F80939C028C3049F61092810055
:101BC00010928500109284004093C2021092A502E8
:101BD000C091D202D091D30288EC92E00E94780F9B
:101BE000C817D90709F0B3CF8091D10287FF68C029
:101BF000982F9858933030F0539823981092B4004F
:101C00001092B300863809F4BFC008F063C083386F
:101C100009F41BC108F010C1803809F098CF8091F9
:101C20006E008D7F80936E0016BCE0E0F0E70995B2
:101C300010928100109285001092840040937E02E1
:101C40004093C2021092A50210927C0083EA809316
:101C50007A0040937B007BCF80917A0086FDFCCF99
:101C6000809178009091790090939E0280939D02DC
:101C700010927C0083EA80937A0081E080937B005D
:101C80009091D6029923B9F01092810010928500AC
:101C9000109284008093C2021092A50258CF21E0D6
:101CA00030E001C0220F8A95EAF78091D602822B9C
:101CB0008093D6024CCF1092C20210929C0247CF62
:101CC000E0911001F09111016DE972E088EC92E071
:101CD00009953DCF883809F4BBC008F4A9C08938FC
:101CE00009F47BC08A3809F032CF8091C802823073
:101CF00009F4C9C008F059C081114AC0809122017D
:101D0000863009F024CF6091D70280EB90E00E94EA
:101D1000191D6091D80281EB90E00E94191D60911D
:101D2000DB0285E090E00E94191D6091C70289E006
:101D300090E00E94191D6091D9028CE090E00E9411
:101D4000191D6091DA0284E190E00E94191D5398F8
:101D500023981092B4001092B30081E08093220186
:101D60008091C802882309F4F2CE80912201863046
:101D700009F4EDCE539A239A1092B4001092B30056
:101D800086E080932201E3CE85E080932201DFCEBE
:101D9000813041F78091C9029091CA029093D80294
:101DA0008093D70210922001E0CF833009F484C0E1
:101DB0008430C1F6809120019091CE02833009F4E5
:101DC00070C08091CD021092210123E02093200168
:101DD0008093D9029093DA02C8CF80912201863095
:101DE00099F0539A239A1092B4001092B300559828
:101DF00054983B983A983D983C9810922001109244
:101E0000210186E08093220181E090E00090C802E9
:101E100002C0880F991F0A94E2F72091D7023091EF
:101E2000D80282239323892B51F5109220018FCE63
:101E300082E0809322018BCE8438F1F0853809F05E
:101E400086CE81E08093220182CEE0E0F0E0099529
:101E500080912201833009F47ACE8091220184306E
:101E600009F475CE539A239A1092B4001092B300DD
:101E700083E0809322016BCE1092220168CE81E034
:101E80008093200164CE80912001813019F18091EE
:101E9000CB021092210191E0909320018093DB020C
:101EA00064CF8091DA0298138CCF8091CD0220917B
:101EB000D902821388CF59CF80912001823089F0D6
:101EC0008091CC021092210192E0909320018093A6
:101ED000C7024BCF8091CB029091DB028913D9CFFF
:101EE00044CF8091CC029091C7028913EBCF3DCFB4
:101EF000FC0180812FEF3FEF2827022E2295207FC3
:101F00002025032E322F22952F7002262695322768
:101F10002327220F220F220F202581812827022E1E
:101F20002295207F2025032E322F22952F70022606
:101F3000269532272327220F220F220F2025828168
:101F40002827022E2295207F2025032E322F22952E
:101F50002F700226269532272327220F220F220FC9
:101F6000202583812827022E2295207F2025032EDD
:101F7000322F22952F700226269532272327220FF3
:101F8000220F220F202584812827022E2295207FD0
:101F90002025032E322F22952F70022626953227D8
:101FA0002327220F220F220F202585812827022E8A
:101FB0002295207F2025032E322F22952F70022676
:101FC000269532272327220F220F220F20258681D4
:101FD0002827022E2295207F2025032E322F22959E
:101FE0002F700226269532272327220F220F220F39
:101FF000202587812827022E2295207F2025032E49
:10200000322F22952F700226269532272327220F62
:10201000220F220F202580852827022E2295207F3F
:102020002025032E322F22952F7002262695322747
:102030002327220F220F220F202581852827022EF9
:102040002295207F2025032E322F22952F700226E5
:10205000269532272327220F220F220F2025C90180
:1020600008950FB6F894A4B120919B022A2B24B9AD
:1020700021E030919B02203029F0000025B1232B74
:1020800025B904C000000000000000C000000000EE
:102090000000309525B1232325B92EEA2A95F1F7C2
:1020A0002BEE30B735FF0AC0A4B930919B023095B2
:1020B00025B1232325B90FBE80E0089500002A959D
:1020C00081F721E030919B02203029F0000025B1FA
:1020D000232B25B904C000000000000000C0000050
:1020E00000000000309525B1232325B9000024E528
:1020F0002A95F1F7FC018CE0619170E0660F771F83
:10210000616072609AE041E050E09A012623372333
:10211000232B30919B02203029F0000025B1232B86
:1021200025B904C000000000000000C0000000004D
:102130000000309525B1232325B9000021E52A951B
:10214000F1F7440F551F9A9501F78A95A9F620B724
:10215000206120BFA4B930919B02309525B1232383
:1021600025B90FBE81E00895CF92DF92EF92FF92E2
:102170000F931F936B017C0120E030E040E05FE4AF
:102180000E94211487FD0EC020E030E040E05FE4B3
:10219000C701B6010E9469120E94AC148B019C0118
:1021A000305806C0C701B6010E94AC148B019C01D7
:1021B000B801C9011F910F91FF90EF90DF90CF9070
:1021C0000895A4E0B0E0E7EEF0E10C94D41A7C01AD
:1021D0006A01FC018081823008F44AC1FB019081D0
:1021E000923008F442C1843079F4943009F040C14F
:1021F000F7019181FB018181981709F439C1A7E1A9
:10220000EA2EA1E0FA2E34C1943009F42EC19230A6
:1022100091F4823009F02CC188E0F701DA010190D5
:102220000D928A95E1F7FB018181F7019181892364
:10223000FA0181831CC1823009F417C1F701828140
:102240009381FB01A281B381F7010481158126816D
:102250003781FB0184809580A680B780FC01EA1B52
:10226000FB0BAF01F7FF04C0442755274E1B5F0B44
:10227000403251050CF074C01E161F06B4F524013F
:102280003501042E04C076946794579447940A94B9
:10229000D2F749825A826B827C82412C512C3201C6
:1022A000439404C0440C551C661C771C4A95D2F715
:1022B00041E0441A510861087108482059206A20F9
:1022C0007B20812C912C5401839445284628472853
:1022D00019F4812C912C540149805A806B807C80A8
:1022E00084289528A628B72846C0EF2B09F443C0B8
:1022F000840F951F28013901042E04C07694679439
:10230000579447940A94D2F749825A826B827C820E
:10231000412C512C3201439404C0440C551C661CC2
:10232000771C4A95D2F741E0441A510861087108B8
:10233000402251226222732201E010E020E030E0CE
:1023400045284628472819F400E010E09801498004
:102350005A806B807C8004291529262937290BC0D7
:10236000A817B90724F4812C912C540104C0CD0185
:1023700000E010E09801F7014181FB015181451710
:1023800009F446C0442349F024013501401A510A9A
:10239000620A730A9301820104C0081919092A0903
:1023A0003B0937FD05C0F6011182938382830CC07F
:1023B00041E0F60141839383828330952095109507
:1023C00001951F4F2F4F3F4F04831583268337837B
:1023D0000EC0880F991FAA1FBB1FF6018483958327
:1023E000A683B78382819381019793838283F601C9
:1023F00084819581A681B781AC01BD01415051090D
:10240000610971094F3F5F4F6F4F7F4310F30CC05D
:10241000F601418393838283080D191D2A1D3B1DFC
:10242000048315832683378383E0F6018083448108
:1024300055816681778177FF1AC0DB01CA018170FF
:102440009927AA27BB277695679557954795842B9B
:10245000952BA62BB72B84839583A683B783828184
:10246000938101969383828302C07B0101C0760130
:10247000C7012496E0E10C94F01AA0E2B0E0E3E496
:10248000F2E10C94E21A6D8F7E8F8F8F98A3298FC3
:102490003A8F4B8F5C8FBE016F5E7F4FCE014D96A2
:1024A0000E943B16BE01675F7F4FCE0149960E9496
:1024B0003B16AE014F5F5F4FBE01675F7F4FCE019E
:1024C00041960E94E1100E947115A096E2E00C94E2
:1024D000FE1AA0E2B0E0EFE6F2E10C94E21A6D8F92
:1024E0007E8F8F8F98A3298F3A8F4B8F5C8FBE0181
:1024F0006F5E7F4FCE014D960E943B16BE01675F17
:102500007F4FCE0149960E943B168A8591E089272C
:102510008A87AE014F5F5F4FBE01675F7F4FCE017D
:1025200041960E94E1100E947115A096E2E00C9481
:10253000FE1AA0E2B0E0EFE9F2E10C94D41A6D8F3C
:102540007E8F8F8F98A3298F3A8F4B8F5C8FBE0120
:102550006F5E7F4FCE014D960E943B16BE01675FB6
:102560007F4FCE0149960E943B169989923008F41C
:1025700012C08985823008F41AC0943021F4823068
:1025800009F4B4C008C0843021F4923009F4AEC01C
:102590000EC0923051F481E02A899A85291301C036
:1025A00080E08A8BCE014196A3C0823051F481E055
:1025B0002A899A85291301C080E08A87CE0109966D
:1025C00097C08D889E88AF88B88C0D851E852F8515
:1025D0003889E0E2F0E080E090E0DC01C12CD12C11
:1025E000760140E050E0BA0180FE18C0400F511F54
:1025F000621F731F8C0D9D1DAE1DBF1D412C512CE4
:1026000032014394401751076207730718F0412CB9
:10261000512C3201840D951DA61DB71DCC0CDD1C5F
:10262000EE1CFF1C37FF02C06894C0F8000F111F9A
:10263000221F331FB694A794979487943197A1F6DD
:102640002B893C89EB85FC852E0F3F1F2E5F3F4F6A
:102650003C832B8321E0EA893A85E31301C020E023
:102660002A83EB81FC810CC080FF05C076956795BD
:10267000579547957068B695A79597958795319624
:10268000B7FDF2CF9F010CC0880F991FAA1FBB1F77
:1026900077FD8160440F551F661F771F2150310958
:1026A0000097A105E0E4BE0778F32B833C838C01FF
:1026B0009D010F77112722273327003411052105AB
:1026C000310559F487FD09C0452B462B472B29F0CE
:1026D000805C9F4FAF4FBF4F80788D839E83AF83C9
:1026E000B88783E08983CE01019602C087E191E03B
:1026F0000E947115A096E0E10C94F01AA8E1B0E0F8
:10270000E4E8F3E10C94DC1A6D8B7E8B8F8B988F51
:10271000298B3A8B4B8B5C8BBE01675F7F4FCE0161
:1027200045960E943B16BE016F5F7F4FCE014196DA
:102730000E943B169985923008F475C089818230D9
:1027400008F474C02A853A8123272A87943011F02F
:10275000923019F4981367C06CC0843039F41D8628
:102760001E861F86188A1C861B8604C0823029F4A8
:1027700084E08987CE0109965EC08B859C852B817C
:102780003C81821B930B9C878B874D855E856F8573
:102790007889CD80DE80EF80F8844C155D056E056C
:1027A0007F0538F4440F551F661F771F01979C87DC
:1027B0008B87EFE1F0E000E010E020E030E480E023
:1027C00090E0DC014C155D056E057F0540F0802B27
:1027D000912BA22BB32B4C195D096E097F093695FD
:1027E000279517950795440F551F661F771F31973B
:1027F00049F78C019D010F771127222733270034D9
:1028000011052105310559F487FD09C0452B462BDB
:10281000472B29F0805C9F4FAF4FBF4F80788D874B
:102820009E87AF87B88BCE01099605C0CE01019671
:1028300002C087E191E00E9471156896E8E00C946F
:10284000F81AA8E1B0E0E7E2F4E10C94E21A6D8B2B
:102850007E8B8F8B988F298B3A8B4B8B5C8BBE0139
:10286000675F7F4FCE0145960E943B16BE016F5FAA
:102870007F4FCE0141960E943B168985823058F0E9
:102880008981823040F0BE016F5F7F4FCE01099693
:102890000E94AA1601C08FEF6896E2E00C94FE1A1F
:1028A000A8E0B0E0E6E5F4E10C94E01A23E0298327
:1028B0008B019C01002737FD039511272227332721
:1028C000402F0A83611571058105910519F482E095
:1028D000898335C02EE130E03C832B83442371F0A3
:1028E00061157105810520E8920771F10027112714
:1028F0009801061B170B280B390B02C08B019C019A
:10290000C901B8010E941D1B0197181619062CF069
:102910000D831E832F83388712C0082E04C0000F3A
:10292000111F221F331F0A94D2F70D831E832F839A
:1029300038872EE130E0281B390B3C832B83CE01F6
:1029400001960E94711504C060E070E080E09FEC89
:102950002896E4E00C94FC1AACE0B0E0E2EBF4E181
:102960000C94E01A69877A878B879C87BE016F5F1A
:102970007F4FCE0109960E943B168981823091F1EA
:10298000823080F1843041F48A81882331F100E083
:1029900010E020E030E829C02B813C8137FD22C0C7
:1029A0002F3131058CF78EE190E0821B930B0D8166
:1029B0001E812F81388504C0369527951795079578
:1029C0008A95D2F78A81882381F0309520951095D9
:1029D00001951F4F2F4F3F4F08C00FEF1FEF2FEFF5
:1029E0003FE703C000E010E09801B801C9012C9650
:1029F000E4E00C94FC1AA8E0B0E0E1E0F5E10C940E
:102A0000DC1A8B019C011A82611571058105910503
:102A100019F482E089835DC083E089834EE150E050
:102A20005C834B83C901B8010E941D1B019797FF6E
:102A300039C0EE27FF27E81BF90B41E050E060E0CA
:102A400070E00E2E04C0440F551F661F771F0A94B6
:102A5000D2F7415051096109710940235123622382
:102A60007323C12CD12C7601C394452B462B472BC5
:102A700019F4C12CD12C760104C0369527951795F1
:102A80000795EA95D2F70C291D292E293F290D8398
:102A90001E832F8338872EE130E0281B390B3C83BF
:102AA0002B8317C0009729F40D831E832F8338874B
:102AB00010C0082E04C0000F111F221F331F0A94DC
:102AC000D2F70D831E832F833887481B590B5C83F5
:102AD0004B83CE0101960E9471152896E8E00C9474
:102AE000F81A0F931F93CF93DF93DC0114964D9147
:102AF0005D916D917C9117971196EC9111978C9146
:102B0000823020F460618FEF90E0A6C0843009F439
:102B10009EC0823009F495C04115510561057105CB
:102B200009F492C012962D913C91139722388FEFA1
:102B300038070CF058C0C2E8DFEFC21BD30BCA3114
:102B4000D1056CF58A019B010C2E04C036952795A2
:102B5000179507950A94D2F781E090E0A0E0B0E0E5
:102B60000C2E04C0880F991FAA1FBB1F0A94D2F70E
:102B70000197A109B10984239523A623B72341E036
:102B800050E060E070E0892B8A2B8B2B19F440E039
:102B900050E0BA01402B512B622B732B03C040E055
:102BA00050E0BA01DB01CA018F779927AA27BB271A
:102BB00080349105A105B10539F447FF09C0405C97
:102BC0005F4F6F4F7F4F04C0415C5F4F6F4F7F4F30
:102BD00081E090E041155105610520E4720748F558
:102BE00080E090E026C0203831058CF5DB01CA0179
:102BF0008F779927AA27BB2780349105A105B105B6
:102C000039F447FF09C0405C5F4F6F4F7F4F04C0EE
:102C1000415C5F4F6F4F7F4F77FD04C0C901815802
:102C20009F4F07C07695679557954795C90180587E
:102C30009F4F97E076956795579547959A95D1F769
:102C40000BC080E090E005C080E090E005C08FEF11
:102C500090E040E050E0BA01982F9695E0FB97F99C
:102C6000362F80FB37F9642F752F832FDF91CF919B
:102C70001F910F910895CF92DF92EF92DC01FB013B
:102C8000CC901196DC90119712968C9112973FE799
:102C9000E32EE8226E2DA60170E0982F991F992748
:102CA000991F13962C91822F880F892B90E027FB78
:102CB000222720F92183009729F541155105610547
:102CC000710511F482E027C082E89FEF938382832D
:102CD00027E0440F551F661F771F2A95D1F783E021
:102CE000808309C0440F551F661F771F828193811F
:102CF00001979383828341155105610580E478072C
:102D000088F320C08F3F910579F441155105610585
:102D1000710519F484E0808319C0E4FE03C081E0EA
:102D2000808310C010820EC08F57910993838283D5
:102D300083E0808387E0440F551F661F771F8A95C5
:102D4000D1F770644483558366837783EF90DF9077
:102D5000CF900895CF93FC01DB019081923008F46D
:102D600052C08C91823008F44EC0943071F484309B
:102D700039F411962C9130E08181281B310948C02B
:102D80008181882309F43FC03BC0843029F4119627
:102D90008C91811138C034C0923019F48230B9F767
:102DA00035C0823069F3C18111968C911197C81397
:102DB0001DC02281338112968D919C9113978217A9
:102DC00093070CF413C0281739070CF417C044817B
:102DD00055816681778114968D919D910D90BC915E
:102DE000A02D84179507A607B70718F4C11108C0CE
:102DF0000AC0481759076A077B0740F4C11103C08E
:102E00002FEF3FEF05C021E030E002C020E030E0CE
:102E1000C901CF910895A3E1B0E0E1E1F7E10C949D
:102E2000D21A7C015B018A01FC0117821682838120
:102E300081FD03C06DC3860105C088248394912C55
:102E40008C0E9D1EF7019381F50193FD859193FFF3
:102E500081915F01882309F457C3853239F493FDCA
:102E6000859193FF81915F01853231F4B70190E044
:102E70000E94871C6801DFCF412C512C20E02032BA
:102E8000A8F48B3261F028F4803251F0833271F46F
:102E90000BC08D3239F0803349F4216028C02260A4
:102EA000246025C0286023C0206121C027FD27C0E1
:102EB000382F30533A3078F426FF06C0FAE04F9EA0
:102EC000300D1124432E13C08AE0589E300D11247A
:102ED000532E20620CC08E3221F426FD15C32064CF
:102EE00006C08C3611F4206802C0883641F4F50122
:102EF00093FD859193FF81915F018111C0CF982F40
:102F00009554933018F42061805E06C0982F955632
:102F1000933008F0A1C12F7E26FD02C056E0452E59
:102F20004FE3742E7222853619F4F0E47F2A07C02D
:102F3000863619F420E8722A02C041104A9477FEBE
:102F400007C03BE3341548F0342C339427E00DC020
:102F500087E0841530F0242D07C027E03CE3332EB2
:102F600004C027E097E0492E312C680194E0C90E97
:102F7000D11CF8016081718182819381032DA401AC
:102F80000E94991B8C0129812C8720FF02C023FFFE
:102F900007C071FC08C072FE09C080E2682E07C03D
:102FA000BDE26B2E04C0ABE26A2E01C0612C8C85A1
:102FB0008C70A1F1662011F084E001C083E08515DA
:102FC00010F0512C0BC0581A73FC08C0B70180E2F6
:102FD00090E00E94871C5A94C9F7F3CF662029F02D
:102FE000B701862D90E00E94871C3C8533FD03C00D
:102FF0000CE610E00CC008E610E009C07110805229
:10300000B70190E00E94871C0F5F1F4F02C080E154
:103010007822F80184918111F1CF73C277FE0EC03E
:10302000300E2C8524FF04C08A81813309F43A9440
:1030300013144CF538E0331548F12CC076FC2AC047
:10304000242D30E02017310744F00C3F8FEF180794
:1030500024F090E8792A01C04A94442049F0E2E043
:10306000F0E0EC0FFD1FE40DF11D80818033A1F332
:1030700077FE10C0342C3394242D30E00217130750
:1030800044F4401A07C03324339404C0F8E03F2EC0
:1030900001C0412C77FE07C0101611063CF49801C0
:1030A0002F5F3F4F05C025E030E002C021E030E057
:1030B000662011F02F5F3F4F442031F0442D50E047
:1030C0004F5F5F4F240F351F452D50E02417350704
:1030D00014F4521A01C0512C872D897049F406C08E
:1030E000B70180E290E00E94871C5A945110F8CFFB
:1030F000662029F0B701862D90E00E94871C73FCA2
:1031000009C006C0B70180E390E00E94871C5A9472
:103110005110F8CF77FE53C0380117FF02C0612C61
:10312000712C1E861D86980123193109388B2F8733
:10313000180126183708280C391C642D70E0222746
:103140003327261B370B3A8B298B3FEF6316730609
:1031500029F4B7018EE290E00E94871C061517053E
:103160005CF02F8538892615370534F4ED85FE850A
:10317000E20DF31D818101C080E331E0631A710823
:103180002D853E852F5F3F4F3E872D8729893A89C0
:10319000621673062CF0B70190E00E94871CD5CF11
:1031A0006016710649F49A81963328F4953321F418
:1031B0003C8534FD01C081E3B70190E04AC08A81BB
:1031C000813319F02C852F7E2C87B70190E00E9467
:1031D000871C411005C074FE16C085E490E015C040
:1031E000B7018EE290E00E94871CE2E06E2EF401AF
:1031F000E60DF11D6394B701808190E00E94871C69
:103200004A94A9F7E8CF85E690E0B7010E94871CB1
:1032100017FD06C00115110541F43C8534FF05C0BA
:103220001195019511098DE201C08BE2B70190E083
:103230000E94871C80E303C08F5F0A5011090A3087
:103240001105D4F7B70190E00E94871CB701C801AF
:10325000C0960E94871C55C1833631F0833781F0B8
:10326000833509F05EC024C0680182E0C80ED11C1D
:10327000F8018081898366246394712C840114C0D1
:103280006801F2E0CF0ED11CF8010081118126FF08
:1032900003C0642D70E002C06FEF7FEFC8012B8B7D
:1032A0000E947C1C3C012B896FE7462E422217C0EE
:1032B0006801F2E0CF0ED11CF8010081118126FFD8
:1032C00003C0642D70E002C06FEF7FEFC8012B8B4D
:1032D0000E94711C3C012B8950E8452E422A43FC78
:1032E0001CC006C0B70180E290E00E94871C5A947F
:1032F000852D90E068167906A8F30FC0F80147FC09
:10330000859147FE81918F01B70190E00E94871C53
:1033100051105A94F1E06F1A71086114710471F739
:10332000F0C0843611F0893661F5680127FF09C0C5
:1033300034E0C30ED11CF8016081718182819381D8
:103340000AC0F2E0CF0ED11CF8016081718188279C
:1033500077FD8095982F4FE6742E722297FF09C053
:1033600090958095709561957F4F8F4F9F4FF0E8B6
:103370007F2A2AE030E0A4010E94B31C682E68185E
:1033800047C0853731F43FEE732E72222AE030E0D9
:1033900024C099EF792E72228F36B9F020F4883547
:1033A00009F0B2C00DC0803721F0883709F0ACC0F9
:1033B00002C020E1722A74FE0BC034E0732A08C0F8
:1033C00024FF09C086E0782A06C028E030E005C066
:1033D00020E130E002C020E132E0680177FE09C060
:1033E00094E0C90ED11CF8016081718182819381C2
:1033F00008C0F2E0CF0ED11CF8016081718180E03D
:1034000090E0A4010E94B31C682E6818FFE77F2299
:1034100076FE0BC0072D0E7F641450F474FE0AC0B4
:1034200072FC08C0072D0E7E05C0162D072D03C0A7
:10343000162D01C0142D04FF0CC0FE01E60DF11D78
:103440008081803311F4097E08C002FF05C01E5F31
:1034500004C0802F867809F01F5F03FD12C000FFB3
:103460000DC0462C151550F4450C411A152D06C0FB
:10347000B70180E290E00E94871C1F5F1515C0F322
:1034800004C0151510F4511A01C0512C04FF10C0CE
:10349000B70180E390E00E94871C02FF1EC001FF7D
:1034A00003C088E590E002C088E790E0B7010CC057
:1034B000802F867891F001FD02C080E201C08BE28E
:1034C00007FD8DE2B70190E00E94871C06C0B7019E
:1034D00080E390E00E94871C4A946414C0F36A94CD
:1034E000F401E60DF11DB701808190E00E94871C78
:1034F0006110F5CF06C0B70180E290E00E94871C02
:103500005A945110F8CF97CCF7012681378102C029
:103510002FEF3FEFC9016396E2E10C94EE1A0E948F
:10352000A30480910A0190910B01FC01E85AFE4F1F
:103530001082FC01E75AFE4F10828DED90E09093CF
:1035400011018093100186E191E090930F01809327
:103550000E0169E971E088E291E00E94210780E0B4
:1035600090E00895A29FB001B39FC001A39F01D036
:10357000B29F700D811D1124911D089597FB072E98
:1035800016F4009407D077FD09D00E94091B07FCB0
:1035900005D03EF4909581959F4F08957095619563
:1035A0007F4F08952F923F924F925F926F927F923A
:1035B0008F929F92AF92BF92CF92DF92EF92FF9243
:1035C0000F931F93CF93DF93CDB7DEB7CA1BDB0BEF
:1035D0000FB6F894DEBF0FBECDBF09942A88398894
:1035E00048885F846E847D848C849B84AA84B9849B
:1035F000C884DF80EE80FD800C811B81AA81B981A7
:10360000CE0FD11D0FB6F894DEBF0FBECDBFED01BA
:103610000895AA1BBB1B51E107C0AA1FBB1FA61719
:10362000B70710F0A61BB70B881F991F5A95A9F76B
:1036300080959095BC01CD0108950E94261B84FFC2
:103640000895CB010E94261B805F0895AA27992325
:1036500029F4A85F982B11F480E10895903118F4B3
:10366000AD5F9295A395990FE8F78A2F9927089552
:103670008F929F92AF92BF92CF92DF92EF92FF9282
:10368000CF93DF93EC01688179818A819B816115F9
:1036900071058105910521F464E279ED8BE597E0F0
:1036A0002DE133EF41E050E00E943A1D49015A01FB
:1036B0009B01AC01A7EAB1E40E94271D6B017C01CC
:1036C000ACEEB4EFA50194010E94351DC60ED71EC5
:1036D000E81EF91EF7FE06C081E0C81AD108E1080D
:1036E00080E8F80AC882D982EA82FB82E894D7F897
:1036F000EE24FF24C601DF91CF91FF90EF90DF9081
:10370000CF90BF90AF909F908F9008950E94381BEC
:10371000089583E191E00E94381B0895A0E0B0E095
:103720008093130190931401A0931501B093160197
:103730000895283008F027E03327DA01990F311D6A
:1037400087FD916000966105710539F432602E5F46
:103750003D9330E32A95E1F708959F3F30F080389C
:103760007105610509F03C5F3C5F3D93913008F0C5
:103770008068911DDF93CF931F930F93FF92EF9279
:10378000192F987F9695E92F96959695E90FFF2723
:10379000E653FF4F99273327EE24FF24A701E701C3
:1037A00005900894079428F4360FE71EF81E491F69
:1037B000511D660F771F881F991F0694A1F705906A
:1037C000079428F4E70EF81E491F561FC11D770FF6
:1037D000881F991F661F0694A1F70590079428F487
:1037E000F80E491F561FC71FD11D880F991F661F4E
:1037F000771F0694A1F70590079420F4490F561FF0
:10380000C71FD81F990F661F771F881F0694A9F737
:1038100084911095177041F0D695C79557954795A7
:10382000F794E7941A95C1F7E0E7F0E068941590F3
:10383000159135916591959105907FE27395E11809
:10384000F10A430B560BC90BD009C0F7E10CF11E6E
:10385000431F561FC91FD01D7EF4703311F48A9583
:10386000E6CFE894015030F0080F0AF40027021761
:1038700008F4202F2395022F7A3328F079E37D93E3
:103880002A95E9F710C07D932A9589F606949795B5
:103890006795379517951794E118F10A430B560B66
:1038A000C90BD00998F023957E9173957A3308F06F
:1038B00070E37C932013B8F77E9170617D9330F0B4
:1038C000839571E37D9370E32A95E1F71124EF90DE
:1038D000FF900F911F91CF91DF91992787FD9095D0
:1038E0000895FC010590615070400110D8F7809553
:1038F00090958E0F9F1F0895FC01615070400190BC
:103900000110D8F7809590958E0F9F1F08950F9303
:103910001F93CF93DF938C01EB018B8181FD03C05B
:103920000FEF1FEF1AC082FF0DC02E813F818C81E7
:103930009D812817390764F4E881F9810193F9839F
:10394000E88306C0E885F985802F0995892B41F722
:103950008E819F8101969F838E83C801DF91CF91D5
:103960001F910F910895FA01AA27283051F12031B3
:1039700081F1E8946F936E7F6E5F7F4F8F4F9F4F03
:10398000AF4FB1E03ED0B4E03CD0670F781F891F45
:103990009A1FA11D680F791F8A1F911DA11D6A0F13
:1039A000711D811D911DA11D20D009F468943F91C6
:1039B0002AE0269F11243019305D3193DEF6CF01C5
:1039C0000895462F4770405D4193B3E00FD0C9F78B
:1039D000F6CF462F4F70405D4A3318F0495D31FDF8
:1039E0004052419302D0A9F7EACFB4E0A69597954B
:1039F000879577956795BA95C9F700976105710521
:103A000008959B01AC010A2E06945795479537956A
:103A10002795BA95C9F7620F731F841F951FA01DC4
:103A20000895F999FECF92BD81BDF89A992780B586
:103A30000895262FF999FECF1FBA92BD81BD20BDF2
:103A40000FB6F894FA9AF99A0FBE019608950E945B
:103A5000B21AA59F900DB49F900DA49F800D911D4B
:103A600011240895B7FF0C94271D0E94271D821B67
:103A7000930B0895052E97FB16F4009407D057FD7D
:103A80000DD00E94561D07FC09D07EF490958095BC
:103A9000709561957F4F8F4F9F4F0895509540953A
:103AA000309521953F4F4F4F5F4F0895A1E21A2E59
:103AB000AA1BBB1BFD010DC0AA1FBB1FEE1FFF1FD2
:103AC000A217B307E407F50720F0A21BB30BE40B22
:103AD000F50B661F771F881F991F1A9469F7609569
:103AE0007095809590959B01AC01BD01CF01089523
:043AF000F894FFCF78
:103AF4000002060A09081410113F2401A2049F04BD
:103B04009E04AA0100000000000000000000000064
:00000001FF
