:100000000C94B5000C94DB000C94DB000C94DB002A
:100010000C94DB000C94DB000C9445050C94DB0085
:100020000C94DB000C94DB000C94DB000C947D0B37
:100030000C94DB000C94DB000C94E10A0C94DB00C4
:100040000C94DB000C94DB000C94DB000C94DB00C4
:100050000C94DB000C94DB000C94DB000C949F0BE5
:100060000C94DB000C94DB006E616E00696E660020
:1000700000407A10F35A00A0724E18090010A5D45F
:10008000E80000E87648170000E40B54020000CABC
:100090009A3B000000E1F505000080969800000002
:1000A00040420F000000A086010000001027000061
:1000B0000000E803000000006400000000000A00E7
:1000C000000000000100000000002C76D888DC67EA
:1000D0004F0823DFC1DFAE59E1B1B796E5E3E45342
:1000E000C63AE651997696E8E6C28426EB898C9B5F
:1000F00062ED407C6FFCEFBC9C9F40F2BAA56FA5FF
:10010000F490055A2AF75C936B6CF9676DC11BFC80
:10011000E0E40D47FEF520E6B500D0ED902E03009B
:10012000943577050080841E080000204E0A0000E8
:1001300000C80C333333330F986E12831141EF8DA7
:100140002114893BE65516CFFEE6DB18D1844B38E7
:100150001BF77C1D901DA4BBE424203284725E2218
:100160008100C9F124ECA1E53D2711241FBECFEF8A
:10017000D8E0DEBFCDBF14BE88E10FB6F8948093FF
:100180006000109260000FBE11E0A0E0B1E0E8E571
:10019000F7E302C005900D92A631B107D9F711E03F
:1001A000A6E1B1E001C01D92AB38B107E1F70E94B2
:1001B000C7180C94AA1B0C940000CF93DF93E09116
:1001C0000001F091010181E08283EB018881998136
:1001D000AA81BB8183839483A583B683DF91CF916A
:1001E00008952091000130910101295F3F4FC9011D
:1001F0000895CF93DF93C0910001D091010181E078
:10020000888319821A82188A809186018F83CE0191
:1002100007960E94B00D9A8B898B809186019091F0
:100220008701892B29F083E0DF91CF910C94590B42
:1002300080E0DF91CF910C94590BCF93DF93C09165
:100240008901D0918801DD2321F08091B3008823BA
:10025000E1F080E0C11108C0811119C06C2F8D2F11
:10026000DF91CF910C94C9069091B4009111F4CF15
:100270006FEF0E94C9068FE090E00E94BE066C2FCF
:100280008D2FDF91CF910C94C9068FEFE3CF60E003
:10029000F0CFCF93DF93C82FD62F882321F0809102
:1002A000B3008823E1F080E0D11108C0811119C0AA
:1002B0006D2F8C2FDF91CF910C94C9069091B400D3
:1002C0009111F4CF6FEF0E94C9068FE090E00E9479
:1002D000BE066D2F8C2FDF91CF910C94C9068FEF46
:1002E000E3CF60E0F0CFCF93DF93C0910001D091D6
:1002F00001018A81811118C08981882391F0809140
:10030000860190918701892B61F0E0910001F091C5
:1003100001018081811115C081818C3378F181E0E8
:100320008083DF91CF9108951A82CE0103960E94B7
:10033000020889838091860190918701892B29F792
:10034000F0CF813071F78181883248F18C3378F1B8
:10035000C0917601CC2361F08091B400811108C076
:100360006FEF80E00E94C9068FE090E00E94BE0619
:100370006C2F80E0DF91CF910C94C906C091890168
:10038000D0918801D1110DC080E0C11117C0811139
:1003900021C06C2F8D2FDF91CF910C94C906108254
:1003A000C0CF8091B3008111EFCF8FEFEECF60E02F
:1003B00080918A01DF91CF910C9449019091B40012
:1003C0009111E5CF6FEF0E94C9068FE090E00E9487
:1003D000BE06DFCF60E0F7CFCF93DF93813021F10E
:1003E00038F0823091F1833049F0DF91CF91089558
:1003F00060E080E0DF91CF910C94C906C091760156
:10040000CC2361F08091B400811108C06FEF80E0CF
:100410000E94C9068FE090E00E94BE066C2F80E02B
:10042000DF91CF910C94C906C0918901D0918801C8
:10043000D11121C080E0C11124C0811133C06C2FC3
:100440008D2FDF91CF910C94C906C0918A01CC23E6
:1004500061F08091B300811108C060E08FEF0E94CD
:10046000C9068FE090E00E94BE0660E08C2FDF910D
:10047000CF910C94C9068091B3008111DBCF8FEF2F
:10048000DACF9091B4009111D8CF6FEF0E94C906D6
:100490008FE090E00E94BE066C2F8D2FDF91CF91F0
:1004A0000C94C90660E0F2CFCF93E0910001F09187
:1004B00001018181883260F18C33A8F0C09176010E
:1004C000CC2361F08091B400811108C06FEF80E00F
:1004D0000E94C9068FE090E00E94BE066C2F80E06B
:1004E000CF910C94C906C0918A01CC2361F0809110
:1004F000B300811108C060E08FEF0E94C9068FE051
:1005000090E00E94BE0660E08C2FCF910C94C9064B
:100510001082CF910895CF93DF93E0910001F09185
:10052000010181818C3328F081E08083DF91CF91BC
:100530000895C0918901D0918801DD2331F0809127
:10054000B300811102C08FEF01C080E0CC2321F005
:100550009091B400992341F0811113C06C2F8D2F1D
:10056000DF91CF910C94C9066FEF0E94C9068FE00E
:1005700090E00E94BE066C2F8D2FDF91CF910C94DE
:10058000C90660E0F2CFCF93DF93C0910001D09114
:100590000101188A809186018F83CE0107960E94FF
:1005A000B00D9A8B898BDF91CF910895089580E0EB
:1005B00090E008950895CF93F89414B817B81AB836
:1005C00015B818B81BB8529A5A9A14BC85E085BD64
:1005D0008FEF87BD22E020936E0010928000109272
:1005E00081008FE89BE0909389008093880020939E
:1005F0006F005398239881EA8093B0002093B10054
:100600001092B4001092B3008BE080BF83E080931F
:100610007F0086E080937C0083E880937A0080915D
:100620007A00806480937A0080917A0086FDFCCF06
:1006300010927C0083EA80937A0081E080937B00B3
:1006400081E090E00E94431B8F3F11F08093660091
:1006500010925401C1E0C0932D01C093710110921A
:100660004B011092850180E990E00E94431B80932A
:100670004A0180914A01887311F0C0934A01109297
:100680007501109274018FEF90E090937301809345
:100690007201109250011092510110925201109269
:1006A000530181E08093180182E49FE090938401DC
:1006B0008093830180EB90E00E94431BC82F81EB65
:1006C00090E00E94431B382F20E02C2B30938701B1
:1006D0002093860185E090E00E94431B80938A016D
:1006E00089E090E00E94431B809376018CE090E0CB
:1006F0000E94431B8093880184E190E00E94431B89
:100700008093890180E290E00E94431BC82F81E220
:1007100090E00E94431B3C2F20E0282B3093560191
:100720002093550180E590E00E94431BC82F81E58E
:1007300090E00E94431B3C2F20E0282B30932F0198
:1007400020932E0182E290E00E94431BC82F83E297
:1007500090E00E94431B3C2F20E0282B309358014F
:100760002093570182E590E00E94431BC82F83E548
:1007700090E00E94431B3C2F20E0282B3093310156
:100780002093300184E290E00E94431BC82F85E251
:1007900090E00E94431B3C2F20E0282B30935A010D
:1007A0002093590184E590E00E94431BC82F85E502
:1007B00090E00E94431B3C2F20E0282B3093330114
:1007C0002093320186E290E00E94431BC82F87E20B
:1007D00090E00E94431B3C2F20E0282B30935C01CB
:1007E00020935B0186E590E00E94431BC82F87E5BC
:1007F00090E00E94431B3C2F20E0282B30933501D2
:100800002093340188E290E00E94431BC82F89E2C4
:1008100090E00E94431B3C2F20E0282B30935E0188
:1008200020935D0188E590E00E94431BC82F89E575
:1008300090E00E94431B3C2F20E0282B309337018F
:10084000209336018AE290E00E94431BC82F8BE27E
:1008500090E00E94431B3C2F20E0282B3093600146
:1008600020935F018AE590E00E94431BC82F8BE52F
:1008700090E00E94431B3C2F20E0282B309339014D
:10088000209338018CE290E00E94431BC82F8DE238
:1008900090E00E94431B3C2F20E0282B3093620104
:1008A000209361018CE590E00E94431BC82F8DE5E9
:1008B00090E00E94431B3C2F20E0282B30933B010B
:1008C00020933A018EE290E00E94431BC82F8FE2F2
:1008D00090E00E94431B3C2F20E0282B30936401C2
:1008E000209363018EE590E00E94431BC82F8FE5A3
:1008F00090E00E94431B3C2F20E0282B30933D01C9
:1009000020933C0180E390E00E94431BC82F81E3C9
:1009100090E00E94431B3C2F20E0282B309366017F
:100920002093650180E690E00E94431BC82F81E67A
:1009300090E00E94431B3C2F20E0282B30933F0186
:1009400020933E0182E390E00E94431BC82F83E383
:1009500090E00E94431B3C2F20E0282B309368013D
:100960002093670182E690E00E94431BC82F83E634
:1009700090E00E94431B3C2F20E0282B3093410144
:100980002093400184E390E00E94431BC82F85E33D
:1009900090E00E94431B3C2F20E0282B30936A01FB
:1009A0002093690184E690E00E94431BC82F85E6EE
:1009B00090E00E94431B3C2F20E0282B3093430102
:1009C0002093420186E390E00E94431BC82F87E3F7
:1009D00090E00E94431B3C2F20E0282B30936C01B9
:1009E00020936B0186E690E00E94431BC82F87E6A8
:1009F00090E00E94431B3C2F20E0282B30934501C0
:100A00002093440188E390E00E94431BC82F89E3B0
:100A100090E00E94431B3C2F20E0282B30936E0176
:100A200020936D0188E690E00E94431BC82F89E661
:100A300090E00E94431B3C2F20E0282B309347017D
:100A4000209346018AE390E00E94431BC82F8BE36A
:100A500090E00E94431B3C2F20E0282B3093700134
:100A600020936F018AE690E00E94431BC82F8BE61B
:100A700090E00E94431B3C2F20E0282B309349013B
:100A8000209348017894CF9108951F920F920FB64A
:100A90000F9211248F9388E10FB6F8948093600031
:100AA000109260000FBE8F910F900FBE0F901F909D
:100AB00018957C01EB01D12C88248A9486E0982E2D
:100AC00093E8A92E08E110E029E2B22E34E0C32E0B
:100AD000809118018330B9F1843008F03EC0813034
:100AE00009F4BEC008F44BC080915401811100C1CB
:100AF000F89490927C00A0927A0080917A008064B1
:100B000080937A0080917A0086FDFCCF2091780056
:100B10003091790078942B3A92E039070CF002C1B9
:100B20002938E2E03E070CF004C1273632400CF4CD
:100B3000DFC0559A549A3B9A3A9A3D983C988091D6
:100B40001801833049F6DD2009F4D9C0C09218019C
:100B5000DD24D394FE010995BBCF853009F462C032
:100B6000C8F3863009F0B4CF80911601811194C08A
:100B70001092B3001092B40010921701A9CFF8940C
:100B800080B7877F80BF80917A008F7780937A00CB
:100B900014B817B81AB815B818B81BB80FB6F89427
:100BA000A895009360000FBEB09260008091600035
:100BB00080648093600083B7817F846083BFF894F2
:100BC00083B7816083BF7894889583B78E7F83BF16
:100BD000789410925401529A5A9A80917A008068BF
:100BE00080937A0087E592E00197F1F700C000005A
:100BF00080B7886180BF559A549A3B9A3A9A3D9A39
:100C00003C9AEFE1FEE43197F1F700C000008091DB
:100C10005401811177C0559854983B983A983D9863
:100C20003C9856CF4899F7CF559A54983B983A98A4
:100C30003D983C988FEC97E00197F1F700C00000D9
:100C4000559854983B983A983D983C989FEFE1EE20
:100C5000F4E09150E040F040E1F700C0000038CFF0
:100C6000559854983B9A3A9A3D983C98EFECF7E0A7
:100C70003197F1F700C00000559854983B983A9886
:100C80003D983C98FFEF21EE84E0F15020408040F9
:100C9000E1F700C000001CCF909116018091170170
:100CA000981709F415CF8091160180931701809150
:100CB0001601813009F444C0809116011092B300EE
:100CC0008092B400823009F44CC08092B3008092CC
:100CD000B4008FE295E70197F1F700C00000809122
:100CE0008901909188019093B3008093B400F0CE75
:100CF000559A549A3B983A983D983C98E9CEF7011A
:100D0000099524CF559A549A3B983A983D983C9827
:100D1000FFEF20E782E0F15020408040E1F700C083
:100D2000000079CF559854983B9A3A9A3D983C9850
:100D3000CFCE559854983B983A983D9A3C9AC8CE55
:100D40008092B3001092B4008FE295E70197F1F71B
:100D500000C0000080918A018093B3001092B4001B
:100D6000B7CEEFE2F5E73197F1F700C000008091D0
:100D700076011092B3008093B400AACE07C0EFECC6
:100D8000F7E03197F1F700C0000001970097B9F73D
:100D900008958093B3006093B40008958FEF80931B
:100DA000B3008093B4008FEC97E00197F1F700C097
:100DB00000008FEC97E00197F1F700C000008FEC86
:100DC00097E00197F1F700C000008FEC97E00197E2
:100DD000F1F700C000008FEC97E00197F1F700C039
:100DE00000008FEC97E00197F1F700C000008FEC56
:100DF00097E00197F1F700C000008FEC97E00197B2
:100E0000F1F700C000008FEC97E00197F1F700C008
:100E100000008FEC97E00197F1F700C000008FEC25
:100E200097E00197F1F700C000008FEC97E0019781
:100E3000F1F700C000008FEC97E00197F1F700C0D8
:100E400000008FEC97E00197F1F700C000008FECF5
:100E500097E00197F1F700C00000089580915401D8
:100E600081111FC0F89487E080937C0083E8809311
:100E70007A0080917A00806480937A0080917A0071
:100E800086FDFCCF209178003091790010927C0093
:100E900083EA80937A0081E080937B007894C90193
:100EA00008952FEF3FEFFBCF8091540181111FC0B8
:100EB000F89488EC80937C0087E880937A00809196
:100EC0007A00806480937A0080917A0086FDFCCF5E
:100ED000209178003091790010927C0083EA809311
:100EE0007A0081E080937B007894C90108952FEF08
:100EF0003FEFFBCF1F93CF93DF9360E070E080E084
:100F000013EAD1E0C6E0B3E8E1E0F0E040E850E009
:100F1000F894C0937C00B0937A0090917A0090642A
:100F200090937A0090917A0096FDFCCF2091780002
:100F300030917900A22FA17090917A0090649093E3
:100F40007A0090917A0096FDFCCF20917800309144
:100F5000790010927C0010937A00D0937B007894F3
:100F600021703327A21303C04150510989F6AA23E7
:100F700039F09F01062E01C0220F0A94EAF7822B56
:100F80006F5F7F4F6830710509F0C0CFDF91CF915F
:100F90001F91089580910801982F990F990F990F2B
:100FA000982720911901822F8695869589279295F9
:100FB000969597708927809308012F5F20931901D8
:100FC000089580930801089580915401811117C0FC
:100FD000F89486E080937C0083E880937A00809187
:100FE0007A00806480937A0080917A0086FDFCCF3D
:100FF00020917800309179007894C90108952FEFFD
:101000003FEFFBCF2F923F924F925F926F927F9272
:101010008F929F92AF92BF92CF92DF92EF92FF9208
:101020000F931F93CF93DF9300D000D000D0CDB7A4
:10103000DEB75C01FC010280F381E02DFE83ED83CD
:10104000E43823E0F2070CF0D8C080912E01909193
:101050002F018E179F0708F4B4C100913001109141
:1010600031010E171F0708F440C2009132011091A0
:1010700033010E171F0708F441C20091340110918B
:1010800035010E171F0708F442C200913601109176
:1010900037010E171F0708F443C200913801109161
:1010A00039010E171F0708F496C100913A011091FB
:1010B0003B010E171F0708F43CC200913C01109140
:1010C0003D010E171F0708F43DC200913E0110912B
:1010D0003F010E171F0708F43EC200914001109116
:1010E00041010E171F0708F43FC200914201109101
:1010F00043010E171F0708F440C2009144011091EC
:1011000045010E171F0708F446C2009146011091D1
:1011100047010E171F0708F447C2009148011091BC
:1011200049010E171F0708F448C219821A8280ED80
:101130008B8390E49C835CE0E52EF12CF701EE0FAD
:10114000FF1FE25DFE4F80819181B801681B790B22
:1011500080E090E00E9433139B01AC010E94751067
:101160003B014C01ED81FE81BF01882777FD809511
:10117000982F0E9488126B017C01B80180E090E0FA
:101180000E9433131B012C0179816A819B818C8120
:10119000272F362F492F582F662D772D882D992DE3
:1011A0000E94D1109B01AC01C201B1010E94A110AB
:1011B0009B01AC01C701B6010E94A11020E030E004
:1011C00040E251E40E94D1100E94E4128B01662D8E
:1011D000772D882D992D0E94E412AB01BC01C80126
:1011E000BA010E94F018882777FD8095982F0E94F9
:1011F00088120E94EC0E062FE5C00FEFF5018080EB
:10120000918080915501909156018815990508F4B7
:101210006EC0E0905701F0905801E814F90408F40A
:1012200068C1E0905901F0905A01E814F90408F4FB
:1012300069C1E0905B01F0905C01E814F90408F4E6
:101240006AC1E0905D01F0905E01E814F90408F4D1
:101250006BC1E0905F01F0906001E814F90408F4BC
:10126000D6C0E0906101F0906201E814F90408F43E
:1012700064C1E0906301F0906401E814F90408F49B
:1012800065C1E0906501F0906601E814F90408F486
:1012900066C1E0906701F0906801E814F90408F471
:1012A00067C1E0906901F0906A01E814F90408F45C
:1012B00068C1E0906B01F0906C01E814F90408F447
:1012C00065C1E0906D01F0906E01E814F90408F436
:1012D00066C1E0906F01F0907001E814F90408F421
:1012E00067C11AE50F3F31F4812F8F5D51C010E0C7
:1012F0000F3FD1F32D813E81B901882777FD80957D
:10130000982F0E9488126B017C01602F70E080E0B2
:1013100090E00E9433134B015C01A701960160E04D
:1013200070E081E694E40E94A1109B01AC01C5012C
:10133000B4010E94D1104B015C01612F70E080E08C
:1013400090E00E9433132B013C0120E030E04FE29B
:1013500054E4C701B6010E94A1109B01AC01C30176
:10136000B2010E94D1109B01AC01C501B4010E94E1
:10137000751020E030E048E453E40E94B61120E00C
:1013800030E044E052E40E9475100E94EC0E862F7B
:1013900026960FB6F894DEBF0FBECDBFDF91CF917A
:1013A0001F910F91FF90EF90DF90CF90BF90AF9083
:1013B0009F908F907F906F905F904F903F902F9075
:1013C000089500E02D813E812D3B32400CF016CF78
:1013D000802F8F5DDDCF65E085E090E07C0131E01E
:1013E000E31AF10870E080E090E00E94331320E0FF
:1013F00030E040E05FE30E94D11020E030E0A9013E
:101400000E94751069837A838B839C8397CE85E0D5
:10141000382EE5E0F0E0EE0FFF1FED5AFE4F808121
:101420009181B701681B790B80E090E00E94331333
:101430009B01AC010E947510262EC72ED82E192FA5
:10144000B401882777FD8095982F0E9488122B0180
:101450003C01B70180E090E00E9433134B015C0136
:10146000632D70E080E090E00E94331320E030E0D4
:1014700040E05FE30E94D11020E030E0A9010E942B
:101480007510222D3C2D4D2D512F0E94D1109B0106
:10149000AC01C501B4010E94A1109B01AC01C301C4
:1014A000B2010E94A11020E030E040E251E40E942D
:1014B000D1100E94E4127B01622D7C2D8D2D912F85
:1014C0000E94E412AB01BC01C701BA010E94F018EE
:1014D000882777FD8095982F0E9488120E94EC0E35
:1014E000162F6F3F09F004CF73CF61E081E090E0E9
:1014F00075CF33243394E1E0F0E08DCF62E082E0F9
:1015000090E06CCF32E0332EE2E0F0E084CF63E095
:1015100083E090E063CF23E0322EE3E0F0E07BCF86
:1015200064E084E090E05ACF94E0392EE4E0F0E00B
:1015300072CF66E086E090E051CF16E0312EE6E013
:10154000F0E069CF67E087E090E048CFB7E03B2E5E
:10155000E7E0F0E060CF68E088E090E03FCFA8E00F
:101560003A2EE8E0F0E057CF69E089E090E036CF2E
:10157000F9E03F2EE9E0F0E04ECF6AE08AE090E04B
:101580002DCFEAE03E2EEAE0F0E045CF7BE0372EBB
:10159000EBE0F0E040CF6BE08BE090E01FCF6CE041
:1015A000362EECE0F0E037CF6CE08CE090E016CF28
:1015B0005DE0352EEDE0F0E02ECF6DE08DE090E0C7
:1015C0000DCF1F920F920FB60F9211242F933F93BE
:1015D0004F935F936F937F938F939F93AF93BF933B
:1015E000EF93FF9320917401309175018091720106
:1015F00090917301280F391F309375012093740166
:101600008FEF90E090937301809372018FEF87BD0D
:101610008091500190915101A0915201B0915301DC
:101620000196A11DB11D8093500190935101A0938B
:101630005201B09353018091540181110BC08091EC
:101640008301909184018217930720F480911801FF
:10165000843089F0FF91EF91BF91AF919F918F916D
:101660007F916F915F914F913F912F910F900FBE9E
:101670000F901F901895E0910401F09105010995D4
:10168000009741F30E94690E811109C00E94BB19A5
:101690009927909373018093720187BDDBCFE0910E
:1016A0000201F091030109951092750110927401E5
:1016B000D1CF80FF11C0559A81FF11C0549A82FF8B
:1016C00011C03B9A83FF11C03A9A84FF11C03D9A22
:1016D00085FD11C03C980895559881FDEFCF549831
:1016E00082FDEFCF3B9883FDEFCF3A9884FDEFCF9B
:1016F0003D9885FFEFCF3C9A08951F920F920FB649
:101700000F9211248F939F93109281001092850065
:101710001092840081E080932D01809371011092DA
:10172000540110927C0093EA90937A0080937B009E
:101730009F918F910F900FBE0F901F9018951F9241
:101740000F920FB60F9211242F933F934F935F93F5
:101750006F937F938F939F93AF93BF93CF93DF93B9
:10176000EF93FF93209184003091850041E04093F6
:10177000540180912D018823A9F1109285001092C7
:101780008400409381001092850110922D01809178
:1017900071018823A1F080917A0086FDFCCF8091B1
:1017A00078009091790090934F0180934E0181E0F1
:1017B00080937C0093EA90937A0080937B00FF9162
:1017C000EF91DF91CF91BF91AF919F918F917F91D9
:1017D0006F915F914F913F912F910F900FBE0F909E
:1017E0001F901895C901875891098437994008F0CE
:1017F00057C026583109A4EFB0E00E94E4188830A1
:1018000008F485C040932D018091710181115CC065
:1018100080914B01E82FF0E0E958FE4F909185014F
:1018200090838F5F80934B018C3049F6109281003A
:10183000109285001092840040937101109254011F
:10184000C0918101D091820187E791E00E94B00DA3
:10185000C817D90709F0B3CF8091800187FF68C00E
:10186000982F9858933030F0539823981092B400E2
:101870001092B300863809F4BFC008F063C0833803
:1018800009F41BC108F010C1803809F098CF80918D
:101890006E008D7F80936E0016BCE0E0F0E7099546
:1018A00010928100109285001092840040932D01C7
:1018B000409371011092540110927C0083EA80934E
:1018C0007A0040937B007BCF80917A0086FDFCCF2D
:1018D000809178009091790090934D0180934C0114
:1018E00010927C0083EA80937A0081E080937B00F1
:1018F000909185019923B9F0109281001092850092
:1019000010928400809371011092540158CF21E00D
:1019100030E001C0220F8A95EAF780918501822B81
:10192000809385014CCF1092710110924B0147CFEB
:10193000E0910601F09107016CE471E087E791E026
:1019400009953DCF883809F4BBC008F4A9C089388F
:1019500009F47BC08A3809F032CF80917701823058
:1019600009F4C9C008F059C081114AC0809118011A
:10197000863009F024CF6091860180EB90E00E94D0
:101980004B1B6091870181EB90E00E944B1B6091A3
:101990008A0185E090E00E944B1B6091760189E00E
:1019A00090E00E944B1B609188018CE090E00E94C7
:1019B0004B1B6091890184E190E00E944B1B53987E
:1019C00023981092B4001092B30081E08093180124
:1019D00080917701882309F4F2CE80911801863036
:1019E00009F4EDCE539A239A1092B4001092B300EA
:1019F00086E080931801E3CE85E080931801DFCE66
:101A0000813041F78091780190917901909387011D
:101A10008093860110921601E0CF833009F484C0D0
:101A20008430C1F68091160190917D01833009F4D4
:101A300070C080917C011092170123E02093160161
:101A40008093880190938901C8CF809118018630D6
:101A500099F0539A239A1092B4001092B3005598BB
:101A600054983B983A983D983C98109216011092E1
:101A7000170186E08093180181E090E000907701E3
:101A800002C0880F991F0A94E2F7209186013091D5
:101A9000870182239323892B51F5109216018FCE53
:101AA00082E0809318018BCE8438F1F0853809F0FC
:101AB00086CE81E08093180182CEE0E0F0E00995C7
:101AC00080911801833009F47ACE80911801843016
:101AD00009F475CE539A239A1092B4001092B30071
:101AE00083E0809318016BCE1092180168CE81E0DC
:101AF0008093160164CE80911601813019F1809196
:101B00007A011092170191E09093160180938A0157
:101B100064CF8091890198138CCF80917C012091B2
:101B20008801821388CF59CF80911601823089F0C5
:101B300080917B011092170192E09093160180939F
:101B400076014BCF80917A0190918A018913D9CF88
:101B500044CF80917B01909176018913EBCF3DCFEB
:101B6000FC0180812FEF3FEF2827022E2295207F56
:101B70002025032E322F22952F70022626953227FC
:101B80002327220F220F220F202581812827022EB2
:101B90002295207F2025032E322F22952F7002269A
:101BA000269532272327220F220F220F20258281FC
:101BB0002827022E2295207F2025032E322F2295C2
:101BC0002F700226269532272327220F220F220F5D
:101BD000202583812827022E2295207F2025032E71
:101BE000322F22952F700226269532272327220F87
:101BF000220F220F202584812827022E2295207F64
:101C00002025032E322F22952F700226269532276B
:101C10002327220F220F220F202585812827022E1D
:101C20002295207F2025032E322F22952F70022609
:101C3000269532272327220F220F220F2025868167
:101C40002827022E2295207F2025032E322F229531
:101C50002F700226269532272327220F220F220FCC
:101C6000202587812827022E2295207F2025032EDC
:101C7000322F22952F700226269532272327220FF6
:101C8000220F220F202580852827022E2295207FD3
:101C90002025032E322F22952F70022626953227DB
:101CA0002327220F220F220F202581852827022E8D
:101CB0002295207F2025032E322F22952F70022679
:101CC000269532272327220F220F220F2025C90114
:101CD00008950FB6F894A4B120914A012A2B24B993
:101CE00021E030914A01203029F0000025B1232B5A
:101CF00025B904C000000000000000C00000000082
:101D00000000309525B1232325B92EEA2A95F1F755
:101D10002BEE30B735FF0AC0A4B930914A01309597
:101D200025B1232325B90FBE80E0089500002A9530
:101D300081F721E030914A01203029F0000025B1DF
:101D4000232B25B904C000000000000000C00000E3
:101D500000000000309525B1232325B9000024E5BB
:101D60002A95F1F7FC018CE0619170E0660F771F16
:101D7000616072609AE041E050E09A0126233723C7
:101D8000232B30914A01203029F0000025B1232B6C
:101D900025B904C000000000000000C000000000E1
:101DA0000000309525B1232325B9000021E52A95AF
:101DB000F1F7440F551F9A9501F78A95A9F620B7B8
:101DC000206120BFA4B930914A01309525B1232369
:101DD00025B90FBE81E00895CF92DF92EF92FF9276
:101DE0000F931F936B017C0120E030E040E05FE443
:101DF0000E94591287FD0EC020E030E040E05FE411
:101E0000C701B6010E94A1100E94E4128B019C013F
:101E1000305806C0C701B6010E94E4128B019C0134
:101E2000B801C9011F910F91FF90EF90DF90CF9003
:101E30000895A4E0B0E0EFE1FFE00C9406197C0106
:101E40006A01FC018081823008F44AC1FB01908163
:101E5000923008F442C1843079F4943009F040C1E2
:101E6000F7019181FB018181981709F439C1ADE037
:101E7000EA2EA1E0FA2E34C1943009F42EC192303A
:101E800091F4823009F02CC188E0F701DA01019069
:101E90000D928A95E1F7FB018181F70191818923F8
:101EA000FA0181831CC1823009F417C1F7018281D4
:101EB0009381FB01A281B381F70104811581268101
:101EC0003781FB0184809580A680B780FC01EA1BE6
:101ED000FB0BAF01F7FF04C0442755274E1B5F0BD8
:101EE000403251050CF074C01E161F06B4F52401D3
:101EF0003501042E04C076946794579447940A944D
:101F0000D2F749825A826B827C82412C512C320159
:101F1000439404C0440C551C661C771C4A95D2F7A8
:101F200041E0441A510861087108482059206A208C
:101F30007B20812C912C54018394452846284728E6
:101F400019F4812C912C540149805A806B807C803B
:101F500084289528A628B72846C0EF2B09F443C04B
:101F6000840F951F28013901042E04C076946794CC
:101F7000579447940A94D2F749825A826B827C82A2
:101F8000412C512C3201439404C0440C551C661C56
:101F9000771C4A95D2F741E0441A5108610871084C
:101FA000402251226222732201E010E020E030E062
:101FB00045284628472819F400E010E09801498098
:101FC0005A806B807C8004291529262937290BC06B
:101FD000A817B90724F4812C912C540104C0CD0119
:101FE00000E010E09801F7014181FB0151814517A4
:101FF00009F446C0442349F024013501401A510A2E
:10200000620A730A9301820104C0081919092A0996
:102010003B0937FD05C0F6011182938382830CC012
:1020200041E0F6014183938382833095209510959A
:1020300001951F4F2F4F3F4F04831583268337830E
:102040000EC0880F991FAA1FBB1FF60184839583BA
:10205000A683B78382819381019793838283F6015C
:1020600084819581A681B781AC01BD0141505109A0
:10207000610971094F3F5F4F6F4F7F4310F30CC0F1
:10208000F601418393838283080D191D2A1D3B1D90
:10209000048315832683378383E0F601808344819C
:1020A00055816681778177FF1AC0DB01CA01817093
:1020B0009927AA27BB277695679557954795842B2F
:1020C000952BA62BB72B84839583A683B783828118
:1020D000938101969383828302C07B0101C07601C4
:1020E000C7012496E0E10C942219A0E2B0E0EBE7EE
:1020F000F0E10C9414196D8F7E8F8F8F98A3298F28
:102100003A8F4B8F5C8FBE016F5E7F4FCE014D9635
:102110000E947314BE01675F7F4FCE0149960E94F3
:102120007314AE014F5F5F4FBE01675F7F4FCE01FB
:1021300041960E94190F0E94A913A096E2E00C9408
:102140003019A0E2B0E0E7EAF0E10C9414196D8FC9
:102150007E8F8F8F98A3298F3A8F4B8F5C8FBE0114
:102160006F5E7F4FCE014D960E947314BE01675F74
:102170007F4FCE0149960E9473148A8591E089278A
:102180008A87AE014F5F5F4FBE01675F7F4FCE0111
:1021900041960E94190F0E94A913A096E2E00C94A8
:1021A0003019A0E2B0E0E7EDF0E10C9406196D8F74
:1021B0007E8F8F8F98A3298F3A8F4B8F5C8FBE01B4
:1021C0006F5E7F4FCE014D960E947314BE01675F14
:1021D0007F4FCE0149960E9473149989923008F47A
:1021E00012C08985823008F41AC0943021F48230FC
:1021F00009F4B4C008C0843021F4923009F4AEC0B0
:102200000EC0923051F481E02A899A85291301C0C9
:1022100080E08A8BCE014196A3C0823051F481E0E8
:102220002A899A85291301C080E08A87CE01099600
:1022300097C08D889E88AF88B88C0D851E852F85A8
:102240003889E0E2F0E080E090E0DC01C12CD12CA4
:10225000760140E050E0BA0180FE18C0400F511FE7
:10226000621F731F8C0D9D1DAE1DBF1D412C512C77
:1022700032014394401751076207730718F0412C4D
:10228000512C3201840D951DA61DB71DCC0CDD1CF3
:10229000EE1CFF1C37FF02C06894C0F8000F111F2E
:1022A000221F331FB694A794979487943197A1F671
:1022B0002B893C89EB85FC852E0F3F1F2E5F3F4FFE
:1022C0003C832B8321E0EA893A85E31301C020E0B7
:1022D0002A83EB81FC810CC080FF05C07695679551
:1022E000579547957068B695A795979587953196B8
:1022F000B7FDF2CF9F010CC0880F991FAA1FBB1F0B
:1023000077FD8160440F551F661F771F21503109EB
:102310000097A105E0E4BE0778F32B833C838C0192
:102320009D010F771127222733270034110521053E
:10233000310559F487FD09C0452B462B472B29F061
:10234000805C9F4FAF4FBF4F80788D839E83AF835C
:10235000B88783E08983CE01019602C08DE091E0C9
:102360000E94A913A096E0E10C942219A8E1B0E024
:10237000ECEBF1E10C940E196D8B7E8B8F8B988FAB
:10238000298B3A8B4B8B5C8BBE01675F7F4FCE01F5
:1023900045960E947314BE016F5F7F4FCE01419638
:1023A0000E9473149985923008F475C08981823037
:1023B00008F474C02A853A8123272A87943011F0C3
:1023C000923019F4981367C06CC0843039F41D86BC
:1023D0001E861F86188A1C861B8604C0823029F43C
:1023E00084E08987CE0109965EC08B859C852B8110
:1023F0003C81821B930B9C878B874D855E856F8507
:102400007889CD80DE80EF80F8844C155D056E05FF
:102410007F0538F4440F551F661F771F01979C876F
:102420008B87EFE1F0E000E010E020E030E480E0B6
:1024300090E0DC014C155D056E057F0540F0802BBA
:10244000912BA22BB32B4C195D096E097F09369590
:10245000279517950795440F551F661F771F3197CE
:1024600049F78C019D010F7711272227332700346C
:1024700011052105310559F487FD09C0452B462B6F
:10248000472B29F0805C9F4FAF4FBF4F80788D87DF
:102490009E87AF87B88BCE01099605C0CE01019605
:1024A00002C08DE091E00E94A9136896E8E00C94C8
:1024B0002A19A8E1B0E0EFE5F2E10C9414196D8B54
:1024C0007E8B8F8B988F298B3A8B4B8B5C8BBE01CD
:1024D000675F7F4FCE0145960E947314BE016F5F08
:1024E0007F4FCE0141960E9473148985823058F047
:1024F0008981823040F0BE016F5F7F4FCE01099627
:102500000E94E21401C08FEF6896E2E00C9430194B
:10251000A8E0B0E0EEE8F2E10C94121923E0298380
:102520008B019C01002737FD0395112722273327B4
:10253000402F0A83611571058105910519F482E028
:10254000898335C02EE130E03C832B83442371F036
:1025500061157105810520E8920771F100271127A7
:102560009801061B170B280B390B02C08B019C012D
:10257000C901B8010E944F190197181619062CF0CD
:102580000D831E832F83388712C0082E04C0000FCE
:10259000111F221F331F0A94D2F70D831E832F832E
:1025A00038872EE130E0281B390B3C832B83CE018A
:1025B00001960E94A91304C060E070E080E09FECE7
:1025C0002896E4E00C942E19ACE0B0E0EAEEF2E1DB
:1025D0000C94121969877A878B879C87BE016F5F7D
:1025E0007F4FCE0109960E9473148981823091F148
:1025F000823080F1843041F48A81882331F100E017
:1026000010E020E030E829C02B813C8137FD22C05A
:102610002F3131058CF78EE190E0821B930B0D81F9
:102620001E812F81388504C036952795179507950B
:102630008A95D2F78A81882381F03095209510956C
:1026400001951F4F2F4F3F4F08C00FEF1FEF2FEF88
:102650003FE703C000E010E09801B801C9012C96E3
:10266000E4E00C942E19A8E0B0E0E9E3F3E10C9467
:102670000E198B019C011A82611571058105910566
:1026800019F482E089835DC083E089834EE150E0E4
:102690005C834B83C901B8010E944F19019797FFD2
:1026A00039C0EE27FF27E81BF90B41E050E060E05E
:1026B00070E00E2E04C0440F551F661F771F0A944A
:1026C000D2F7415051096109710940235123622316
:1026D0007323C12CD12C7601C394452B462B472B59
:1026E00019F4C12CD12C760104C036952795179585
:1026F0000795EA95D2F70C291D292E293F290D832C
:102700001E832F8338872EE130E0281B390B3C8352
:102710002B8317C0009729F40D831E832F833887DE
:1027200010C0082E04C0000F111F221F331F0A946F
:10273000D2F70D831E832F833887481B590B5C8388
:102740004B83CE0101960E94A9132896E8E00C94D1
:102750002A190F931F93CF93DF93DC0114964D91A9
:102760005D916D917C9117971196EC9111978C91D9
:10277000823020F460618FEF90E0A6C0843009F4CD
:102780009EC0823009F495C041155105610571055F
:1027900009F492C012962D913C91139722388FEF35
:1027A00038070CF058C0C2E8DFEFC21BD30BCA31A8
:1027B000D1056CF58A019B010C2E04C03695279536
:1027C000179507950A94D2F781E090E0A0E0B0E079
:1027D0000C2E04C0880F991FAA1FBB1F0A94D2F7A2
:1027E0000197A109B10984239523A623B72341E0CA
:1027F00050E060E070E0892B8A2B8B2B19F440E0CD
:1028000050E0BA01402B512B622B732B03C040E0E8
:1028100050E0BA01DB01CA018F779927AA27BB27AD
:1028200080349105A105B10539F447FF09C0405C2A
:102830005F4F6F4F7F4F04C0415C5F4F6F4F7F4FC3
:1028400081E090E041155105610520E4720748F5EB
:1028500080E090E026C0203831058CF5DB01CA010C
:102860008F779927AA27BB2780349105A105B10549
:1028700039F447FF09C0405C5F4F6F4F7F4F04C082
:10288000415C5F4F6F4F7F4F77FD04C0C901815896
:102890009F4F07C07695679557954795C901805812
:1028A0009F4F97E076956795579547959A95D1F7FD
:1028B0000BC080E090E005C080E090E005C08FEFA5
:1028C00090E040E050E0BA01982F9695E0FB97F930
:1028D000362F80FB37F9642F752F832FDF91CF912F
:1028E0001F910F910895CF92DF92EF92DC01FB01CF
:1028F000CC901196DC90119712968C9112973FE72D
:10290000E32EE8226E2DA60170E0982F991F9927DB
:10291000991F13962C91822F880F892B90E027FB0B
:10292000222720F92183009729F5411551056105DA
:10293000710511F482E027C082E89FEF93838283C0
:1029400027E0440F551F661F771F2A95D1F783E0B4
:10295000808309C0440F551F661F771F82819381B2
:1029600001979383828341155105610580E47807BF
:1029700088F320C08F3F910579F441155105610519
:10298000710519F484E0808319C0E4FE03C081E07E
:10299000808310C010820EC08F5791099383828369
:1029A00083E0808387E0440F551F661F771F8A9559
:1029B000D1F770644483558366837783EF90DF900B
:1029C000CF900895CF93FC01DB019081923008F401
:1029D00052C08C91823008F44EC0943071F484302F
:1029E00039F411962C9130E08181281B310948C0BF
:1029F0008181882309F43FC03BC0843029F41196BB
:102A00008C91811138C034C0923019F48230B9F7FA
:102A100035C0823069F3C18111968C911197C8132A
:102A20001DC02281338112968D919C91139782173C
:102A300093070CF413C0281739070CF417C044810E
:102A400055816681778114968D919D910D90BC91F1
:102A5000A02D84179507A607B70718F4C11108C061
:102A60000AC0481759076A077B0740F4C11103C021
:102A70002FEF3FEF05C021E030E002C020E030E062
:102A8000C901CF910895A3E1B0E0E9E4F5E10C9428
:102A900004197C015B018A01FC0117821682838183
:102AA00081FD03C06DC3860105C088248394912CE9
:102AB0008C0E9D1EF7019381F50193FD859193FF87
:102AC00081915F01882309F457C3853239F493FD5E
:102AD000859193FF81915F01853231F4B70190E0D8
:102AE0000E94B91A6801DFCF412C512C20E020321E
:102AF000A8F48B3261F028F4803251F0833271F403
:102B00000BC08D3239F0803349F4216028C0226037
:102B1000246025C0286023C0206121C027FD27C074
:102B2000382F30533A3078F426FF06C0FAE04F9E33
:102B3000300D1124432E13C08AE0589E300D11240D
:102B4000532E20620CC08E3221F426FD15C3206462
:102B500006C08C3611F4206802C0883641F4F501B5
:102B600093FD859193FF81915F018111C0CF982FD3
:102B70009554933018F42061805E06C0982F9556C6
:102B8000933008F0A1C12F7E26FD02C056E0452EED
:102B90004FE3742E7222853619F4F0E47F2A07C0C1
:102BA000863619F420E8722A02C041104A9477FE52
:102BB00007C03BE3341548F0342C339427E00DC0B4
:102BC00087E0841530F0242D07C027E03CE3332E46
:102BD00004C027E097E0492E312C680194E0C90E2B
:102BE000D11CF8016081718182819381032DA40140
:102BF0000E94CB198C0129812C8720FF02C023FF62
:102C000007C071FC08C072FE09C080E2682E07C0D0
:102C1000BDE26B2E04C0ABE26A2E01C0612C8C8534
:102C20008C70A1F1662011F084E001C083E085156D
:102C300010F0512C0BC0581A73FC08C0B70180E289
:102C400090E00E94B91A5A94C9F7F3CF662029F090
:102C5000B701862D90E00E94B91A3C8533FD03C070
:102C60000CE610E00CC008E610E009C071108052BC
:102C7000B70190E00E94B91A0F5F1F4F02C080E1B8
:102C80007822F80184918111F1CF73C277FE0EC0D2
:102C9000300E2C8524FF04C08A81813309F43A94D4
:102CA00013144CF538E0331548F12CC076FC2AC0DB
:102CB000242D30E02017310744F00C3F8FEF180728
:102CC00024F090E8792A01C04A94442049F0E2E0D7
:102CD000F0E0EC0FFD1FE40DF11D80818033A1F3C6
:102CE00077FE10C0342C3394242D30E002171307E4
:102CF00044F4401A07C03324339404C0F8E03F2E54
:102D000001C0412C77FE07C0101611063CF4980153
:102D10002F5F3F4F05C025E030E002C021E030E0EA
:102D2000662011F02F5F3F4F442031F0442D50E0DA
:102D30004F5F5F4F240F351F452D50E02417350797
:102D400014F4521A01C0512C872D897049F406C021
:102D5000B70180E290E00E94B91A5A945110F8CF5E
:102D6000662029F0B701862D90E00E94B91A73FC05
:102D700009C006C0B70180E390E00E94B91A5A94D6
:102D80005110F8CF77FE53C0380117FF02C0612CF5
:102D9000712C1E861D86980123193109388B2F87C7
:102DA000180126183708280C391C642D70E02227DA
:102DB0003327261B370B3A8B298B3FEF631673069D
:102DC00029F4B7018EE290E00E94B91A06151705A2
:102DD0005CF02F8538892615370534F4ED85FE859E
:102DE000E20DF31D818101C080E331E0631A7108B7
:102DF0002D853E852F5F3F4F3E872D8729893A8954
:102E0000621673062CF0B70190E00E94B91AD5CF74
:102E10006016710649F49A81963328F4953321F4AB
:102E20003C8534FD01C081E3B70190E04AC08A814E
:102E3000813319F02C852F7E2C87B70190E00E94FA
:102E4000B91A411005C074FE16C085E490E015C0A3
:102E5000B7018EE290E00E94B91AE2E06E2EF40112
:102E6000E60DF11D6394B701808190E00E94B91ACC
:102E70004A94A9F7E8CF85E690E0B7010E94B91A15
:102E800017FD06C00115110541F43C8534FF05C04E
:102E90001195019511098DE201C08BE2B70190E017
:102EA0000E94B91A80E303C08F5F0A5011090A30EB
:102EB0001105D4F7B70190E00E94B91AB701C80113
:102EC000C0960E94B91A55C1833631F0833781F01C
:102ED000833509F05EC024C0680182E0C80ED11CB1
:102EE000F8018081898366246394712C840114C065
:102EF0006801F2E0CF0ED11CF8010081118126FF9C
:102F000003C0642D70E002C06FEF7FEFC8012B8B10
:102F10000E94AE1A3C012B896FE7462E422217C051
:102F20006801F2E0CF0ED11CF8010081118126FF6B
:102F300003C0642D70E002C06FEF7FEFC8012B8BE0
:102F40000E94A31A3C012B8950E8452E422A43FCDB
:102F50001CC006C0B70180E290E00E94B91A5A94E2
:102F6000852D90E068167906A8F30FC0F80147FC9C
:102F7000859147FE81918F01B70190E00E94B91AB7
:102F800051105A94F1E06F1A71086114710471F7CD
:102F9000F0C0843611F0893661F5680127FF09C059
:102FA00034E0C30ED11CF80160817181828193816C
:102FB0000AC0F2E0CF0ED11CF80160817181882730
:102FC00077FD8095982F4FE6742E722297FF09C0E7
:102FD00090958095709561957F4F8F4F9F4FF0E84A
:102FE0007F2A2AE030E0A4010E94E51A682E6818C2
:102FF00047C0853731F43FEE732E72222AE030E06D
:1030000024C099EF792E72228F36B9F020F48835DA
:1030100009F0B2C00DC0803721F0883709F0ACC08C
:1030200002C020E1722A74FE0BC034E0732A08C08B
:1030300024FF09C086E0782A06C028E030E005C0F9
:1030400020E130E002C020E132E0680177FE09C0F3
:1030500094E0C90ED11CF801608171818281938155
:1030600008C0F2E0CF0ED11CF8016081718180E0D0
:1030700090E0A4010E94E51A682E6818FFE77F22FD
:1030800076FE0BC0072D0E7F641450F474FE0AC048
:1030900072FC08C0072D0E7E05C0162D072D03C03B
:1030A000162D01C0142D04FF0CC0FE01E60DF11D0C
:1030B0008081803311F4097E08C002FF05C01E5FC5
:1030C00004C0802F867809F01F5F03FD12C000FF47
:1030D0000DC0462C151550F4450C411A152D06C08F
:1030E000B70180E290E00E94B91A1F5F1515C0F386
:1030F00004C0151510F4511A01C0512C04FF10C062
:10310000B70180E390E00E94B91A02FF1EC001FFE0
:1031100003C088E590E002C088E790E0B7010CC0EA
:10312000802F867891F001FD02C080E201C08BE221
:1031300007FD8DE2B70190E00E94B91A06C0B70101
:1031400080E390E00E94B91A4A946414C0F36A9430
:10315000F401E60DF11DB701808190E00E94B91ADB
:103160006110F5CF06C0B70180E290E00E94B91A65
:103170005A945110F8CF97CCF7012681378102C0BD
:103180002FEF3FEFC9016396E2E10C9420190E94F2
:10319000DB028DED90E09093070180930601809112
:1031A000860190918701892B31F481EF90E0909313
:1031B00005018093040163E771E089EF90E00E94CC
:1031C000590580E090E00895A29FB001B39FC0012F
:1031D000A39F01D0B29F700D811D1124911D0895F0
:1031E00097FB072E16F4009407D077FD09D00E94B4
:1031F0003B1907FC05D03EF4909581959F4F0895AB
:10320000709561957F4F08952F923F924F925F92F4
:103210006F927F928F929F92AF92BF92CF92DF92E6
:10322000EF92FF920F931F93CF93DF93CDB7DEB74B
:10323000CA1BDB0B0FB6F894DEBF0FBECDBF0994DF
:103240002A88398848885F846E847D848C849B8436
:10325000AA84B984C884DF80EE80FD800C811B8144
:10326000AA81B981CE0FD11D0FB6F894DEBF0FBE73
:10327000CDBFED010895AA1BBB1B51E107C0AA1FDA
:10328000BB1FA617B70710F0A61BB70B881F991F07
:103290005A95A9F780959095BC01CD0108950E949B
:1032A000581984FF0895CB010E945819805F089532
:1032B000AA27992329F4A85F982B11F480E1089597
:1032C000903118F4AD5F9295A395990FE8F78A2F86
:1032D000992708958F929F92AF92BF92CF92DF92DB
:1032E000EF92FF92CF93DF93EC01688179818A811D
:1032F0009B81611571058105910521F464E279EDE9
:103300008BE597E02DE133EF41E050E00E946C1B2C
:1033100049015A019B01AC01A7EAB1E40E94591B83
:103320006B017C01ACEEB4EFA50194010E94671B18
:10333000C60ED71EE81EF91EF7FE06C081E0C81AA9
:10334000D108E10880E8F80AC882D982EA82FB82C3
:10335000E894D7F8EE24FF24C601DF91CF91FF90C7
:10336000EF90DF90CF90BF90AF909F908F90089597
:103370000E946A19089589E091E00E946A190895EF
:10338000A0E0B0E08093090190930A01A0930B01A3
:10339000B0930C010895283008F027E03327DA01B4
:1033A000990F311D87FD916000966105710539F413
:1033B00032602E5F3D9330E32A95E1F708959F3FF9
:1033C00030F080387105610509F03C5F3C5F3D934A
:1033D000913008F08068911DDF93CF931F930F9376
:1033E000FF92EF92192F987F9695E92F96959695D3
:1033F000E90FFF27E653FF4F99273327EE24FF24D9
:10340000A701E70105900894079428F4360FE71EFA
:10341000F81E491F511D660F771F881F991F0694BC
:10342000A1F70590079428F4E70EF81E491F561FD0
:10343000C11D770F881F991F661F0694A1F705907D
:10344000079428F4F80E491F561FC71FD11D880F77
:10345000991F661F771F0694A1F70590079420F423
:10346000490F561FC71FD81F990F661F771F881F48
:103470000694A9F784911095177041F0D695C795D9
:1034800057954795F794E7941A95C1F7E0E7F0E070
:1034900068941590159135916591959105907FE20D
:1034A0007395E118F10A430B560BC90BD009C0F70D
:1034B000E10CF11E431F561FC91FD01D7EF470334F
:1034C00011F48A95E6CFE894015030F0080F0AF421
:1034D0000027021708F4202F2395022F7A3328F0B3
:1034E00079E37D932A95E9F710C07D932A9589F6B3
:1034F000069497956795379517951794E118F10AF3
:10350000430B560BC90BD00998F023957E91739508
:103510007A3308F070E37C932013B8F77E917061E2
:103520007D9330F0839571E37D9370E32A95E1F705
:103530001124EF90FF900F911F91CF91DF91992768
:1035400087FD90950895FC01059061507040011031
:10355000D8F7809590958E0F9F1F0895FC016150BC
:10356000704001900110D8F7809590958E0F9F1FA5
:1035700008950F931F93CF93DF938C01EB018B8101
:1035800081FD03C00FEF1FEF1AC082FF0DC02E8117
:103590003F818C819D812817390764F4E881F98186
:1035A0000193F983E88306C0E885F985802F0995A2
:1035B000892B41F78E819F8101969F838E83C8015D
:1035C000DF91CF911F910F910895FA01AA2728301A
:1035D00051F1203181F1E8946F936E7F6E5F7F4FE0
:1035E0008F4F9F4FAF4FB1E03ED0B4E03CD0670F5C
:1035F000781F891F9A1FA11D680F791F8A1F911DAF
:10360000A11D6A0F711D811D911DA11D20D009F4FE
:1036100068943F912AE0269F11243019305D319340
:10362000DEF6CF010895462F4770405D4193B3E029
:103630000FD0C9F7F6CF462F4F70405D4A3318F0D0
:10364000495D31FD4052419302D0A9F7EACFB4E081
:10365000A6959795879577956795BA95C9F7009739
:103660006105710508959B01AC010A2E06945795DA
:10367000479537952795BA95C9F7620F731F841F31
:10368000951FA01D0895F999FECF92BD81BDF89AAE
:10369000992780B50895262FF999FECF1FBA92BDBC
:1036A00081BD20BD0FB6F894FA9AF99A0FBE019623
:1036B00008950E94E418A59F900DB49F900DA49FBB
:1036C000800D911D11240895B7FF0C94591B0E9481
:1036D000591B821B930B0895052E97FB16F400943B
:1036E00007D057FD0DD00E94881B07FC09D07EF43F
:1036F00090958095709561957F4F8F4F9F4F08955E
:1037000050954095309521953F4F4F4F5F4F08950D
:10371000A1E21A2EAA1BBB1BFD010DC0AA1FBB1FD5
:10372000EE1FFF1FA217B307E407F50720F0A21B47
:10373000B30BE40BF50B661F771F881F991F1A94B4
:1037400069F760957095809590959B01AC01BD01DE
:08375000CF010895F894FFCFAA
:103758001A01DA02D702D602AA010000000000000E
:063768000000000000005B
:00000001FF
