:100000000C94B5000C94DB000C94DB000C94DB002A
:100010000C94DB000C94DB000C9459090C94DB006D
:100020000C94DB000C94DB000C94DB000C94910F1F
:100030000C94DB000C94DB000C94F50E0C94DB00AC
:100040000C94DB000C94DB000C94DB000C94DB00C4
:100050000C94DB000C94DB000C94DB000C94B30FCD
:100060000C94DB000C94DB006E616E00696E660020
:1000700000407A10F35A00A0724E18090010A5D45F
:10008000E80000E87648170000E40B54020000CABC
:100090009A3B000000E1F505000080969800000002
:1000A00040420F000000A086010000001027000061
:1000B0000000E803000000006400000000000A00E7
:1000C000000000000100000000002C76D888DC67EA
:1000D0004F0823DFC1DFAE59E1B1B796E5E3E45342
:1000E000C63AE651997696E8E6C28426EB898C9B5F
:1000F00062ED407C6FFCEFBC9C9F40F2BAA56FA5FF
:10010000F490055A2AF75C936B6CF9676DC11BFC80
:10011000E0E40D47FEF520E6B500D0ED902E03009B
:10012000943577050080841E080000204E0A0000E8
:1001300000C80C333333330F986E12831141EF8DA7
:100140002114893BE65516CFFEE6DB18D1844B38E7
:100150001BF77C1D901DA4BBE424203284725E2218
:100160008100C9F124ECA1E53D2711241FBECFEF8A
:10017000D8E0DEBFCDBF14BE88E10FB6F8948093FF
:100180006000109260000FBE11E0A0E0B1E0E0E975
:10019000FFE302C005900D92AC32B107D9F712E02F
:1001A000ACE2B1E001C01D92A53CB107E1F70E94AD
:1001B000DB1C0C94C61F0C9400008093C600809139
:1001C000C00085FFFCCF80E090E008952091000101
:1001D00030910101F901EC55FF4F8081811104C07C
:1001E0002C563F4FC901089520E030E0C901089521
:1001F0001F93CF93DF932091000130910101A9015A
:100200004A5D5E4FDA01EC91E901B0E1EB9FC00D70
:10021000D11D1124CB55DF4F1CE0FC01DE01019004
:100220000D921A95E1F7FB0180819181A281B38142
:100230008C879D87AE87BF87DA018C9190E001960D
:10024000877099278C93F901EB5DFE4F208128136D
:1002500004C00196877099278083DF91CF911F9109
:100260000895E0910001F0910101E15DFE4F81E010
:1002700080830E94E20A6091BD028091BC020C94CE
:10028000DD0ACF93DF93C0910001D091010120914D
:10029000BA022F5FFE01EF56FF4F2083FE01EE569C
:1002A000FF4F3FEF3083FE01E057FF4F1082FE010A
:1002B000E056FF4F1082118212821382FE01E95D27
:1002C000FE4F1082118212821382FE01E55DFE4F05
:1002D0001082118212821382FE01E15DFE4F1082B4
:1002E000FE01E05DFE4F81E08083FE01EC55FF4F93
:1002F0008083FE01E356FF4F1082CE018C569F4F44
:10030000FC012083FE01EB56FF4F3083FE01EA56CD
:10031000FF4F10820E94C411C256DF4F9983888319
:10032000E0910001F0910101EC55FF4F1082DF9147
:10033000CF9108958F929F92BF92CF92DF92EF92CA
:10034000FF920F931F93CF93DF93C0910001D09141
:1003500001018E0100571F4FD801FC90FF2009F4C6
:1003600040C0E12CF9E0DF2E4091840250918502DB
:1003700060918602709187028E2D90E09C01220F81
:10038000331F220F331F220F331F280F391F2C0F4B
:100390003D1FF90185819681A781B085481B590BC6
:1003A0006A0B7B0B4134510561057105B8F08F2D47
:1003B00090E00197FC01EE0FFF1FEE0FFF1FEE0F05
:1003C000FF1FE80FF91FEC0FFD1FD9018D2D0190C4
:1003D0000D928A95E1F7FA94D801FC92E394EF1418
:1003E00018F2FE01EB5DFE4F8081FE01EA5DFE4FDB
:1003F0009081891709F475C0FE0120E1829FE00D0C
:10040000F11D1124CF018F549F4F0E94160CC091F3
:100410000001D09101014E013BED831A3EEF930A9A
:10042000D401CC90D12CB60162957295707F76275D
:10043000607F76276B557F4F6C0F7D1FFB01B0806F
:100440008E0100571F4FD801FC90FF2009F45AC1BC
:100450009881B91609F459C1FE01399621E030E0BE
:1004600007C0A901E0802F5F3F4F3996BE1429F0E5
:10047000922F2F15B0F3422F50E09F1509F4F9C0C9
:10048000FA01EE0FFF1FEE0FFF1FEE0FFF1FE40F2D
:10049000F51FEC0FFD1FB0828283DB0111968C915A
:1004A0001197818312968C918383148240918402E8
:1004B0005091850260918602709187024583568330
:1004C00067837087BFEFCB1ADB0AE7E0CE22DD241B
:1004D0008C2DD401CC92FE01EA5DFE4F90819C11DF
:1004E0008BCFDE01AD56BF4F8EEF8C93FF2009F40A
:1004F00025C1FE013196FA94CE010A9629E0F29EBA
:10050000800D911D11244EEF2081241710F42C939F
:10051000422F3996E817F907B9F7842F90E0019632
:10052000FE01EE56FF4F208130E028173907E9F031
:100530004F5F4083CF56DF4F8881813091F08DEC43
:10054000489F812D11248695869586953AE0839F54
:1005500040191124E42FF0E0EE5FFE4F80810E94ED
:100560006D0FC0910001D0910101FE01EF56FF4FC8
:100570008081813009F4D3C0FE01E05DFE4F8081AF
:10058000FE01E057FF4F208181117BC02223D1F172
:1005900010E001E00EC0C05DDE4F0883C091000195
:1005A000D0910101FE01E057FF4F20811F5F12171C
:1005B00048F5812F90E0FC01EE0FFF1FEE0FFF1FAB
:1005C000EE0FFF1FE80FF91FEC0FFD1F8181811156
:1005D000EDCF82818035F8F6C15DDE4F08830E9441
:1005E000E20A6091BD028091BC020E94DD0AC091C6
:1005F0000001D0910101FE01E057FF4F20811F5FF4
:100600001217B8F2FE01EC55FF4F81E08083FE0126
:10061000E356FF4F1082CE018C569F4FFE01EF56DE
:10062000FF4F3081DC013C93FE01EB56FF4FDE01B2
:10063000AE56BF4F3C913083FE01EA56FF4F2083F8
:100640000E94C411C256DF4F99838883E091000154
:10065000F0910101EC55FF4F1082DF91CF911F9176
:100660000F91FF90EF90DF90CF90BF909F908F9071
:100670000895BEE0BF1508F403CFF394F801F082AB
:10068000FFCE813009F0BECF222309F4BBCFF12C7D
:1006900003E012E00FC0C05DDE4F1882C091000180
:1006A000D0910101FE01E057FF4F2081F394F21633
:1006B00008F0A8CF8F2D90E0FC01EE0FFF1FEE0F8A
:1006C000FF1FEE0FFF1FE80FF91FEC0FFD1F8181C9
:1006D0008111ECCF82818832F0F2C15DDE4F80352E
:1006E000B8F418830E94E20A60E08091BE020E9482
:1006F000DD0AC0910001D0910101FE01E057FF4FDA
:100700002081D4CF40E050E0B8CF40E050E0B8CEF8
:1007100008830E94E20A6091AA0280E0E8CFFE010D
:10072000EE56FF4F1082CD56DF4F188284E10E94B3
:100730006D0FC0910001D09101011ECF8FEF90E0AD
:100740004EEFEECEF894519A8CE090E09093C50075
:100750008093C400E0ECF0E080818D7F8083E2EC48
:10076000F0E0808186608083E1ECF0E08081886049
:1007700080838AE091E09093C2028093C1027894D2
:100780000895823009F453C058F0833009F45DC0F5
:10079000843021F10E94E20A60E080E00C94DD0ADE
:1007A000882389F08130B1F7E0910001F0910101D7
:1007B000E15DFE4F80830E94E20A6091BD0280915C
:1007C000BC020C94DD0AE0910001F0910101E15DB1
:1007D000FE4F108260E080E00C94DD0A2091000161
:1007E000309101014091840250918502609186020E
:1007F00070918702F901E55DFE4F80819181A281B0
:10080000B38180569E4FAF4FBF4F84179507A60701
:10081000B70748F10E94E20A6091AA0280E00E94B4
:10082000DD0A0E94E20A60E080E00C94DD0AE091BB
:100830000001F0910101E15DFE4F80830E94E20A18
:1008400060E08091BE020C94DD0AE0910001F0911D
:100850000101E15DFE4F80830E94E20A6091AA02DD
:1008600080E00C94DD0A8091840290918502A09131
:100870008602B091870280839183A283B383F901BA
:10088000E15DFE4F81E080830E94E20A6091BD023B
:100890008091BC020E94DD0ABDCF1F93CF93DF93EE
:1008A0002091000130910101F901E057FF4F408193
:1008B0004423C9F110E0D3E0C2E00AC0E05DFE4F7E
:1008C0001082F901E057FF4F40811F5F141758F560
:1008D000812F90E0FC01EE0FFF1FEE0FFF1FEE0FC8
:1008E000FF1FE80FF91FE20FF31F81818111EDCF88
:1008F0008281F901883210F3E15DFE4F8035B8F452
:10090000C0830E94E20A60E08091BE020E94DD0A7C
:100910002091000130910101F901E057FF4F408122
:100920001F5F1417A8F2DF91CF911F910895D08314
:100930000E94E20A6091AA0280E0E8CFCF93DF93A1
:100940002091000130910101F901E057FF4F4081F2
:100950004423B9F1C0E0D1E00AC0E05DFE4FD0838E
:10096000F901E057FF4F4081CF5FC41750F58C2F3E
:1009700090E0FC01EE0FFF1FEE0FFF1FEE0FFF1FB9
:10098000E80FF91FE20FF31F81818111EDCF828102
:10099000F901803510F7E15DFE4FD0830E94E20A35
:1009A0006091BD028091BC020E94DD0A209100018D
:1009B00030910101F901E057FF4F4081CF5FC4172B
:1009C000B0F2DF91CF910895CF93DF93C0910001F2
:1009D000D0910101FE01EC55FF4F81E08083FE01C3
:1009E000E356FF4F1082CE018C569F4FFE01EF560B
:1009F000FF4F2081FC012083FE01EB56FF4FDE01FB
:100A0000AE56BF4F2C912083FE01EA56FF4FDE0108
:100A1000A057BF4F2C9120830E94C411C256DF4FB4
:100A200099838883E0910001F0910101EC55FF4F1B
:100A30001082DF91CF910895FF920F931F93CF9370
:100A4000DF938091000190910101FC01EB5DFE4F6D
:100A5000208130E1239F800D911D11248F549F4FE1
:100A60000E94160CA0910001B0910101FD01EB5D07
:100A7000FE4F9081ED01E0E19E9FC00DD11D11243C
:100A8000CB55DF4FF880BD0160577F4FFB010081E0
:100A9000002309F441C09C919F1509F440C0FD0159
:100AA000399621E030E007C0A90110812F5F3F4F48
:100AB00039961F1529F0922F2017B0F3422F50E0DE
:100AC000901721F1FA01EE0FFF1FEE0FFF1FEE0F3F
:100AD000FF1FE40FF51FEA0FFB1FF082828389815D
:100AE00081838A818383148280918402909185021C
:100AF000A0918602B091870285839683A783B087F1
:100B0000DF91CF911F910F91FF9008950F30D0F694
:100B10000F5FFB010083D6CF40E050E0F9CF40E00B
:100B200050E0D0CFDF92EF92FF920F931F93CF93BD
:100B3000DF932091000130910101890100571F4F7F
:100B4000F801E080EE2009F43FC0F12C79E0D72EC7
:100B50008091840290918502A0918602B0918702D3
:100B60004F2D50E0EA01CC0FDD1FCC0FDD1FCC0F65
:100B7000DD1FC40FD51FC20FD31F4D815E816F8152
:100B80007885841B950BA60BB70B81349105A105C5
:100B9000B105B8F08E2D90E00197FC01EE0FFF1F1C
:100BA000EE0FFF1FEE0FFF1FE80FF91FE20FF31FFD
:100BB000DE018D2D01900D928A95E1F7EA94F801FE
:100BC000E082F394FE1420F2DF91CF911F910F91F8
:100BD000FF90EF90DF900895CF93DF932091000175
:100BE00030910101D901AD56BF4F8EEF8C93F901C1
:100BF000E057FF4F8081882309F454C0F9013196F2
:100C0000482F4150C9010A9659E0459F800D911D1A
:100C100011246EEF4081461710F44C93642F3996DF
:100C2000E817F907B9F7862F90E00196F901EE561B
:100C3000FF4F408150E048175907F1F06F5F608324
:100C4000E901CF56DF4F8881813029F18DEC689F13
:100C5000812D11248695869586959AE0899F601945
:100C60001124E62FF0E0EE5FFE4F80810E946D0FB1
:100C70002091000130910101F901EF56FF4F808171
:100C8000813019F0DF91CF910895D901AD56BF4F52
:100C9000F901EE56FF4F10821C9284E1DF91CF9153
:100CA0000C946D0F8FEF90E06EEFC0CF1F93CF933A
:100CB000DF938091000190910101FC01E05DFE4F06
:100CC0002081211141C0FC01E057FF4F40814423A6
:100CD000B9F1C0E0D1E00AC0E05DFE4FD083FC0175
:100CE000E057FF4F4081CF5FC41750F52C2F30E005
:100CF000F901EE0FFF1FEE0FFF1FEE0FFF1FE20FB8
:100D0000F31FE80FF91F21812111EDCF2281FC0192
:100D1000203510F7E15DFE4FD0830E94E20A60911A
:100D2000BD028091BC020E94DD0A80910001909179
:100D30000101FC01E057FF4F4081CF5FC417B0F2C3
:100D4000DF91CF911F9108952130D1F7FC01E05739
:100D5000FF4F40814423A1F310E0D3E0C2E00AC07A
:100D6000E05DFE4F1082FC01E057FF4F40811F5FA6
:100D7000141730F7212F30E0F901EE0FFF1FEE0FAF
:100D8000FF1FEE0FFF1FE20FF31FE80FF91F218176
:100D90002111EDCF2281FC01283210F3E15DFE4FDD
:100DA000203588F4C0830E94E20A60E08091BE0290
:100DB0000E94DD0A8091000190910101FC01E05741
:100DC000FF4F4081D4CFD0830E94E20A6091AA02F3
:100DD00080E0EECF089580E090E008950895CF93ED
:100DE000F89414B817B81AB815B818B81BB8529AAE
:100DF0005A9A14BC85E085BD8FEF87BD22E0209311
:100E00006E0010928000109281008FE89BE090931A
:100E100089008093880020936F005398239881EA7B
:100E20008093B0002093B1001092B4001092B300F0
:100E30008BE080BF83E080937F0086E080937C001E
:100E400083E880937A0080917A00806480937A00AE
:100E500080917A0086FDFCCF10927C0083EA80931B
:100E60007A0081E080937B0081E090E00E945F1F28
:100E70008F3F11F08093660010928802C1E0C0930A
:100E80006102C093A50210927F021092B90280E91C
:100E900090E00E945F1F80937E0280917E028873A3
:100EA00011F0C0937E021092A9021092A8028FEF57
:100EB00090E09093A7028093A60210928402109271
:100EC0008502109286021092870281E080932E01A3
:100ED00082E49FE09093B8028093B70280EB90E0A9
:100EE0000E945F1FC82F81EB90E00E945F1F382F88
:100EF00020E02C2B3093BB022093BA0285E090E0D7
:100F00000E945F1F8093BE0289E090E00E945F1FF5
:100F10008093AA028CE090E00E945F1F8093BC0245
:100F200084E190E00E945F1F8093BD0280E290E028
:100F30000E945F1FC82F81E290E00E945F1F3C2F3C
:100F400020E0282B30938A022093890280E590E0EC
:100F50000E945F1FC82F81E590E00E945F1F3C2F19
:100F600020E0282B309363022093620282E290E01B
:100F70000E945F1FC82F83E290E00E945F1F3C2FFA
:100F800020E0282B30938C0220938B0282E590E0A6
:100F90000E945F1FC82F83E590E00E945F1F3C2FD7
:100FA00020E0282B309365022093640284E290E0D5
:100FB0000E945F1FC82F85E290E00E945F1F3C2FB8
:100FC00020E0282B30938E0220938D0284E590E060
:100FD0000E945F1FC82F85E590E00E945F1F3C2F95
:100FE00020E0282B309367022093660286E290E08F
:100FF0000E945F1FC82F87E290E00E945F1F3C2F76
:1010000020E0282B3093900220938F0286E590E019
:101010000E945F1FC82F87E590E00E945F1F3C2F52
:1010200020E0282B309369022093680288E290E048
:101030000E945F1FC82F89E290E00E945F1F3C2F33
:1010400020E0282B309392022093910288E590E0D3
:101050000E945F1FC82F89E590E00E945F1F3C2F10
:1010600020E0282B30936B0220936A028AE290E002
:101070000E945F1FC82F8BE290E00E945F1F3C2FF1
:1010800020E0282B30939402209393028AE590E08D
:101090000E945F1FC82F8BE590E00E945F1F3C2FCE
:1010A00020E0282B30936D0220936C028CE290E0BC
:1010B0000E945F1FC82F8DE290E00E945F1F3C2FAF
:1010C00020E0282B30939602209395028CE590E047
:1010D0000E945F1FC82F8DE590E00E945F1F3C2F8C
:1010E00020E0282B30936F0220936E028EE290E076
:1010F0000E945F1FC82F8FE290E00E945F1F3C2F6D
:1011000020E0282B30939802209397028EE590E000
:101110000E945F1FC82F8FE590E00E945F1F3C2F49
:1011200020E0282B309371022093700280E390E03E
:101130000E945F1FC82F81E390E00E945F1F3C2F39
:1011400020E0282B30939A022093990280E690E0C9
:101150000E945F1FC82F81E690E00E945F1F3C2F16
:1011600020E0282B309373022093720282E390E0F8
:101170000E945F1FC82F83E390E00E945F1F3C2FF7
:1011800020E0282B30939C0220939B0282E690E083
:101190000E945F1FC82F83E690E00E945F1F3C2FD4
:1011A00020E0282B309375022093740284E390E0B2
:1011B0000E945F1FC82F85E390E00E945F1F3C2FB5
:1011C00020E0282B30939E0220939D0284E690E03D
:1011D0000E945F1FC82F85E690E00E945F1F3C2F92
:1011E00020E0282B309377022093760286E390E06C
:1011F0000E945F1FC82F87E390E00E945F1F3C2F73
:1012000020E0282B3093A00220939F0286E690E0F6
:101210000E945F1FC82F87E690E00E945F1F3C2F4F
:1012200020E0282B309379022093780288E390E025
:101230000E945F1FC82F89E390E00E945F1F3C2F30
:1012400020E0282B3093A2022093A10288E690E0B0
:101250000E945F1FC82F89E690E00E945F1F3C2F0D
:1012600020E0282B30937B0220937A028AE390E0DF
:101270000E945F1FC82F8BE390E00E945F1F3C2FEE
:1012800020E0282B3093A4022093A3028AE690E06A
:101290000E945F1FC82F8BE690E00E945F1F3C2FCB
:1012A00020E0282B30937D0220937C027894CF910C
:1012B00008951F920F920FB60F9211248F9388E119
:1012C0000FB6F89480936000109260000FBE8F916B
:1012D0000F900FBE0F901F9018957C01EB01D12C41
:1012E00088248A9486E0982E93E8A92E08E110E0DD
:1012F00029E2B22E34E0C32E80912E018330B9F161
:10130000843008F03EC0813009F4BEC008F44BC000
:1013100080918802811100C1F89490927C00A09283
:101320007A0080917A00806480937A0080917A00BC
:1013300086FDFCCF209178003091790078942B3A8B
:1013400092E039070CF002C12938E2E03E070CF0C8
:1013500004C1273632400CF4DFC0559A549A3B9AA8
:101360003A9A3D983C9880912E01833049F6DD20D1
:1013700009F4D9C0C0922E01DD24D394FE01099551
:10138000BBCF853009F462C0C8F3863009F0B4CF12
:1013900080912C01811194C01092B3001092B4007E
:1013A00010922D01A9CFF89480B7877F80BF8091DC
:1013B0007A008F7780937A0014B817B81AB815B8E6
:1013C00018B81BB80FB6F894A895009360000FBE2C
:1013D000B09260008091600080648093600083B769
:1013E000817F846083BFF89483B7816083BF7894E2
:1013F000889583B78E7F83BF789410928802529A23
:101400005A9A80917A00806880937A0087E592E00A
:101410000197F1F700C0000080B7886180BF559A3E
:10142000549A3B9A3A9A3D9A3C9AEFE1FEE43197FE
:10143000F1F700C0000080918802811177C05598B3
:1014400054983B983A983D983C9856CF4899F7CF96
:10145000559A54983B983A983D983C988FEC97E071
:101460000197F1F700C00000559854983B983A98BE
:101470003D983C989FEFE1EEF4E09150E040F04061
:10148000E1F700C0000038CF559854983B9A3A9A3B
:101490003D983C98EFECF7E03197F1F700C0000081
:1014A000559854983B983A983D983C98FFEF21EE18
:1014B00084E0F15020408040E1F700C000001CCFE4
:1014C00090912C0180912D01981709F415CF8091EE
:1014D0002C0180932D0180912C01813009F444C0AE
:1014E00080912C011092B3008092B400823009F4F4
:1014F0004CC08092B3008092B4008FE295E70197D0
:10150000F1F700C000008091BD029091BC02909361
:10151000B3008093B400F0CE559A549A3B983A9811
:101520003D983C98E9CEF701099524CF559A549AF5
:101530003B983A983D983C98FFEF20E782E0F150C5
:1015400020408040E1F700C0000079CF55985498C2
:101550003B9A3A9A3D983C98CFCE559854983B98F0
:101560003A983D9A3C9AC8CE8092B3001092B4004B
:101570008FE295E70197F1F700C000008091BE026D
:101580008093B3001092B400B7CEEFE2F5E7319745
:10159000F1F700C000008091AA021092B30080937E
:1015A000B400AACE07C0EFECF7E03197F1F700C026
:1015B000000001970097B9F708958093B3006093F6
:1015C000B40008958FEF8093B3008093B4008FEC44
:1015D00097E00197F1F700C000008FEC97E00197CA
:1015E000F1F700C000008FEC97E00197F1F700C021
:1015F00000008FEC97E00197F1F700C000008FEC3E
:1016000097E00197F1F700C000008FEC97E0019799
:10161000F1F700C000008FEC97E00197F1F700C0F0
:1016200000008FEC97E00197F1F700C000008FEC0D
:1016300097E00197F1F700C000008FEC97E0019769
:10164000F1F700C000008FEC97E00197F1F700C0C0
:1016500000008FEC97E00197F1F700C000008FECDD
:1016600097E00197F1F700C000008FEC97E0019739
:10167000F1F700C000008FEC97E00197F1F700C090
:10168000000008958091880281111FC0F89487E0BE
:1016900080937C0083E880937A0080917A00806454
:1016A00080937A0080917A0086FDFCCF20917800AB
:1016B0003091790010927C0083EA80937A0081E077
:1016C00080937B007894C90108952FEF3FEFFBCF03
:1016D0008091880281111FC0F89488EC80937C006F
:1016E00087E880937A0080917A00806480937A0002
:1016F00080917A0086FDFCCF2091780030917900AE
:1017000010927C0083EA80937A0081E080937B00D2
:101710007894C90108952FEF3FEFFBCF1F93CF932C
:10172000DF9360E070E080E013EAD1E0C6E0B3E868
:10173000E1E0F0E040E850E0F894C0937C00B09322
:101740007A0090917A00906490937A0090917A0058
:1017500096FDFCCF2091780030917900A22FA170E6
:1017600090917A00906490937A0090917A0096FD1F
:10177000FCCF209178003091790010927C0010937A
:101780007A00D0937B00789421703327A21303C092
:101790004150510989F6AA2339F09F01062E01C054
:1017A000220F0A94EAF7822B6F5F7F4F6830710532
:1017B00009F0C0CFDF91CF911F91089580911E0154
:1017C000982F990F990F990F982720912F01822F09
:1017D0008695869589279295969597708927809307
:1017E0001E012F5F20932F01089580931E010895FD
:1017F00080918802811117C0F89486E080937C0064
:1018000083E880937A0080917A00806480937A00E4
:1018100080917A0086FDFCCF20917800309179008C
:101820007894C90108952FEF3FEFFBCF2F923F929D
:101830004F925F926F927F928F929F92AF92BF92E0
:10184000CF92DF92EF92FF920F931F93CF93DF938C
:1018500000D000D000D0CDB7DEB75C01FC01028023
:10186000F381E02DFE83ED83E43823E0F2070CF0F2
:10187000D8C080916202909163028E179F0708F48E
:10188000B4C100916402109165020E171F0708F49D
:1018900040C200916602109167020E171F0708F4FC
:1018A00041C200916802109169020E171F0708F4E7
:1018B00042C200916A0210916B020E171F0708F4D2
:1018C00043C200916C0210916D020E171F0708F4BD
:1018D00096C100916E0210916F020E171F0708F457
:1018E0003CC200917002109171020E171F0708F49C
:1018F0003DC200917202109173020E171F0708F487
:101900003EC200917402109175020E171F0708F471
:101910003FC200917602109177020E171F0708F45C
:1019200040C200917802109179020E171F0708F447
:1019300046C200917A0210917B020E171F0708F42D
:1019400047C200917C0210917D020E171F0708F418
:1019500048C219821A8280ED8B8390E49C835CE0FC
:10196000E52EF12CF701EE0FFF1FEE59FD4F8081A0
:101970009181B801681B790B80E090E00E944717C5
:101980009B01AC010E9489143B014C01ED81FE8159
:10199000BF01882777FD8095982F0E949C166B01C8
:1019A0007C01B80180E090E00E9447171B012C01E8
:1019B00079816A819B818C81272F362F492F582F5F
:1019C000662D772D882D992D0E94E5149B01AC0181
:1019D000C201B1010E94B5149B01AC01C701B6015F
:1019E0000E94B51420E030E040E251E40E94E5148A
:1019F0000E94F8168B01662D772D882D992D0E9457
:101A0000F816AB01BC01C801BA010E940C1D882761
:101A100077FD8095982F0E949C160E940013062F38
:101A2000E5C00FEFF501808091808091890290914F
:101A30008A028815990508F46EC0E0908B02F09038
:101A40008C02E814F90408F468C1E0908D02F0906B
:101A50008E02E814F90408F469C1E0908F02F09056
:101A60009002E814F90408F46AC1E0909102F09041
:101A70009202E814F90408F46BC1E0909302F0902C
:101A80009402E814F90408F4D6C0E0909502F090AE
:101A90009602E814F90408F464C1E0909702F0900B
:101AA0009802E814F90408F465C1E0909902F090F6
:101AB0009A02E814F90408F466C1E0909B02F090E1
:101AC0009C02E814F90408F467C1E0909D02F090CC
:101AD0009E02E814F90408F468C1E0909F02F090B7
:101AE000A002E814F90408F465C1E090A102F090A6
:101AF000A202E814F90408F466C1E090A302F09091
:101B0000A402E814F90408F467C11AE50F3F31F4A0
:101B1000812F8F5D51C010E00F3FD1F32D813E81A9
:101B2000B901882777FD8095982F0E949C166B013C
:101B30007C01602F70E080E090E00E9447174B012D
:101B40005C01A701960160E070E081E694E40E94E8
:101B5000B5149B01AC01C501B4010E94E5144B0111
:101B60005C01612F70E080E090E00E9447172B013C
:101B70003C0120E030E04FE254E4C701B6010E948E
:101B8000B5149B01AC01C301B2010E94E5149B0195
:101B9000AC01C501B4010E94891420E030E048E4A2
:101BA00053E40E94CA1520E030E044E052E40E9471
:101BB00089140E940013862F26960FB6F894DEBF74
:101BC0000FBECDBFDF91CF911F910F91FF90EF908E
:101BD000DF90CF90BF90AF909F908F907F906F904D
:101BE0005F904F903F902F90089500E02D813E81AF
:101BF0002D3B32400CF016CF802F8F5DDDCF65E09E
:101C000085E090E07C0131E0E31AF10870E080E0CB
:101C100090E00E94471720E030E040E05FE30E9440
:101C2000E51420E030E0A9010E94891469837A83D9
:101C30008B839C8397CE85E0382EE5E0F0E0EE0FB5
:101C4000FF1FE957FD4F80819181B701681B790B18
:101C500080E090E00E9447179B01AC010E9489142C
:101C6000262EC72ED82E192FB401882777FD8095F0
:101C7000982F0E949C162B013C01B70180E090E058
:101C80000E9447174B015C01632D70E080E090E0FB
:101C90000E94471720E030E040E05FE30E94E51437
:101CA00020E030E0A9010E948914222D3C2D4D2D09
:101CB000512F0E94E5149B01AC01C501B4010E94A3
:101CC000B5149B01AC01C301B2010E94B51420E020
:101CD00030E040E251E40E94E5140E94F8167B01D6
:101CE000622D7C2D8D2D912F0E94F816AB01BC0129
:101CF000C701BA010E940C1D882777FD8095982F97
:101D00000E949C160E940013162F6F3F09F004CF0B
:101D100073CF61E081E090E075CF33243394E1E04C
:101D2000F0E08DCF62E082E090E06CCF32E0332EC5
:101D3000E2E0F0E084CF63E083E090E063CF23E073
:101D4000322EE3E0F0E07BCF64E084E090E05ACF15
:101D500094E0392EE4E0F0E072CF66E086E090E0B7
:101D600051CF16E0312EE6E0F0E069CF67E087E082
:101D700090E048CFB7E03B2EE7E0F0E060CF68E0CE
:101D800088E090E03FCFA8E03A2EE8E0F0E057CFBF
:101D900069E089E090E036CFF9E03F2EE9E0F0E03D
:101DA0004ECF6AE08AE090E02DCFEAE03E2EEAE0F6
:101DB000F0E045CF7BE0372EEBE0F0E040CF6BE08A
:101DC0008BE090E01FCF6CE0362EECE0F0E037CFF8
:101DD0006CE08CE090E016CF5DE0352EEDE0F0E0B9
:101DE0002ECF6DE08DE090E00DCF1F920F920FB6D9
:101DF0000F9211242F933F934F935F936F937F9391
:101E00008F939F93AF93BF93EF93FF932091A8027B
:101E10003091A9028091A6029091A702280F391F44
:101E20003093A9022093A8028FEF90E09093A7022D
:101E30008093A6028FEF87BD8091840290918502E6
:101E4000A0918602B09187020196A11DB11D8093D9
:101E5000840290938502A0938602B09387028091BA
:101E6000880281110BC08091B7029091B80282174D
:101E7000930720F480912E01843089F0FF91EF9137
:101E8000BF91AF919F918F917F916F915F914F9192
:101E90003F912F910F900FBE0F901F901895E091DA
:101EA0001A01F0911B010995009741F30E947D12E0
:101EB000811109C00E94D71D99279093A702809392
:101EC000A60287BDDBCFE0911801F09119010995B9
:101ED0001092A9021092A802D1CF80FF11C0559A8A
:101EE00081FF11C0549A82FF11C03B9A83FF11C039
:101EF0003A9A84FF11C03D9A85FD11C03C9808951F
:101F0000559881FDEFCF549882FDEFCF3B9883FD2C
:101F1000EFCF3A9884FDEFCF3D9885FFEFCF3C9A05
:101F200008951F920F920FB60F9211248F939F93D3
:101F300010928100109285001092840081E08093BD
:101F400061028093A5021092880210927C0093EAAD
:101F500090937A0080937B009F918F910F900FBE9A
:101F60000F901F9018951F920F920FB60F92112489
:101F70002F933F934F935F936F937F938F939F9391
:101F8000AF93BF93CF93DF93EF93FF9320918400A0
:101F90003091850041E0409388028091610288235E
:101FA000A9F1109285001092840040938100109254
:101FB000B902109261028091A5028823A1F080915C
:101FC0007A0086FDFCCF8091780090917900909303
:101FD00083028093820281E080937C0093EA909355
:101FE0007A0080937B00FF91EF91DF91CF91BF91B9
:101FF000AF919F918F917F916F915F914F913F91A1
:102000002F910F900FBE0F901F901895C901875800
:1020100091098437994008F057C026583109A4EF38
:10202000B0E00E94001D883008F485C04093610232
:102030008091A50281115CC080917F02E82FF0E0C1
:10204000E555FD4F9091B90290838F5F80937F0299
:102050008C3049F610928100109285001092840015
:102060004093A50210928802C091B502D091B602A9
:102070008BEA92E00E94C411C817D90709F0B3CFC8
:102080008091B40287FF68C0982F9858933030F041
:10209000539823981092B4001092B300863809F434
:1020A000BFC008F063C0833809F41BC108F010C139
:1020B000803809F098CF80916E008D7F80936E00FC
:1020C00016BCE0E0F0E709951092810010928500BF
:1020D00010928400409361024093A50210928802FE
:1020E00010927C0083EA80937A0040937B007BCF40
:1020F00080917A0086FDFCCF8091780090917900E4
:10210000909381028093800210927C0083EA8093F6
:102110007A0081E080937B009091B9029923B9F015
:102120001092810010928500109284008093A50285
:102130001092880258CF21E030E001C0220F8A952A
:10214000EAF78091B902822B8093B9024CCF1092AA
:10215000A50210927F0247CFE0911C01F0911D0172
:1021600060E872E08BEA92E009953DCF883809F487
:10217000BBC008F4A9C0893809F47BC08A3809F0CB
:1021800032CF8091AB02823009F4C9C008F059C047
:1021900081114AC080912E01863009F024CF6091D0
:1021A000BA0280EB90E00E94671F6091BB0281EB56
:1021B00090E00E94671F6091BE0285E090E00E945F
:1021C000671F6091AA0289E090E00E94671F6091FA
:1021D000BC028CE090E00E94671F6091BD0284E128
:1021E00090E00E94671F539823981092B4001092B9
:1021F000B30081E080932E018091AB02882309F423
:10220000F2CE80912E01863009F4EDCE539A239AB6
:102210001092B4001092B30086E080932E01E3CEBA
:1022200085E080932E01DFCE813041F78091AC02B2
:102230009091AD029093BB028093BA0210922C0150
:10224000E0CF833009F484C08430C1F680912C0142
:102250009091B102833009F470C08091B002109265
:102260002D0123E020932C018093BC029093BD02AA
:10227000C8CF80912E01863099F0539A239A1092FC
:10228000B4001092B300559854983B983A983D98F2
:102290003C9810922C0110922D0186E080932E0123
:1022A00081E090E00090AB0202C0880F991F0A9471
:1022B000E2F72091BA023091BB0282239323892B4B
:1022C00051F510922C018FCE82E080932E018BCE9F
:1022D0008438F1F0853809F086CE81E080932E01B4
:1022E00082CEE0E0F0E0099580912E01833009F480
:1022F0007ACE80912E01843009F475CE539A239AB8
:102300001092B4001092B30083E080932E016BCE44
:1023100010922E0168CE81E080932C0164CE8091D2
:102320002C01813019F18091AE0210922D0191E0C3
:1023300090932C018093BE0264CF8091BD029813CC
:102340008CCF8091B0022091BC02821388CF59CFEC
:1023500080912C01823089F08091AF0210922D0182
:1023600092E090932C018093AA024BCF8091AE0211
:102370009091BE028913D9CF44CF8091AF02909142
:10238000AA028913EBCF3DCFFC0180812FEF3FEFF5
:102390002827022E2295207F2025032E322F2295DA
:1023A0002F700226269532272327220F220F220F75
:1023B000202581812827022E2295207F2025032E8B
:1023C000322F22952F700226269532272327220F9F
:1023D000220F220F202582812827022E2295207F7E
:1023E0002025032E322F22952F7002262695322784
:1023F0002327220F220F220F202583812827022E38
:102400002295207F2025032E322F22952F70022621
:10241000269532272327220F220F220F2025848181
:102420002827022E2295207F2025032E322F229549
:102430002F700226269532272327220F220F220FE4
:10244000202585812827022E2295207F2025032EF6
:10245000322F22952F700226269532272327220F0E
:10246000220F220F202586812827022E2295207FE9
:102470002025032E322F22952F70022626953227F3
:102480002327220F220F220F202587812827022EA3
:102490002295207F2025032E322F22952F70022691
:1024A000269532272327220F220F220F20258085F1
:1024B0002827022E2295207F2025032E322F2295B9
:1024C0002F700226269532272327220F220F220F54
:1024D000202581852827022E2295207F2025032E66
:1024E000322F22952F700226269532272327220F7E
:1024F000220F220F2025C90108950FB6F894A4B128
:1025000020917E022A2B24B921E030917E022030D6
:1025100029F0000025B1232B25B904C000000000DC
:10252000000000C0000000000000309525B123230A
:1025300025B92EEA2A95F1F72BEE30B735FF0AC000
:10254000A4B930917E02309525B1232325B90FBE61
:1025500080E0089500002A9581F721E030917E0205
:10256000203029F0000025B1232B25B904C000003C
:102570000000000000C0000000000000309525B100
:10258000232325B9000024E52A95F1F7FC018CE00E
:10259000619170E0660F771F616072609AE041E0C0
:1025A00050E09A0126233723232B30917E022030DE
:1025B00029F0000025B1232B25B904C0000000003C
:1025C000000000C0000000000000309525B123236A
:1025D00025B9000021E52A95F1F7440F551F9A957A
:1025E00001F78A95A9F620B7206120BFA4B93091E0
:1025F0007E02309525B1232325B90FBE81E00895D1
:10260000CF92DF92EF92FF920F931F936B017C01A9
:1026100020E030E040E05FE40E946D1687FD0EC0D0
:1026200020E030E040E05FE4C701B6010E94B5144D
:102630000E94F8168B019C01305806C0C701B601F4
:102640000E94F8168B019C01B801C9011F910F91DE
:10265000FF90EF90DF90CF900895A4E0B0E0E3E327
:10266000F3E10C94221D7C016A01FC01808182301F
:1026700008F44AC1FB019081923008F442C18430D1
:1026800079F4943009F040C1F7019181FB01818117
:10269000981709F439C1A3E2EA2EA1E0FA2E34C159
:1026A000943009F42EC1923091F4823009F02CC19B
:1026B00088E0F701DA0101900D928A95E1F7FB01BC
:1026C0008181F70191818923FA0181831CC18230C4
:1026D00009F417C1F70182819381FB01A281B381C3
:1026E000F7010481158126813781FB018480958063
:1026F000A680B780FC01EA1BFB0BAF01F7FF04C00B
:10270000442755274E1B5F0B403251050CF074C017
:102710001E161F06B4F524013501042E04C076945C
:102720006794579447940A94D2F749825A826B82ED
:102730007C82412C512C3201439404C0440C551C22
:10274000661C771C4A95D2F741E0441A510861088B
:102750007108482059206A207B20812C912C54013B
:10276000839445284628472819F4812C912C54013C
:1027700049805A806B807C8084289528A628B728B9
:1027800046C0EF2B09F443C0840F951F280139017F
:10279000042E04C076946794579447940A94D2F711
:1027A00049825A826B827C82412C512C32014394A3
:1027B00004C0440C551C661C771C4A95D2F741E0B6
:1027C000441A510861087108402251226222732282
:1027D00001E010E020E030E045284628472819F4C1
:1027E00000E010E0980149805A806B807C800429C9
:1027F0001529262937290BC0A817B90724F4812CDD
:10280000912C540104C0CD0100E010E09801F701C3
:102810004181FB015181451709F446C0442349F029
:1028200024013501401A510A620A730A9301820198
:1028300004C0081919092A093B0937FD05C0F6012A
:102840001182938382830CC041E0F601418393831C
:10285000828330952095109501951F4F2F4F3F4F44
:1028600004831583268337830EC0880F991FAA1F00
:10287000BB1FF60184839583A683B78382819381EE
:10288000019793838283F60184819581A681B78124
:10289000AC01BD0141505109610971094F3F5F4FC2
:1028A0006F4F7F4310F30CC0F60141839383828303
:1028B000080D191D2A1D3B1D0483158326833783AC
:1028C00083E0F6018083448155816681778177FFBB
:1028D0001AC0DB01CA0181709927AA27BB27769508
:1028E000679557954795842B952BA62BB72B8483FB
:1028F0009583A683B7838281938101969383828394
:1029000002C07B0101C07601C7012496E0E10C946E
:102910003E1DA0E2B0E0EFE8F4E10C94301D6D8FB5
:102920007E8F8F8F98A3298F3A8F4B8F5C8FBE013C
:102930006F5E7F4FCE014D960E948718BE01675F84
:102940007F4FCE0149960E948718AE014F5F5F4FBF
:10295000BE01675F7F4FCE0141960E942D130E94FA
:10296000BD17A096E2E00C944C1DA0E2B0E0EBEBAA
:10297000F4E10C94301D6D8F7E8F8F8F98A3298F7B
:102980003A8F4B8F5C8FBE016F5E7F4FCE014D96AD
:102990000E948718BE01675F7F4FCE0149960E9453
:1029A00087188A8591E089278A87AE014F5F5F4F3C
:1029B000BE01675F7F4FCE0141960E942D130E949A
:1029C000BD17A096E2E00C944C1DA0E2B0E0EBEE47
:1029D000F4E10C94221D6D8F7E8F8F8F98A3298F29
:1029E0003A8F4B8F5C8FBE016F5E7F4FCE014D964D
:1029F0000E948718BE01675F7F4FCE0149960E94F3
:102A000087189989923008F412C08985823008F4B9
:102A10001AC0943021F4823009F4B4C008C0843064
:102A200021F4923009F4AEC00EC0923051F481E02E
:102A30002A899A85291301C080E08A8BCE014196AC
:102A4000A3C0823051F481E02A899A85291301C0FC
:102A500080E08A87CE01099697C08D889E88AF88CE
:102A6000B88C0D851E852F853889E0E2F0E080E086
:102A700090E0DC01C12CD12C760140E050E0BA019D
:102A800080FE18C0400F511F621F731F8C0D9D1DCB
:102A9000AE1DBF1D412C512C3201439440175107EC
:102AA0006207730718F0412C512C3201840D951DDB
:102AB000A61DB71DCC0CDD1CEE1CFF1C37FF02C091
:102AC0006894C0F8000F111F221F331FB694A794FB
:102AD000979487943197A1F62B893C89EB85FC85E7
:102AE0002E0F3F1F2E5F3F4F3C832B8321E0EA894F
:102AF0003A85E31301C020E02A83EB81FC810CC0FE
:102B000080FF05C076956795579547957068B6958F
:102B1000A795979587953196B7FDF2CF9F010CC089
:102B2000880F991FAA1FBB1F77FD8160440F551F97
:102B3000661F771F215031090097A105E0E4BE0709
:102B400078F32B833C838C019D010F77112722277B
:102B50003327003411052105310559F487FD09C0DB
:102B6000452B462B472B29F0805C9F4FAF4FBF4F23
:102B700080788D839E83AF83B88783E08983CE017D
:102B8000019602C083E291E00E94BD17A096E0E1A9
:102B90000C943E1DA8E1B0E0E0EDF5E10C942A1D97
:102BA0006D8B7E8B8F8B988F298B3A8B4B8B5C8BAD
:102BB000BE01675F7F4FCE0145960E948718BE0118
:102BC0006F5F7F4FCE0141960E94871899859230A2
:102BD00008F475C08981823008F474C02A853A816E
:102BE00023272A87943011F0923019F4981367C084
:102BF0006CC0843039F41D861E861F86188A1C8698
:102C00001B8604C0823029F484E08987CE010996AE
:102C10005EC08B859C852B813C81821B930B9C879E
:102C20008B874D855E856F857889CD80DE80EF80CE
:102C3000F8844C155D056E057F0538F4440F551F6B
:102C4000661F771F01979C878B87EFE1F0E000E01C
:102C500010E020E030E480E090E0DC014C155D0500
:102C60006E057F0540F0802B912BA22BB32B4C19C6
:102C70005D096E097F093695279517950795440FCD
:102C8000551F661F771F319749F78C019D010F77FC
:102C9000112722273327003411052105310559F466
:102CA00087FD09C0452B462B472B29F0805C9F4FA1
:102CB000AF4FBF4F80788D879E87AF87B88BCE018F
:102CC000099605C0CE01019602C083E291E00E9400
:102CD000BD176896E8E00C94461DA8E1B0E0E3E774
:102CE000F6E10C94301D6D8B7E8B8F8B988F298B2A
:102CF0003A8B4B8B5C8BBE01675F7F4FCE01459655
:102D00000E948718BE016F5F7F4FCE0141960E94DF
:102D100087188985823058F08981823040F0BE0161
:102D20006F5F7F4FCE0109960E94F61801C08FEFAA
:102D30006896E2E00C944C1DA8E0B0E0E2EAF6E10F
:102D40000C942E1D23E029838B019C01002737FD65
:102D50000395112722273327402F0A836115710518
:102D60008105910519F482E0898335C02EE130E0B8
:102D70003C832B83442371F061157105810520E8A4
:102D8000920771F1002711279801061B170B280BDA
:102D9000390B02C08B019C01C901B8010E946B1D57
:102DA0000197181619062CF00D831E832F83388780
:102DB00012C0082E04C0000F111F221F331F0A94D7
:102DC000D2F70D831E832F8338872EE130E0281B36
:102DD000390B3C832B83CE0101960E94BD1704C0A2
:102DE00060E070E080E09FEC2896E4E00C944A1DDF
:102DF000ACE0B0E0EEEFF6E10C942E1D69877A8727
:102E00008B879C87BE016F5F7F4FCE0109960E9422
:102E100087188981823091F1823080F1843041F4C9
:102E20008A81882331F100E010E020E030E829C0F9
:102E30002B813C8137FD22C02F3131058CF78EE18B
:102E400090E0821B930B0D811E812F81388504C079
:102E500036952795179507958A95D2F78A81882305
:102E600081F030952095109501951F4F2F4F3F4FC2
:102E700008C00FEF1FEF2FEF3FE703C000E010E0A7
:102E80009801B801C9012C96E4E00C944A1DA8E011
:102E9000B0E0EDE4F7E10C942A1D8B019C011A824D
:102EA000611571058105910519F482E089835DC082
:102EB00083E089834EE150E05C834B83C901B80114
:102EC0000E946B1D019797FF39C0EE27FF27E81B73
:102ED000F90B41E050E060E070E00E2E04C0440FBA
:102EE000551F661F771F0A94D2F741505109610997
:102EF00071094023512362237323C12CD12C760105
:102F0000C394452B462B472B19F4C12CD12C7601A9
:102F100004C03695279517950795EA95D2F70C29A1
:102F20001D292E293F290D831E832F8338872EE1EB
:102F300030E0281B390B3C832B8317C0009729F402
:102F40000D831E832F83388710C0082E04C0000F06
:102F5000111F221F331F0A94D2F70D831E832F8364
:102F60003887481B590B5C834B83CE0101960E9426
:102F7000BD172896E8E00C94461D0F931F93CF933E
:102F8000DF93DC0114964D915D916D917C911797C3
:102F90001196EC9111978C91823020F460618FEF43
:102FA00090E0A6C0843009F49EC0823009F495C038
:102FB000411551056105710509F492C012962D91D4
:102FC0003C91139722388FEF38070CF058C0C2E8B5
:102FD000DFEFC21BD30BCA31D1056CF58A019B010F
:102FE0000C2E04C036952795179507950A94D2F7AD
:102FF00081E090E0A0E0B0E00C2E04C0880F991FA3
:10300000AA1FBB1F0A94D2F70197A109B109842313
:103010009523A623B72341E050E060E070E0892BC0
:103020008A2B8B2B19F440E050E0BA01402B512B36
:10303000622B732B03C040E050E0BA01DB01CA01F0
:103040008F779927AA27BB2780349105A105B10561
:1030500039F447FF09C0405C5F4F6F4F7F4F04C09A
:10306000415C5F4F6F4F7F4F81E090E0411551050C
:10307000610520E4720748F580E090E026C0203822
:1030800031058CF5DB01CA018F779927AA27BB2769
:1030900080349105A105B10539F447FF09C0405CB2
:1030A0005F4F6F4F7F4F04C0415C5F4F6F4F7F4F4B
:1030B00077FD04C0C90181589F4F07C07695679579
:1030C00057954795C90180589F4F97E0769567952A
:1030D000579547959A95D1F70BC080E090E005C0D1
:1030E00080E090E005C08FEF90E040E050E0BA0152
:1030F000982F9695E0FB97F9362F80FB37F9642FD0
:10310000752F832FDF91CF911F910F910895CF924B
:10311000DF92EF92DC01FB01CC901196DC901197CD
:1031200012968C9112973FE7E32EE8226E2DA601AE
:1031300070E0982F991F9927991F13962C91822F31
:10314000880F892B90E027FB222720F92183009705
:1031500029F5411551056105710511F482E027C07B
:1031600082E89FEF9383828327E0440F551F661FF9
:10317000771F2A95D1F783E0808309C0440F551F3C
:10318000661F771F82819381019793838283411504
:103190005105610580E4780788F320C08F3F9105D1
:1031A00079F4411551056105710519F484E08083B6
:1031B00019C0E4FE03C081E0808310C010820EC0FD
:1031C0008F5791099383828383E0808387E0440F44
:1031D000551F661F771F8A95D1F770644483558306
:1031E00066837783EF90DF90CF900895CF93FC01B3
:1031F000DB019081923008F452C08C91823008F447
:103200004EC0943071F4843039F411962C9130E032
:103210008181281B310948C08181882309F43FC07E
:103220003BC0843029F411968C91811138C034C090
:10323000923019F48230B9F735C0823069F3C18118
:1032400011968C911197C8131DC02281338112965B
:103250008D919C911397821793070CF413C0281734
:1032600039070CF417C04481558166817781149623
:103270008D919D910D90BC91A02D84179507A60767
:10328000B70718F4C11108C00AC0481759076A07E0
:103290007B0740F4C11103C02FEF3FEF05C021E0D1
:1032A00030E002C020E030E0C901CF910895A3E1F1
:1032B000B0E0EDE5F9E10C94201D7C015B018A0191
:1032C000FC0117821682838181FD03C06DC38601D4
:1032D00005C088248394912C8C0E9D1EF701938148
:1032E000F50193FD859193FF81915F01882309F496
:1032F00057C3853239F493FD859193FF81915F0126
:10330000853231F4B70190E00E94D51E6801DFCF0D
:10331000412C512C20E02032A8F48B3261F028F4AB
:10332000803251F0833271F40BC08D3239F080332A
:1033300049F4216028C02260246025C0286023C091
:10334000206121C027FD27C0382F30533A3078F450
:1033500026FF06C0FAE04F9E300D1124432E13C005
:103360008AE0589E300D1124532E20620CC08E32FC
:1033700021F426FD15C3206406C08C3611F42068A4
:1033800002C0883641F4F50193FD859193FF819148
:103390005F018111C0CF982F9554933018F42061AC
:1033A000805E06C0982F9556933008F0A1C12F7EFD
:1033B00026FD02C056E0452E4FE3742E722285365C
:1033C00019F4F0E47F2A07C0863619F420E8722A3F
:1033D00002C041104A9477FE07C03BE3341548F021
:1033E000342C339427E00DC087E0841530F0242D71
:1033F00007C027E03CE3332E04C027E097E0492EC6
:10340000312C680194E0C90ED11CF80160817181F2
:1034100082819381032DA4010E94E71D8C012981E3
:103420002C8720FF02C023FF07C071FC08C072FE7A
:1034300009C080E2682E07C0BDE26B2E04C0ABE27B
:103440006A2E01C0612C8C858C70A1F1662011F070
:1034500084E001C083E0851510F0512C0BC0581A90
:1034600073FC08C0B70180E290E00E94D51E5A9418
:10347000C9F7F3CF662029F0B701862D90E00E94AE
:10348000D51E3C8533FD03C00CE610E00CC008E6F9
:1034900010E009C071108052B70190E00E94D51E63
:1034A0000F5F1F4F02C080E17822F80184918111E3
:1034B000F1CF73C277FE0EC0300E2C8524FF04C0FE
:1034C0008A81813309F43A9413144CF538E03315AA
:1034D00048F12CC076FC2AC0242D30E0201731079B
:1034E00044F00C3F8FEF180724F090E8792A01C0D0
:1034F0004A94442049F0E2E0F0E0EC0FFD1FE40DB7
:10350000F11D80818033A1F377FE10C0342C3394F9
:10351000242D30E00217130744F4401A07C0332467
:10352000339404C0F8E03F2E01C0412C77FE07C061
:10353000101611063CF498012F5F3F4F05C025E09F
:1035400030E002C021E030E0662011F02F5F3F4FF5
:10355000442031F0442D50E04F5F5F4F240F351F62
:10356000452D50E02417350714F4521A01C0512C90
:10357000872D897049F406C0B70180E290E00E946F
:10358000D51E5A945110F8CF662029F0B701862D28
:1035900090E00E94D51E73FC09C006C0B70180E30D
:1035A00090E00E94D51E5A945110F8CF77FE53C078
:1035B000380117FF02C0612C712C1E861D869801F0
:1035C00023193109388B2F87180126183708280C42
:1035D000391C642D70E022273327261B370B3A8BCA
:1035E000298B3FEF6316730629F4B7018EE290E052
:1035F0000E94D51E061517055CF02F853889261503
:10360000370534F4ED85FE85E20DF31D818101C09F
:1036100080E331E0631A71082D853E852F5F3F4FAF
:103620003E872D8729893A89621673062CF0B701E7
:1036300090E00E94D51ED5CF6016710649F49A819C
:10364000963328F4953321F43C8534FD01C081E3A1
:10365000B70190E04AC08A81813319F02C852F7E12
:103660002C87B70190E00E94D51E411005C074FE62
:1036700016C085E490E015C0B7018EE290E00E948C
:10368000D51EE2E06E2EF401E60DF11D6394B70144
:10369000808190E00E94D51E4A94A9F7E8CF85E684
:1036A00090E0B7010E94D51E17FD06C00115110557
:1036B00041F43C8534FF05C01195019511098DE257
:1036C00001C08BE2B70190E00E94D51E80E303C0E9
:1036D0008F5F0A5011090A301105D4F7B70190E045
:1036E0000E94D51EB701C801C0960E94D51E55C1C3
:1036F000833631F0833781F0833509F05EC024C012
:10370000680182E0C80ED11CF8018081898366249B
:103710006394712C840114C06801F2E0CF0ED11CB7
:10372000F8010081118126FF03C0642D70E002C002
:103730006FEF7FEFC8012B8B0E94CA1E3C012B89C3
:103740006FE7462E422217C06801F2E0CF0ED11C6F
:10375000F8010081118126FF03C0642D70E002C0D2
:103760006FEF7FEFC8012B8B0E94BF1E3C012B899E
:1037700050E8452E422A43FC1CC006C0B70180E237
:1037800090E00E94D51E5A94852D90E06816790627
:10379000A8F30FC0F80147FC859147FE81918F0186
:1037A000B70190E00E94D51E51105A94F1E06F1AB3
:1037B00071086114710471F7F0C0843611F0893614
:1037C00061F5680127FF09C034E0C30ED11CF80180
:1037D00060817181828193810AC0F2E0CF0ED11C99
:1037E000F80160817181882777FD8095982F4FE6D9
:1037F000742E722297FF09C09095809570956195FF
:103800007F4F8F4F9F4FF0E87F2A2AE030E0A401DE
:103810000E94011F682E681847C0853731F43FEEBB
:10382000732E72222AE030E024C099EF792E7222A2
:103830008F36B9F020F4883509F0B2C00DC080375A
:1038400021F0883709F0ACC002C020E1722A74FE72
:103850000BC034E0732A08C024FF09C086E0782A30
:1038600006C028E030E005C020E130E002C020E1E1
:1038700032E0680177FE09C094E0C90ED11CF8015E
:10388000608171818281938108C0F2E0CF0ED11CEA
:10389000F8016081718180E090E0A4010E94011F25
:1038A000682E6818FFE77F2276FE0BC0072D0E7F7B
:1038B000641450F474FE0AC072FC08C0072D0E7E1A
:1038C00005C0162D072D03C0162D01C0142D04FFB1
:1038D0000CC0FE01E60DF11D8081803311F4097EDC
:1038E00008C002FF05C01E5F04C0802F867809F063
:1038F0001F5F03FD12C000FF0DC0462C151550F4CC
:10390000450C411A152D06C0B70180E290E00E94D7
:10391000D51E1F5F1515C0F304C0151510F4511AFC
:1039200001C0512C04FF10C0B70180E390E00E9459
:10393000D51E02FF1EC001FF03C088E590E002C053
:1039400088E790E0B7010CC0802F867891F001FDE8
:1039500002C080E201C08BE207FD8DE2B70190E07A
:103960000E94D51E06C0B70180E390E00E94D51EDC
:103970004A946414C0F36A94F401E60DF11DB70192
:10398000808190E00E94D51E6110F5CF06C0B7017E
:1039900080E290E00E94D51E5A945110F8CF97CC47
:1039A000F7012681378102C02FEF3FEFC9016396EF
:1039B000E2E10C943C1D0E94EF0680910001909181
:1039C0000101FC01EB5DFE4F1082FC01EA5DFE4F40
:1039D00010820E94A20388EF90E090931D018093D3
:1039E0001C0186EE90E090931B0180931A016AE916
:1039F00071E081E491E00E946D0980E090E008951B
:103A0000A29FB001B39FC001A39F01D0B29F700DD0
:103A1000811D1124911D089597FB072E16F4009423
:103A200007D077FD09D00E94571D07FC05D03EF452
:103A3000909581959F4F0895709561957F4F08955A
:103A40002F923F924F925F926F927F928F929F92AE
:103A5000AF92BF92CF92DF92EF92FF920F931F939C
:103A6000CF93DF93CDB7DEB7CA1BDB0B0FB6F8944D
:103A7000DEBF0FBECDBF09942A88398848885F848D
:103A80006E847D848C849B84AA84B984C884DF80FE
:103A9000EE80FD800C811B81AA81B981CE0FD11DE2
:103AA0000FB6F894DEBF0FBECDBFED010895AA1B7F
:103AB000BB1B51E107C0AA1FBB1FA617B70710F019
:103AC000A61BB70B881F991F5A95A9F7809590954B
:103AD000BC01CD0108950E94741D84FF0895CB019F
:103AE0000E94741D805F0895AA27992329F4A85F76
:103AF000982B11F480E10895903118F4AD5F929500
:103B0000A395990FE8F78A2F992708958F929F928E
:103B1000AF92BF92CF92DF92EF92FF92CF93DF935B
:103B2000EC01688179818A819B816115710581052C
:103B3000910521F464E279ED8BE597E02DE133EF17
:103B400041E050E00E94881F49015A019B01AC01ED
:103B5000A7EAB1E40E94751F6B017C01ACEEB4EFE3
:103B6000A50194010E94831FC60ED71EE81EF91EF0
:103B7000F7FE06C081E0C81AD108E10880E8F80A1B
:103B8000C882D982EA82FB82E894D7F8EE24FF2427
:103B9000C601DF91CF91FF90EF90DF90CF90BF9063
:103BA000AF909F908F9008950E94861D08958FE199
:103BB00091E00E94861D0895A0E0B0E080931F016F
:103BC00090932001A0932101B09322010895283001
:103BD00008F027E03327DA01990F311D87FD916046
:103BE00000966105710539F432602E5F3D9330E334
:103BF0002A95E1F708959F3F30F0803871056105FF
:103C000009F03C5F3C5F3D93913008F08068911D66
:103C1000DF93CF931F930F93FF92EF92192F987F0B
:103C20009695E92F96959695E90FFF27E653FF4F56
:103C300099273327EE24FF24A701E7010590089474
:103C4000079428F4360FE71EF81E491F511D660F12
:103C5000771F881F991F0694A1F70590079428F4F1
:103C6000E70EF81E491F561FC11D770F881F991FA9
:103C7000661F0694A1F70590079428F4F80E491FD3
:103C8000561FC71FD11D880F991F661F771F0694E7
:103C9000A1F70590079420F4490F561FC71FD81F9E
:103CA000990F661F771F881F0694A9F784911095B6
:103CB000177041F0D695C79557954795F794E794B7
:103CC0001A95C1F7E0E7F0E06894159015913591E9
:103CD0006591959105907FE27395E118F10A430B88
:103CE000560BC90BD009C0F7E10CF11E431F561F3C
:103CF000C91FD01D7EF4703311F48A95E6CFE89485
:103D0000015030F0080F0AF40027021708F4202FA2
:103D10002395022F7A3328F079E37D932A95E9F7EA
:103D200010C07D932A9589F60694979567953795E7
:103D300017951794E118F10A430B560BC90BD009DC
:103D400098F023957E9173957A3308F070E37C9315
:103D50002013B8F77E9170617D9330F0839571E305
:103D60007D9370E32A95E1F71124EF90FF900F9176
:103D70001F91CF91DF91992787FD90950895FC01C0
:103D80000590615070400110D8F7809590958E0F86
:103D90009F1F0895FC016150704001900110D8F7F9
:103DA000809590958E0F9F1F08950F931F93CF932B
:103DB000DF938C01EB018B8181FD03C00FEF1FEFBF
:103DC0001AC082FF0DC02E813F818C819D812817F2
:103DD000390764F4E881F9810193F983E88306C027
:103DE000E885F985802F0995892B41F78E819F8180
:103DF00001969F838E83C801DF91CF911F910F9110
:103E00000895FA01AA27283051F1203181F1E89470
:103E10006F936E7F6E5F7F4F8F4F9F4FAF4FB1E0BD
:103E20003ED0B4E03CD0670F781F891F9A1FA11DB8
:103E3000680F791F8A1F911DA11D6A0F711D811DB9
:103E4000911DA11D20D009F468943F912AE0269F7E
:103E500011243019305D3193DEF6CF010895462FDD
:103E60004770405D4193B3E00FD0C9F7F6CF462FBE
:103E70004F70405D4A3318F0495D31FD4052419327
:103E800002D0A9F7EACFB4E0A695979587957795E4
:103E90006795BA95C9F700976105710508959B016B
:103EA000AC010A2E06945795479537952795BA95F4
:103EB000C9F7620F731F841F951FA01D0895F999FC
:103EC000FECF92BD81BDF89A992780B50895262F1F
:103ED000F999FECF1FBA92BD81BD20BD0FB6F894EF
:103EE000FA9AF99A0FBE019608950E94001DA59FA7
:103EF000900DB49F900DA49F800D911D11240895E5
:103F0000B7FF0C94751F0E94751F821B930B0895B9
:103F1000052E97FB16F4009407D057FD0DD00E9494
:103F2000A41F07FC09D07EF490958095709561954B
:103F30007F4F8F4F9F4F0895509540953095219515
:103F40003F4F4F4F5F4F0895A1E21A2EAA1BBB1B94
:103F5000FD010DC0AA1FBB1FEE1FFF1FA217B30755
:103F6000E407F50720F0A21BB30BE40BF50B661F6B
:103F7000771F881F991F1A9469F76095709580952F
:103F800090959B01AC01BD01CF010895F894FFCF3E
:103F9000300102060A090810113F0000000200006B
:103FA0000000DD0000000000EE06EB06EA06AA01B4
:0C3FB00000000000000000000000000005
:00000001FF
